{
  "_format": "hh-sol-artifact-1",
  "contractName": "WebAccessSBTV3",
  "sourceName": "contracts/WebAccessSBTV3.sol",
  "abi": [
    {
      "anonymous": false,
      "inputs": [
        {
          "indexed": false,
          "internalType": "address",
          "name": "previousAdmin",
          "type": "address"
        },
        {
          "indexed": false,
          "internalType": "address",
          "name": "newAdmin",
          "type": "address"
        }
      ],
      "name": "AdminChanged",
      "type": "event"
    },
    {
      "anonymous": false,
      "inputs": [
        {
          "indexed": true,
          "internalType": "address",
          "name": "user",
          "type": "address"
        },
        {
          "indexed": true,
          "internalType": "uint256",
          "name": "typeId",
          "type": "uint256"
        },
        {
          "indexed": false,
          "internalType": "uint256",
          "name": "tokenId",
          "type": "uint256"
        }
      ],
      "name": "Airdropped",
      "type": "event"
    },
    {
      "anonymous": false,
      "inputs": [
        {
          "indexed": true,
          "internalType": "address",
          "name": "owner",
          "type": "address"
        },
        {
          "indexed": true,
          "internalType": "address",
          "name": "approved",
          "type": "address"
        },
        {
          "indexed": true,
          "internalType": "uint256",
          "name": "tokenId",
          "type": "uint256"
        }
      ],
      "name": "Approval",
      "type": "event"
    },
    {
      "anonymous": false,
      "inputs": [
        {
          "indexed": true,
          "internalType": "address",
          "name": "owner",
          "type": "address"
        },
        {
          "indexed": true,
          "internalType": "address",
          "name": "operator",
          "type": "address"
        },
        {
          "indexed": false,
          "internalType": "bool",
          "name": "approved",
          "type": "bool"
        }
      ],
      "name": "ApprovalForAll",
      "type": "event"
    },
    {
      "anonymous": false,
      "inputs": [
        {
          "indexed": true,
          "internalType": "address",
          "name": "beacon",
          "type": "address"
        }
      ],
      "name": "BeaconUpgraded",
      "type": "event"
    },
    {
      "anonymous": false,
      "inputs": [
        {
          "indexed": true,
          "internalType": "address",
          "name": "user",
          "type": "address"
        },
        {
          "indexed": true,
          "internalType": "uint256",
          "name": "typeId",
          "type": "uint256"
        },
        {
          "indexed": false,
          "internalType": "uint256",
          "name": "tokenId",
          "type": "uint256"
        }
      ],
      "name": "Claimed",
      "type": "event"
    },
    {
      "anonymous": false,
      "inputs": [
        {
          "indexed": false,
          "internalType": "uint8",
          "name": "version",
          "type": "uint8"
        }
      ],
      "name": "Initialized",
      "type": "event"
    },
    {
      "anonymous": false,
      "inputs": [
        {
          "indexed": true,
          "internalType": "address",
          "name": "previousOwner",
          "type": "address"
        },
        {
          "indexed": true,
          "internalType": "address",
          "name": "newOwner",
          "type": "address"
        }
      ],
      "name": "OwnershipTransferred",
      "type": "event"
    },
    {
      "anonymous": false,
      "inputs": [
        {
          "indexed": true,
          "internalType": "uint256",
          "name": "typeId",
          "type": "uint256"
        },
        {
          "indexed": false,
          "internalType": "bool",
          "name": "status",
          "type": "bool"
        }
      ],
      "name": "SBTTypeActivated",
      "type": "event"
    },
    {
      "anonymous": false,
      "inputs": [
        {
          "indexed": true,
          "internalType": "uint256",
          "name": "typeId",
          "type": "uint256"
        },
        {
          "indexed": false,
          "internalType": "string",
          "name": "uri",
          "type": "string"
        },
        {
          "indexed": false,
          "internalType": "uint256",
          "name": "maxSupply",
          "type": "uint256"
        }
      ],
      "name": "SBTTypeCreated",
      "type": "event"
    },
    {
      "anonymous": false,
      "inputs": [
        {
          "indexed": true,
          "internalType": "address",
          "name": "from",
          "type": "address"
        },
        {
          "indexed": true,
          "internalType": "address",
          "name": "to",
          "type": "address"
        },
        {
          "indexed": true,
          "internalType": "uint256",
          "name": "tokenId",
          "type": "uint256"
        }
      ],
      "name": "Transfer",
      "type": "event"
    },
    {
      "anonymous": false,
      "inputs": [
        {
          "indexed": true,
          "internalType": "address",
          "name": "implementation",
          "type": "address"
        }
      ],
      "name": "Upgraded",
      "type": "event"
    },
    {
      "inputs": [
        {
          "internalType": "uint256",
          "name": "typeId",
          "type": "uint256"
        },
        {
          "internalType": "address[]",
          "name": "users",
          "type": "address[]"
        }
      ],
      "name": "addToWhitelist",
      "outputs": [],
      "stateMutability": "nonpayable",
      "type": "function"
    },
    {
      "inputs": [
        {
          "internalType": "uint256",
          "name": "typeId",
          "type": "uint256"
        },
        {
          "internalType": "address[]",
          "name": "users",
          "type": "address[]"
        }
      ],
      "name": "airdropTo",
      "outputs": [],
      "stateMutability": "nonpayable",
      "type": "function"
    },
    {
      "inputs": [
        {
          "internalType": "address",
          "name": "to",
          "type": "address"
        },
        {
          "internalType": "uint256",
          "name": "tokenId",
          "type": "uint256"
        }
      ],
      "name": "approve",
      "outputs": [],
      "stateMutability": "nonpayable",
      "type": "function"
    },
    {
      "inputs": [
        {
          "internalType": "address",
          "name": "owner",
          "type": "address"
        }
      ],
      "name": "balanceOf",
      "outputs": [
        {
          "internalType": "uint256",
          "name": "",
          "type": "uint256"
        }
      ],
      "stateMutability": "view",
      "type": "function"
    },
    {
      "inputs": [
        {
          "internalType": "uint256",
          "name": "typeId",
          "type": "uint256"
        }
      ],
      "name": "claim",
      "outputs": [],
      "stateMutability": "nonpayable",
      "type": "function"
    },
    {
      "inputs": [
        {
          "internalType": "uint256",
          "name": "typeId",
          "type": "uint256"
        },
        {
          "internalType": "string",
          "name": "uri",
          "type": "string"
        },
        {
          "internalType": "bool",
          "name": "burnable_",
          "type": "bool"
        },
        {
          "internalType": "uint256",
          "name": "maxSupply_",
          "type": "uint256"
        },
        {
          "internalType": "bool",
          "name": "useWhitelist",
          "type": "bool"
        }
      ],
      "name": "createSBTType",
      "outputs": [],
      "stateMutability": "nonpayable",
      "type": "function"
    },
    {
      "inputs": [
        {
          "internalType": "uint256",
          "name": "tokenId",
          "type": "uint256"
        }
      ],
      "name": "getApproved",
      "outputs": [
        {
          "internalType": "address",
          "name": "",
          "type": "address"
        }
      ],
      "stateMutability": "view",
      "type": "function"
    },
    {
      "inputs": [
        {
          "internalType": "uint256",
          "name": "",
          "type": "uint256"
        },
        {
          "internalType": "address",
          "name": "",
          "type": "address"
        }
      ],
      "name": "hasClaimed",
      "outputs": [
        {
          "internalType": "bool",
          "name": "",
          "type": "bool"
        }
      ],
      "stateMutability": "view",
      "type": "function"
    },
    {
      "inputs": [
        {
          "internalType": "address",
          "name": "initialOwner",
          "type": "address"
        }
      ],
      "name": "initialize",
      "outputs": [],
      "stateMutability": "nonpayable",
      "type": "function"
    },
    {
      "inputs": [
        {
          "internalType": "address",
          "name": "owner",
          "type": "address"
        },
        {
          "internalType": "address",
          "name": "operator",
          "type": "address"
        }
      ],
      "name": "isApprovedForAll",
      "outputs": [
        {
          "internalType": "bool",
          "name": "",
          "type": "bool"
        }
      ],
      "stateMutability": "view",
      "type": "function"
    },
    {
      "inputs": [],
      "name": "name",
      "outputs": [
        {
          "internalType": "string",
          "name": "",
          "type": "string"
        }
      ],
      "stateMutability": "view",
      "type": "function"
    },
    {
      "inputs": [],
      "name": "owner",
      "outputs": [
        {
          "internalType": "address",
          "name": "",
          "type": "address"
        }
      ],
      "stateMutability": "view",
      "type": "function"
    },
    {
      "inputs": [
        {
          "internalType": "uint256",
          "name": "tokenId",
          "type": "uint256"
        }
      ],
      "name": "ownerOf",
      "outputs": [
        {
          "internalType": "address",
          "name": "",
          "type": "address"
        }
      ],
      "stateMutability": "view",
      "type": "function"
    },
    {
      "inputs": [],
      "name": "proxiableUUID",
      "outputs": [
        {
          "internalType": "bytes32",
          "name": "",
          "type": "bytes32"
        }
      ],
      "stateMutability": "view",
      "type": "function"
    },
    {
      "inputs": [],
      "name": "renounceOwnership",
      "outputs": [],
      "stateMutability": "nonpayable",
      "type": "function"
    },
    {
      "inputs": [
        {
          "internalType": "address",
          "name": "from",
          "type": "address"
        },
        {
          "internalType": "address",
          "name": "to",
          "type": "address"
        },
        {
          "internalType": "uint256",
          "name": "tokenId",
          "type": "uint256"
        }
      ],
      "name": "safeTransferFrom",
      "outputs": [],
      "stateMutability": "nonpayable",
      "type": "function"
    },
    {
      "inputs": [
        {
          "internalType": "address",
          "name": "from",
          "type": "address"
        },
        {
          "internalType": "address",
          "name": "to",
          "type": "address"
        },
        {
          "internalType": "uint256",
          "name": "tokenId",
          "type": "uint256"
        },
        {
          "internalType": "bytes",
          "name": "data",
          "type": "bytes"
        }
      ],
      "name": "safeTransferFrom",
      "outputs": [],
      "stateMutability": "nonpayable",
      "type": "function"
    },
    {
      "inputs": [
        {
          "internalType": "uint256",
          "name": "",
          "type": "uint256"
        }
      ],
      "name": "sbtTypes",
      "outputs": [
        {
          "internalType": "string",
          "name": "uri",
          "type": "string"
        },
        {
          "internalType": "bool",
          "name": "burnable",
          "type": "bool"
        },
        {
          "internalType": "bool",
          "name": "active",
          "type": "bool"
        },
        {
          "internalType": "uint256",
          "name": "maxSupply",
          "type": "uint256"
        },
        {
          "internalType": "uint256",
          "name": "minted",
          "type": "uint256"
        }
      ],
      "stateMutability": "view",
      "type": "function"
    },
    {
      "inputs": [
        {
          "internalType": "uint256",
          "name": "typeId",
          "type": "uint256"
        },
        {
          "internalType": "bool",
          "name": "status",
          "type": "bool"
        }
      ],
      "name": "setActive",
      "outputs": [],
      "stateMutability": "nonpayable",
      "type": "function"
    },
    {
      "inputs": [
        {
          "internalType": "address",
          "name": "operator",
          "type": "address"
        },
        {
          "internalType": "bool",
          "name": "approved",
          "type": "bool"
        }
      ],
      "name": "setApprovalForAll",
      "outputs": [],
      "stateMutability": "nonpayable",
      "type": "function"
    },
    {
      "inputs": [
        {
          "internalType": "bytes4",
          "name": "interfaceId",
          "type": "bytes4"
        }
      ],
      "name": "supportsInterface",
      "outputs": [
        {
          "internalType": "bool",
          "name": "",
          "type": "bool"
        }
      ],
      "stateMutability": "view",
      "type": "function"
    },
    {
      "inputs": [],
      "name": "symbol",
      "outputs": [
        {
          "internalType": "string",
          "name": "",
          "type": "string"
        }
      ],
      "stateMutability": "view",
      "type": "function"
    },
    {
      "inputs": [
        {
          "internalType": "uint256",
          "name": "tokenId",
          "type": "uint256"
        }
      ],
      "name": "tokenURI",
      "outputs": [
        {
          "internalType": "string",
          "name": "",
          "type": "string"
        }
      ],
      "stateMutability": "view",
      "type": "function"
    },
    {
      "inputs": [
        {
          "internalType": "address",
          "name": "from",
          "type": "address"
        },
        {
          "internalType": "address",
          "name": "to",
          "type": "address"
        },
        {
          "internalType": "uint256",
          "name": "tokenId",
          "type": "uint256"
        }
      ],
      "name": "transferFrom",
      "outputs": [],
      "stateMutability": "nonpayable",
      "type": "function"
    },
    {
      "inputs": [
        {
          "internalType": "address",
          "name": "newOwner",
          "type": "address"
        }
      ],
      "name": "transferOwnership",
      "outputs": [],
      "stateMutability": "nonpayable",
      "type": "function"
    },
    {
      "inputs": [
        {
          "internalType": "uint256",
          "name": "",
          "type": "uint256"
        }
      ],
      "name": "typeOf",
      "outputs": [
        {
          "internalType": "uint256",
          "name": "",
          "type": "uint256"
        }
      ],
      "stateMutability": "view",
      "type": "function"
    },
    {
      "inputs": [
        {
          "internalType": "address",
          "name": "newImplementation",
          "type": "address"
        }
      ],
      "name": "upgradeTo",
      "outputs": [],
      "stateMutability": "nonpayable",
      "type": "function"
    },
    {
      "inputs": [
        {
          "internalType": "address",
          "name": "newImplementation",
          "type": "address"
        },
        {
          "internalType": "bytes",
          "name": "data",
          "type": "bytes"
        }
      ],
      "name": "upgradeToAndCall",
      "outputs": [],
      "stateMutability": "payable",
      "type": "function"
    },
    {
      "inputs": [
        {
          "internalType": "uint256",
          "name": "",
          "type": "uint256"
        },
        {
          "internalType": "address",
          "name": "",
          "type": "address"
        }
      ],
      "name": "whitelist",
      "outputs": [
        {
          "internalType": "bool",
          "name": "",
          "type": "bool"
        }
      ],
      "stateMutability": "view",
      "type": "function"
    },
    {
      "inputs": [
        {
          "internalType": "uint256",
          "name": "",
          "type": "uint256"
        }
      ],
      "name": "whitelistEnabled",
      "outputs": [
        {
          "internalType": "bool",
          "name": "",
          "type": "bool"
        }
      ],
      "stateMutability": "view",
      "type": "function"
    }
  ],
  "bytecode": "0x60a06040523060805234801561001457600080fd5b50608051612db361004c60003960008181610869015281816108a901528181610b2901528181610b690152610bfc0152612db36000f3fe6080604052600436106101cd5760003560e01c8063715018a6116100f7578063b88d4fde11610095578063e60a955d11610064578063e60a955d14610589578063e985e9c5146105a9578063f2295b1d146105c9578063f2fde38b146105e957600080fd5b8063b88d4fde146104fb578063c4d66de81461051b578063c588ff8b1461053b578063c87b56dd1461056957600080fd5b80638da5cb5b116100d15780638da5cb5b1461048857806395d89b41146104a6578063a128c6fb146104bb578063a22cb465146104db57600080fd5b8063715018a6146104065780637576f7921461041b578063873f6f9e1461044c57600080fd5b806342842e0e1161016f578063613a23d61161013e578063613a23d6146103755780636352211e146103955780636d6ae129146103b557806370a08231146103e657600080fd5b806342842e0e146102e35780634b25bfce146103035780634f1ef2861461033f57806352d1902d1461035257600080fd5b8063095ea7b3116101ab578063095ea7b31461026157806323b872dd146102835780633659cfe6146102a3578063379607f5146102c357600080fd5b806301ffc9a7146101d257806306fdde0314610207578063081812fc14610229575b600080fd5b3480156101de57600080fd5b506101f26101ed366004612473565b610609565b60405190151581526020015b60405180910390f35b34801561021357600080fd5b5061021c61065b565b6040516101fe91906124e0565b34801561023557600080fd5b506102496102443660046124f3565b6106ed565b6040516001600160a01b0390911681526020016101fe565b34801561026d57600080fd5b5061028161027c366004612528565b610714565b005b34801561028f57600080fd5b5061028161029e366004612552565b61082e565b3480156102af57600080fd5b506102816102be36600461258e565b61085f565b3480156102cf57600080fd5b506102816102de3660046124f3565b61093e565b3480156102ef57600080fd5b506102816102fe366004612552565b610b04565b34801561030f57600080fd5b506101f261031e3660046125a9565b61016260209081526000928352604080842090915290825290205460ff1681565b61028161034d366004612678565b610b1f565b34801561035e57600080fd5b50610367610bef565b6040519081526020016101fe565b34801561038157600080fd5b506102816103903660046126d6565b610ca2565b3480156103a157600080fd5b506102496103b03660046124f3565b610ee4565b3480156103c157600080fd5b506101f26103d03660046124f3565b6101616020526000908152604090205460ff1681565b3480156103f257600080fd5b5061036761040136600461258e565b610f44565b34801561041257600080fd5b50610281610fca565b34801561042757600080fd5b5061043b6104363660046124f3565b610fde565b6040516101fe95949392919061277c565b34801561045857600080fd5b506101f26104673660046125a9565b61016360209081526000928352604080842090915290825290205460ff1681565b34801561049457600080fd5b506097546001600160a01b0316610249565b3480156104b257600080fd5b5061021c61109c565b3480156104c757600080fd5b506102816104d63660046127b3565b6110ab565b3480156104e757600080fd5b506102816104f6366004612832565b6111f1565b34801561050757600080fd5b5061028161051636600461285c565b6111fc565b34801561052757600080fd5b5061028161053636600461258e565b611234565b34801561054757600080fd5b506103676105563660046124f3565b6101646020526000908152604090205481565b34801561057557600080fd5b5061021c6105843660046124f3565b6113ab565b34801561059557600080fd5b506102816105a43660046128c4565b6114b3565b3480156105b557600080fd5b506101f26105c43660046128e7565b611572565b3480156105d557600080fd5b506102816105e43660046127b3565b6115a0565b3480156105f557600080fd5b5061028161060436600461258e565b611673565b60006001600160e01b031982166380ac58cd60e01b148061063a57506001600160e01b03198216635b5e139f60e01b145b8061065557506301ffc9a760e01b6001600160e01b03198316145b92915050565b60606065805461066a90612911565b80601f016020809104026020016040519081016040528092919081815260200182805461069690612911565b80156106e35780601f106106b8576101008083540402835291602001916106e3565b820191906000526020600020905b8154815290600101906020018083116106c657829003601f168201915b5050505050905090565b60006106f8826116e9565b506000908152606960205260409020546001600160a01b031690565b600061071f82610ee4565b9050806001600160a01b0316836001600160a01b0316036107915760405162461bcd60e51b815260206004820152602160248201527f4552433732313a20617070726f76616c20746f2063757272656e74206f776e656044820152603960f91b60648201526084015b60405180910390fd5b336001600160a01b03821614806107ad57506107ad8133611572565b61081f5760405162461bcd60e51b815260206004820152603d60248201527f4552433732313a20617070726f76652063616c6c6572206973206e6f7420746f60448201527f6b656e206f776e6572206f7220617070726f76656420666f7220616c6c0000006064820152608401610788565b6108298383611748565b505050565b61083833826117b6565b6108545760405162461bcd60e51b81526004016107889061294b565b610829838383611815565b6001600160a01b037f00000000000000000000000000000000000000000000000000000000000000001630036108a75760405162461bcd60e51b815260040161078890612998565b7f00000000000000000000000000000000000000000000000000000000000000006001600160a01b03166108f0600080516020612d37833981519152546001600160a01b031690565b6001600160a01b0316146109165760405162461bcd60e51b8152600401610788906129e4565b61091f81611986565b6040805160008082526020820190925261093b9183919061198e565b50565b610946611af9565b6000818152610160602052604090206001810154610100900460ff1661099e5760405162461bcd60e51b815260206004820152600d60248201526c5479706520696e61637469766560981b6044820152606401610788565b60008281526101636020908152604080832033845290915290205460ff16156109fb5760405162461bcd60e51b815260206004820152600f60248201526e105b1c9958591e4818db185a5b5959608a1b6044820152606401610788565b8060020154816003015410610a3d5760405162461bcd60e51b815260206004820152600860248201526714dbdb19081bdd5d60c21b6044820152606401610788565b6000828152610161602052604090205460ff1615610ab15760008281526101626020908152604080832033845290915290205460ff16610ab15760405162461bcd60e51b815260206004820152600f60248201526e139bdd081dda1a5d195b1a5cdd1959608a1b6044820152606401610788565b610abb3383611b52565b81337f987d620f307ff6b94d58743cb7a7509f24071586a77759b77c2d4e29f75a2f9a610ae861015f5490565b60405190815260200160405180910390a35061093b600160c955565b610829838383604051806020016040528060008152506111fc565b6001600160a01b037f0000000000000000000000000000000000000000000000000000000000000000163003610b675760405162461bcd60e51b815260040161078890612998565b7f00000000000000000000000000000000000000000000000000000000000000006001600160a01b0316610bb0600080516020612d37833981519152546001600160a01b031690565b6001600160a01b031614610bd65760405162461bcd60e51b8152600401610788906129e4565b610bdf82611986565b610beb8282600161198e565b5050565b6000306001600160a01b037f00000000000000000000000000000000000000000000000000000000000000001614610c8f5760405162461bcd60e51b815260206004820152603860248201527f555550535570677261646561626c653a206d757374206e6f742062652063616c60448201527f6c6564207468726f7567682064656c656761746563616c6c00000000000000006064820152608401610788565b50600080516020612d3783398151915290565b610caa611bdf565b85600003610cee5760405162461bcd60e51b81526020600482015260116024820152701d1e5c195259080c081c995cd95c9d9959607a1b6044820152606401610788565b83610d2a5760405162461bcd60e51b815260206004820152600c60248201526b155492481c995c5d5a5c995960a21b6044820152606401610788565b60008211610d6e5760405162461bcd60e51b81526020600482015260116024820152700537570706c79206d757374206265203e3607c1b6044820152606401610788565b6000868152610160602052604090206002015415610dbc5760405162461bcd60e51b815260206004820152600b60248201526a547970652065786973747360a81b6044820152606401610788565b6040518060a0016040528086868080601f0160208091040260200160405190810160405280939291908181526020018383808284376000920182905250938552505050851515602080840191909152604080840183905260608401879052608090930182905289825261016090522081518190610e399082612a7e565b506020820151600182018054604085015115156101000261ff00199315159390931661ffff1990911617919091179055606082015160028201556080909101516003909101558015610ea057600086815261016160205260409020805460ff191660011790555b857f331fdfebfdf6bf38fed1b86a4acac0240843ece42a4cbfe6f311913c6c969d89868685604051610ed493929190612b3e565b60405180910390a2505050505050565b6000818152606760205260408120546001600160a01b0316806106555760405162461bcd60e51b8152602060048201526018602482015277115490cdcc8c4e881a5b9d985b1a59081d1bdad95b88125160421b6044820152606401610788565b60006001600160a01b038216610fae5760405162461bcd60e51b815260206004820152602960248201527f4552433732313a2061646472657373207a65726f206973206e6f7420612076616044820152683634b21037bbb732b960b91b6064820152608401610788565b506001600160a01b031660009081526068602052604090205490565b610fd2611bdf565b610fdc6000611c39565b565b61016060205260009081526040902080548190610ffa90612911565b80601f016020809104026020016040519081016040528092919081815260200182805461102690612911565b80156110735780601f1061104857610100808354040283529160200191611073565b820191906000526020600020905b81548152906001019060200180831161105657829003601f168201915b50505060018401546002850154600390950154939460ff80831695610100909304169350915085565b60606066805461066a90612911565b6110b3611bdf565b6000838152610160602052604090206001810154610100900460ff1661110b5760405162461bcd60e51b815260206004820152600d60248201526c5479706520696e61637469766560981b6044820152606401610788565b60005b8281108015611124575081600201548260030154105b156111ea57600084848381811061113d5761113d612b77565b9050602002016020810190611152919061258e565b6000878152610163602090815260408083206001600160a01b038516845290915290205490915060ff161561118757506111da565b6111918187611b52565b85816001600160a01b03167f7a688d4878cbd39da9b81cf43a08dadd22473d543d60975431287ab6d22e220c6111c761015f5490565b60405190815260200160405180910390a3505b6111e381612ba3565b905061110e565b5050505050565b610beb338383611c8b565b61120633836117b6565b6112225760405162461bcd60e51b81526004016107889061294b565b61122e84848484611d59565b50505050565b600054610100900460ff16158080156112545750600054600160ff909116105b8061126e5750303b15801561126e575060005460ff166001145b6112d15760405162461bcd60e51b815260206004820152602e60248201527f496e697469616c697a61626c653a20636f6e747261637420697320616c72656160448201526d191e481a5b9a5d1a585b1a5e995960921b6064820152608401610788565b6000805460ff1916600117905580156112f4576000805461ff0019166101001790555b6113416040518060400160405280600e81526020016d15d958881058d8d95cdcc814d09560921b8152506040518060400160405280600581526020016415ccd4d09560da1b815250611d8c565b611349611dbd565b611351611dec565b611359611e1b565b61136282611673565b8015610beb576000805461ff0019169055604051600181527f7f26b83ff96e1f2b6a682f133852f6798a09c465da95921460cefb38474024989060200160405180910390a15050565b6000818152606760205260409020546060906001600160a01b03166114065760405162461bcd60e51b81526020600482015260116024820152702737b732bc34b9ba32b73a103a37b5b2b760791b6044820152606401610788565b6000828152610164602090815260408083205483526101609091529020805461142e90612911565b80601f016020809104026020016040519081016040528092919081815260200182805461145a90612911565b80156114a75780601f1061147c576101008083540402835291602001916114a7565b820191906000526020600020905b81548152906001019060200180831161148a57829003601f168201915b50505050509050919050565b6114bb611bdf565b6000828152610160602052604090206002015461150b5760405162461bcd60e51b815260206004820152600e60248201526d151e5c19481b9bdd08199bdd5b9960921b6044820152606401610788565b600082815261016060205260409081902060010180548315156101000261ff00199091161790555182907f7d523d209be68d468b050a5f321bb1d6f8a46248910fa6e6e50a880b0e4d22569061156690841515815260200190565b60405180910390a25050565b6001600160a01b039182166000908152606a6020908152604080832093909416825291909152205460ff1690565b6115a8611bdf565b6000838152610161602052604090205460ff166115f75760405162461bcd60e51b815260206004820152600d60248201526c2bb434ba32b634b9ba1037b33360991b6044820152606401610788565b60005b8181101561122e5760008481526101626020526040812060019185858581811061162657611626612b77565b905060200201602081019061163b919061258e565b6001600160a01b031681526020810191909152604001600020805460ff191691151591909117905561166c81612ba3565b90506115fa565b61167b611bdf565b6001600160a01b0381166116e05760405162461bcd60e51b815260206004820152602660248201527f4f776e61626c653a206e6577206f776e657220697320746865207a65726f206160448201526564647265737360d01b6064820152608401610788565b61093b81611c39565b6000818152606760205260409020546001600160a01b031661093b5760405162461bcd60e51b8152602060048201526018602482015277115490cdcc8c4e881a5b9d985b1a59081d1bdad95b88125160421b6044820152606401610788565b600081815260696020526040902080546001600160a01b0319166001600160a01b038416908117909155819061177d82610ee4565b6001600160a01b03167f8c5be1e5ebec7d5bd14f71427d1e84f3dd0314c0f7b2291e5b200ac8c7c3b92560405160405180910390a45050565b6000806117c283610ee4565b9050806001600160a01b0316846001600160a01b031614806117e957506117e98185611572565b8061180d5750836001600160a01b0316611802846106ed565b6001600160a01b0316145b949350505050565b826001600160a01b031661182882610ee4565b6001600160a01b03161461184e5760405162461bcd60e51b815260040161078890612bbc565b6001600160a01b0382166118b05760405162461bcd60e51b8152602060048201526024808201527f4552433732313a207472616e7366657220746f20746865207a65726f206164646044820152637265737360e01b6064820152608401610788565b6118bd8383836001611e42565b826001600160a01b03166118d082610ee4565b6001600160a01b0316146118f65760405162461bcd60e51b815260040161078890612bbc565b600081815260696020908152604080832080546001600160a01b03199081169091556001600160a01b0387811680865260688552838620805460001901905590871680865283862080546001019055868652606790945282852080549092168417909155905184937fddf252ad1be2c89b69c2b068fc378daa952ba7f163c4a11628f55a4df523b3ef91a4505050565b61093b611bdf565b7f4910fdfa16fed3260ed0e7147f7cc6da11a60208b5b9406d12a635614ffd91435460ff16156119c15761082983611e9c565b826001600160a01b03166352d1902d6040518163ffffffff1660e01b8152600401602060405180830381865afa925050508015611a1b575060408051601f3d908101601f19168201909252611a1891810190612c01565b60015b611a7e5760405162461bcd60e51b815260206004820152602e60248201527f45524331393637557067726164653a206e657720696d706c656d656e7461746960448201526d6f6e206973206e6f74205555505360901b6064820152608401610788565b600080516020612d378339815191528114611aed5760405162461bcd60e51b815260206004820152602960248201527f45524331393637557067726164653a20756e737570706f727465642070726f786044820152681a58589b195555525160ba1b6064820152608401610788565b50610829838383611f38565b600260c95403611b4b5760405162461bcd60e51b815260206004820152601f60248201527f5265656e7472616e637947756172643a207265656e7472616e742063616c6c006044820152606401610788565b600260c955565b600081815261016060205260408120600301805460019290611b75908490612c1a565b909155505061015f805460010190556000611b9061015f5490565b6000838152610163602090815260408083206001600160a01b03881684528252808320805460ff19166001179055838352610164909152902083905590506108298382611f5d565b600160c955565b6097546001600160a01b03163314610fdc5760405162461bcd60e51b815260206004820181905260248201527f4f776e61626c653a2063616c6c6572206973206e6f7420746865206f776e65726044820152606401610788565b609780546001600160a01b038381166001600160a01b0319831681179093556040519116919082907f8be0079c531659141344cd1fd0a4f28419497f9722a3daafe3b4186f6b6457e090600090a35050565b816001600160a01b0316836001600160a01b031603611cec5760405162461bcd60e51b815260206004820152601960248201527f4552433732313a20617070726f766520746f2063616c6c6572000000000000006044820152606401610788565b6001600160a01b038381166000818152606a6020908152604080832094871680845294825291829020805460ff191686151590811790915591519182527f17307eab39ab6107e8899845ad3d59bd9653f200f220920489ca2b5937696c31910160405180910390a3505050565b611d64848484611815565b611d7084848484611f77565b61122e5760405162461bcd60e51b815260040161078890612c2d565b600054610100900460ff16611db35760405162461bcd60e51b815260040161078890612c7f565b610beb8282612078565b600054610100900460ff16611de45760405162461bcd60e51b815260040161078890612c7f565b610fdc6120b8565b600054610100900460ff16611e135760405162461bcd60e51b815260040161078890612c7f565b610fdc6120e8565b600054610100900460ff16610fdc5760405162461bcd60e51b815260040161078890612c7f565b6001600160a01b0384161580611e5f57506001600160a01b038316155b611e975760405162461bcd60e51b815260206004820152600960248201526814dbdd5b189bdd5b9960ba1b6044820152606401610788565b61122e565b6001600160a01b0381163b611f095760405162461bcd60e51b815260206004820152602d60248201527f455243313936373a206e657720696d706c656d656e746174696f6e206973206e60448201526c1bdd08184818dbdb9d1c9858dd609a1b6064820152608401610788565b600080516020612d3783398151915280546001600160a01b0319166001600160a01b0392909216919091179055565b611f418361210f565b600082511180611f4e5750805b156108295761122e838361214f565b610beb82826040518060200160405280600081525061217b565b60006001600160a01b0384163b1561206d57604051630a85bd0160e11b81526001600160a01b0385169063150b7a0290611fbb903390899088908890600401612cca565b6020604051808303816000875af1925050508015611ff6575060408051601f3d908101601f19168201909252611ff391810190612cfd565b60015b612053573d808015612024576040519150601f19603f3d011682016040523d82523d6000602084013e612029565b606091505b50805160000361204b5760405162461bcd60e51b815260040161078890612c2d565b805181602001fd5b6001600160e01b031916630a85bd0160e11b14905061180d565b506001949350505050565b600054610100900460ff1661209f5760405162461bcd60e51b815260040161078890612c7f565b60656120ab8382612a7e565b5060666108298282612a7e565b600054610100900460ff166120df5760405162461bcd60e51b815260040161078890612c7f565b610fdc33611c39565b600054610100900460ff16611bd85760405162461bcd60e51b815260040161078890612c7f565b61211881611e9c565b6040516001600160a01b038216907fbc7cd75a20ee27fd9adebab32041f755214dbc6bffa90cc0225b39da2e5c2d3b90600090a250565b60606121748383604051806060016040528060278152602001612d57602791396121ae565b9392505050565b6121858383612226565b6121926000848484611f77565b6108295760405162461bcd60e51b815260040161078890612c2d565b6060600080856001600160a01b0316856040516121cb9190612d1a565b600060405180830381855af49150503d8060008114612206576040519150601f19603f3d011682016040523d82523d6000602084013e61220b565b606091505b509150915061221c868383876123bf565b9695505050505050565b6001600160a01b03821661227c5760405162461bcd60e51b815260206004820181905260248201527f4552433732313a206d696e7420746f20746865207a65726f20616464726573736044820152606401610788565b6000818152606760205260409020546001600160a01b0316156122e15760405162461bcd60e51b815260206004820152601c60248201527f4552433732313a20746f6b656e20616c7265616479206d696e746564000000006044820152606401610788565b6122ef600083836001611e42565b6000818152606760205260409020546001600160a01b0316156123545760405162461bcd60e51b815260206004820152601c60248201527f4552433732313a20746f6b656e20616c7265616479206d696e746564000000006044820152606401610788565b6001600160a01b038216600081815260686020908152604080832080546001019055848352606790915280822080546001600160a01b0319168417905551839291907fddf252ad1be2c89b69c2b068fc378daa952ba7f163c4a11628f55a4df523b3ef908290a45050565b6060831561242e578251600003612427576001600160a01b0385163b6124275760405162461bcd60e51b815260206004820152601d60248201527f416464726573733a2063616c6c20746f206e6f6e2d636f6e74726163740000006044820152606401610788565b508161180d565b61180d83838151156124435781518083602001fd5b8060405162461bcd60e51b815260040161078891906124e0565b6001600160e01b03198116811461093b57600080fd5b60006020828403121561248557600080fd5b81356121748161245d565b60005b838110156124ab578181015183820152602001612493565b50506000910152565b600081518084526124cc816020860160208601612490565b601f01601f19169290920160200192915050565b60208152600061217460208301846124b4565b60006020828403121561250557600080fd5b5035919050565b80356001600160a01b038116811461252357600080fd5b919050565b6000806040838503121561253b57600080fd5b6125448361250c565b946020939093013593505050565b60008060006060848603121561256757600080fd5b6125708461250c565b925061257e6020850161250c565b9150604084013590509250925092565b6000602082840312156125a057600080fd5b6121748261250c565b600080604083850312156125bc57600080fd5b823591506125cc6020840161250c565b90509250929050565b634e487b7160e01b600052604160045260246000fd5b600082601f8301126125fc57600080fd5b813567ffffffffffffffff80821115612617576126176125d5565b604051601f8301601f19908116603f0116810190828211818310171561263f5761263f6125d5565b8160405283815286602085880101111561265857600080fd5b836020870160208301376000602085830101528094505050505092915050565b6000806040838503121561268b57600080fd5b6126948361250c565b9150602083013567ffffffffffffffff8111156126b057600080fd5b6126bc858286016125eb565b9150509250929050565b8035801515811461252357600080fd5b60008060008060008060a087890312156126ef57600080fd5b86359550602087013567ffffffffffffffff8082111561270e57600080fd5b818901915089601f83011261272257600080fd5b81358181111561273157600080fd5b8a602082850101111561274357600080fd5b60208301975080965050505061275b604088016126c6565b925060608701359150612770608088016126c6565b90509295509295509295565b60a08152600061278f60a08301886124b4565b95151560208301525092151560408401526060830191909152608090910152919050565b6000806000604084860312156127c857600080fd5b83359250602084013567ffffffffffffffff808211156127e757600080fd5b818601915086601f8301126127fb57600080fd5b81358181111561280a57600080fd5b8760208260051b850101111561281f57600080fd5b6020830194508093505050509250925092565b6000806040838503121561284557600080fd5b61284e8361250c565b91506125cc602084016126c6565b6000806000806080858703121561287257600080fd5b61287b8561250c565b93506128896020860161250c565b925060408501359150606085013567ffffffffffffffff8111156128ac57600080fd5b6128b8878288016125eb565b91505092959194509250565b600080604083850312156128d757600080fd5b823591506125cc602084016126c6565b600080604083850312156128fa57600080fd5b6129038361250c565b91506125cc6020840161250c565b600181811c9082168061292557607f821691505b60208210810361294557634e487b7160e01b600052602260045260246000fd5b50919050565b6020808252602d908201527f4552433732313a2063616c6c6572206973206e6f7420746f6b656e206f776e6560408201526c1c881bdc88185c1c1c9bdd9959609a1b606082015260800190565b6020808252602c908201527f46756e6374696f6e206d7573742062652063616c6c6564207468726f7567682060408201526b19195b1959d85d1958d85b1b60a21b606082015260800190565b6020808252602c908201527f46756e6374696f6e206d7573742062652063616c6c6564207468726f7567682060408201526b6163746976652070726f787960a01b606082015260800190565b601f82111561082957600081815260208120601f850160051c81016020861015612a575750805b601f850160051c820191505b81811015612a7657828155600101612a63565b505050505050565b815167ffffffffffffffff811115612a9857612a986125d5565b612aac81612aa68454612911565b84612a30565b602080601f831160018114612ae15760008415612ac95750858301515b600019600386901b1c1916600185901b178555612a76565b600085815260208120601f198616915b82811015612b1057888601518255948401946001909101908401612af1565b5085821015612b2e5787850151600019600388901b60f8161c191681555b5050505050600190811b01905550565b604081528260408201528284606083013760006060848301015260006060601f19601f8601168301019050826020830152949350505050565b634e487b7160e01b600052603260045260246000fd5b634e487b7160e01b600052601160045260246000fd5b600060018201612bb557612bb5612b8d565b5060010190565b60208082526025908201527f4552433732313a207472616e736665722066726f6d20696e636f72726563742060408201526437bbb732b960d91b606082015260800190565b600060208284031215612c1357600080fd5b5051919050565b8082018082111561065557610655612b8d565b60208082526032908201527f4552433732313a207472616e7366657220746f206e6f6e20455243373231526560408201527131b2b4bb32b91034b6b83632b6b2b73a32b960711b606082015260800190565b6020808252602b908201527f496e697469616c697a61626c653a20636f6e7472616374206973206e6f74206960408201526a6e697469616c697a696e6760a81b606082015260800190565b6001600160a01b038581168252841660208201526040810183905260806060820181905260009061221c908301846124b4565b600060208284031215612d0f57600080fd5b81516121748161245d565b60008251612d2c818460208701612490565b919091019291505056fe360894a13ba1a3210667c828492db98dca3e2076cc3735a920a3ca505d382bbc416464726573733a206c6f772d6c6576656c2064656c65676174652063616c6c206661696c6564a2646970667358221220c21922294534effd6bca7456cade9c08dbb3ce18e930efe7b12c96507526913464736f6c63430008140033",
  "linkReferences": {},
  "deployedLinkReferences": {}
}