{
  "_format": "hh-sol-artifact-1",
  "contractName": "WebAccessSBTV5",
  "sourceName": "contracts/WebAccessSBTV5.sol",
  "abi": [
    {
      "anonymous": false,
      "inputs": [
        {
          "indexed": false,
          "internalType": "address",
          "name": "previousAdmin",
          "type": "address"
        },
        {
          "indexed": false,
          "internalType": "address",
          "name": "newAdmin",
          "type": "address"
        }
      ],
      "name": "AdminChanged",
      "type": "event"
    },
    {
      "anonymous": false,
      "inputs": [
        {
          "indexed": true,
          "internalType": "address",
          "name": "user",
          "type": "address"
        },
        {
          "indexed": true,
          "internalType": "uint256",
          "name": "typeId",
          "type": "uint256"
        },
        {
          "indexed": false,
          "internalType": "uint256",
          "name": "tokenId",
          "type": "uint256"
        }
      ],
      "name": "Airdropped",
      "type": "event"
    },
    {
      "anonymous": false,
      "inputs": [
        {
          "indexed": true,
          "internalType": "address",
          "name": "owner",
          "type": "address"
        },
        {
          "indexed": true,
          "internalType": "address",
          "name": "approved",
          "type": "address"
        },
        {
          "indexed": true,
          "internalType": "uint256",
          "name": "tokenId",
          "type": "uint256"
        }
      ],
      "name": "Approval",
      "type": "event"
    },
    {
      "anonymous": false,
      "inputs": [
        {
          "indexed": true,
          "internalType": "address",
          "name": "owner",
          "type": "address"
        },
        {
          "indexed": true,
          "internalType": "address",
          "name": "operator",
          "type": "address"
        },
        {
          "indexed": false,
          "internalType": "bool",
          "name": "approved",
          "type": "bool"
        }
      ],
      "name": "ApprovalForAll",
      "type": "event"
    },
    {
      "anonymous": false,
      "inputs": [
        {
          "indexed": true,
          "internalType": "address",
          "name": "beacon",
          "type": "address"
        }
      ],
      "name": "BeaconUpgraded",
      "type": "event"
    },
    {
      "anonymous": false,
      "inputs": [
        {
          "indexed": true,
          "internalType": "address",
          "name": "user",
          "type": "address"
        },
        {
          "indexed": true,
          "internalType": "uint256",
          "name": "typeId",
          "type": "uint256"
        },
        {
          "indexed": false,
          "internalType": "uint256",
          "name": "tokenId",
          "type": "uint256"
        }
      ],
      "name": "Claimed",
      "type": "event"
    },
    {
      "anonymous": false,
      "inputs": [
        {
          "indexed": false,
          "internalType": "uint8",
          "name": "version",
          "type": "uint8"
        }
      ],
      "name": "Initialized",
      "type": "event"
    },
    {
      "anonymous": false,
      "inputs": [
        {
          "indexed": true,
          "internalType": "uint256",
          "name": "typeId",
          "type": "uint256"
        },
        {
          "indexed": true,
          "internalType": "address",
          "name": "organizer",
          "type": "address"
        }
      ],
      "name": "OrganizerSet",
      "type": "event"
    },
    {
      "anonymous": false,
      "inputs": [
        {
          "indexed": true,
          "internalType": "address",
          "name": "previousOwner",
          "type": "address"
        },
        {
          "indexed": true,
          "internalType": "address",
          "name": "newOwner",
          "type": "address"
        }
      ],
      "name": "OwnershipTransferred",
      "type": "event"
    },
    {
      "anonymous": false,
      "inputs": [
        {
          "indexed": true,
          "internalType": "uint256",
          "name": "typeId",
          "type": "uint256"
        },
        {
          "indexed": false,
          "internalType": "bool",
          "name": "status",
          "type": "bool"
        }
      ],
      "name": "SBTTypeActivated",
      "type": "event"
    },
    {
      "anonymous": false,
      "inputs": [
        {
          "indexed": true,
          "internalType": "uint256",
          "name": "typeId",
          "type": "uint256"
        },
        {
          "indexed": false,
          "internalType": "string",
          "name": "uri",
          "type": "string"
        },
        {
          "indexed": false,
          "internalType": "uint256",
          "name": "maxSupply",
          "type": "uint256"
        }
      ],
      "name": "SBTTypeCreated",
      "type": "event"
    },
    {
      "anonymous": false,
      "inputs": [
        {
          "indexed": false,
          "internalType": "address",
          "name": "token",
          "type": "address"
        },
        {
          "indexed": false,
          "internalType": "uint256",
          "name": "amount",
          "type": "uint256"
        }
      ],
      "name": "TeaRequirementSet",
      "type": "event"
    },
    {
      "anonymous": false,
      "inputs": [
        {
          "indexed": true,
          "internalType": "address",
          "name": "from",
          "type": "address"
        },
        {
          "indexed": true,
          "internalType": "address",
          "name": "to",
          "type": "address"
        },
        {
          "indexed": true,
          "internalType": "uint256",
          "name": "tokenId",
          "type": "uint256"
        }
      ],
      "name": "Transfer",
      "type": "event"
    },
    {
      "anonymous": false,
      "inputs": [
        {
          "indexed": true,
          "internalType": "address",
          "name": "implementation",
          "type": "address"
        }
      ],
      "name": "Upgraded",
      "type": "event"
    },
    {
      "inputs": [
        {
          "internalType": "uint256",
          "name": "typeId",
          "type": "uint256"
        },
        {
          "internalType": "address[]",
          "name": "users",
          "type": "address[]"
        }
      ],
      "name": "addToWhitelist",
      "outputs": [],
      "stateMutability": "nonpayable",
      "type": "function"
    },
    {
      "inputs": [
        {
          "internalType": "uint256",
          "name": "typeId",
          "type": "uint256"
        },
        {
          "internalType": "address[]",
          "name": "users",
          "type": "address[]"
        }
      ],
      "name": "airdropTo",
      "outputs": [],
      "stateMutability": "nonpayable",
      "type": "function"
    },
    {
      "inputs": [
        {
          "internalType": "address",
          "name": "to",
          "type": "address"
        },
        {
          "internalType": "uint256",
          "name": "tokenId",
          "type": "uint256"
        }
      ],
      "name": "approve",
      "outputs": [],
      "stateMutability": "nonpayable",
      "type": "function"
    },
    {
      "inputs": [
        {
          "internalType": "address",
          "name": "owner",
          "type": "address"
        }
      ],
      "name": "balanceOf",
      "outputs": [
        {
          "internalType": "uint256",
          "name": "",
          "type": "uint256"
        }
      ],
      "stateMutability": "view",
      "type": "function"
    },
    {
      "inputs": [
        {
          "internalType": "uint256",
          "name": "tokenId",
          "type": "uint256"
        }
      ],
      "name": "burn",
      "outputs": [],
      "stateMutability": "nonpayable",
      "type": "function"
    },
    {
      "inputs": [
        {
          "internalType": "uint256",
          "name": "typeId",
          "type": "uint256"
        }
      ],
      "name": "claim",
      "outputs": [],
      "stateMutability": "nonpayable",
      "type": "function"
    },
    {
      "inputs": [
        {
          "internalType": "uint256",
          "name": "typeId",
          "type": "uint256"
        },
        {
          "internalType": "string",
          "name": "uri",
          "type": "string"
        },
        {
          "internalType": "bool",
          "name": "burnable_",
          "type": "bool"
        },
        {
          "internalType": "uint256",
          "name": "maxSupply_",
          "type": "uint256"
        },
        {
          "internalType": "bool",
          "name": "useWhitelist",
          "type": "bool"
        }
      ],
      "name": "createSBTType",
      "outputs": [],
      "stateMutability": "nonpayable",
      "type": "function"
    },
    {
      "inputs": [
        {
          "internalType": "uint256",
          "name": "tokenId",
          "type": "uint256"
        }
      ],
      "name": "getApproved",
      "outputs": [
        {
          "internalType": "address",
          "name": "",
          "type": "address"
        }
      ],
      "stateMutability": "view",
      "type": "function"
    },
    {
      "inputs": [
        {
          "internalType": "uint256",
          "name": "",
          "type": "uint256"
        },
        {
          "internalType": "address",
          "name": "",
          "type": "address"
        }
      ],
      "name": "hasClaimed",
      "outputs": [
        {
          "internalType": "bool",
          "name": "",
          "type": "bool"
        }
      ],
      "stateMutability": "view",
      "type": "function"
    },
    {
      "inputs": [
        {
          "internalType": "address",
          "name": "initialOwner",
          "type": "address"
        }
      ],
      "name": "initialize",
      "outputs": [],
      "stateMutability": "nonpayable",
      "type": "function"
    },
    {
      "inputs": [
        {
          "internalType": "address",
          "name": "owner",
          "type": "address"
        },
        {
          "internalType": "address",
          "name": "operator",
          "type": "address"
        }
      ],
      "name": "isApprovedForAll",
      "outputs": [
        {
          "internalType": "bool",
          "name": "",
          "type": "bool"
        }
      ],
      "stateMutability": "view",
      "type": "function"
    },
    {
      "inputs": [],
      "name": "minTeaRequired",
      "outputs": [
        {
          "internalType": "uint256",
          "name": "",
          "type": "uint256"
        }
      ],
      "stateMutability": "view",
      "type": "function"
    },
    {
      "inputs": [
        {
          "internalType": "address",
          "name": "user",
          "type": "address"
        },
        {
          "internalType": "uint256",
          "name": "typeId",
          "type": "uint256"
        }
      ],
      "name": "mintTo",
      "outputs": [],
      "stateMutability": "nonpayable",
      "type": "function"
    },
    {
      "inputs": [],
      "name": "name",
      "outputs": [
        {
          "internalType": "string",
          "name": "",
          "type": "string"
        }
      ],
      "stateMutability": "view",
      "type": "function"
    },
    {
      "inputs": [
        {
          "internalType": "uint256",
          "name": "",
          "type": "uint256"
        }
      ],
      "name": "organizers",
      "outputs": [
        {
          "internalType": "address",
          "name": "",
          "type": "address"
        }
      ],
      "stateMutability": "view",
      "type": "function"
    },
    {
      "inputs": [],
      "name": "owner",
      "outputs": [
        {
          "internalType": "address",
          "name": "",
          "type": "address"
        }
      ],
      "stateMutability": "view",
      "type": "function"
    },
    {
      "inputs": [
        {
          "internalType": "uint256",
          "name": "tokenId",
          "type": "uint256"
        }
      ],
      "name": "ownerOf",
      "outputs": [
        {
          "internalType": "address",
          "name": "",
          "type": "address"
        }
      ],
      "stateMutability": "view",
      "type": "function"
    },
    {
      "inputs": [],
      "name": "proxiableUUID",
      "outputs": [
        {
          "internalType": "bytes32",
          "name": "",
          "type": "bytes32"
        }
      ],
      "stateMutability": "view",
      "type": "function"
    },
    {
      "inputs": [],
      "name": "renounceOwnership",
      "outputs": [],
      "stateMutability": "nonpayable",
      "type": "function"
    },
    {
      "inputs": [
        {
          "internalType": "address",
          "name": "from",
          "type": "address"
        },
        {
          "internalType": "address",
          "name": "to",
          "type": "address"
        },
        {
          "internalType": "uint256",
          "name": "tokenId",
          "type": "uint256"
        }
      ],
      "name": "safeTransferFrom",
      "outputs": [],
      "stateMutability": "nonpayable",
      "type": "function"
    },
    {
      "inputs": [
        {
          "internalType": "address",
          "name": "from",
          "type": "address"
        },
        {
          "internalType": "address",
          "name": "to",
          "type": "address"
        },
        {
          "internalType": "uint256",
          "name": "tokenId",
          "type": "uint256"
        },
        {
          "internalType": "bytes",
          "name": "data",
          "type": "bytes"
        }
      ],
      "name": "safeTransferFrom",
      "outputs": [],
      "stateMutability": "nonpayable",
      "type": "function"
    },
    {
      "inputs": [
        {
          "internalType": "uint256",
          "name": "",
          "type": "uint256"
        }
      ],
      "name": "sbtTypes",
      "outputs": [
        {
          "internalType": "string",
          "name": "uri",
          "type": "string"
        },
        {
          "internalType": "bool",
          "name": "burnable",
          "type": "bool"
        },
        {
          "internalType": "bool",
          "name": "active",
          "type": "bool"
        },
        {
          "internalType": "uint256",
          "name": "maxSupply",
          "type": "uint256"
        },
        {
          "internalType": "uint256",
          "name": "minted",
          "type": "uint256"
        }
      ],
      "stateMutability": "view",
      "type": "function"
    },
    {
      "inputs": [
        {
          "internalType": "uint256",
          "name": "typeId",
          "type": "uint256"
        },
        {
          "internalType": "bool",
          "name": "status",
          "type": "bool"
        }
      ],
      "name": "setActive",
      "outputs": [],
      "stateMutability": "nonpayable",
      "type": "function"
    },
    {
      "inputs": [
        {
          "internalType": "address",
          "name": "operator",
          "type": "address"
        },
        {
          "internalType": "bool",
          "name": "approved",
          "type": "bool"
        }
      ],
      "name": "setApprovalForAll",
      "outputs": [],
      "stateMutability": "nonpayable",
      "type": "function"
    },
    {
      "inputs": [
        {
          "internalType": "uint256",
          "name": "typeId",
          "type": "uint256"
        },
        {
          "internalType": "address",
          "name": "org",
          "type": "address"
        }
      ],
      "name": "setOrganizer",
      "outputs": [],
      "stateMutability": "nonpayable",
      "type": "function"
    },
    {
      "inputs": [
        {
          "internalType": "address",
          "name": "_token",
          "type": "address"
        },
        {
          "internalType": "uint256",
          "name": "_min",
          "type": "uint256"
        }
      ],
      "name": "setTeaRules",
      "outputs": [],
      "stateMutability": "nonpayable",
      "type": "function"
    },
    {
      "inputs": [
        {
          "internalType": "bytes4",
          "name": "interfaceId",
          "type": "bytes4"
        }
      ],
      "name": "supportsInterface",
      "outputs": [
        {
          "internalType": "bool",
          "name": "",
          "type": "bool"
        }
      ],
      "stateMutability": "view",
      "type": "function"
    },
    {
      "inputs": [],
      "name": "symbol",
      "outputs": [
        {
          "internalType": "string",
          "name": "",
          "type": "string"
        }
      ],
      "stateMutability": "view",
      "type": "function"
    },
    {
      "inputs": [],
      "name": "teaToken",
      "outputs": [
        {
          "internalType": "contract IERC20",
          "name": "",
          "type": "address"
        }
      ],
      "stateMutability": "view",
      "type": "function"
    },
    {
      "inputs": [
        {
          "internalType": "uint256",
          "name": "tokenId",
          "type": "uint256"
        }
      ],
      "name": "tokenURI",
      "outputs": [
        {
          "internalType": "string",
          "name": "",
          "type": "string"
        }
      ],
      "stateMutability": "view",
      "type": "function"
    },
    {
      "inputs": [
        {
          "internalType": "address",
          "name": "user",
          "type": "address"
        }
      ],
      "name": "tokensOfOwner",
      "outputs": [
        {
          "internalType": "uint256[]",
          "name": "",
          "type": "uint256[]"
        }
      ],
      "stateMutability": "view",
      "type": "function"
    },
    {
      "inputs": [
        {
          "internalType": "address",
          "name": "from",
          "type": "address"
        },
        {
          "internalType": "address",
          "name": "to",
          "type": "address"
        },
        {
          "internalType": "uint256",
          "name": "tokenId",
          "type": "uint256"
        }
      ],
      "name": "transferFrom",
      "outputs": [],
      "stateMutability": "nonpayable",
      "type": "function"
    },
    {
      "inputs": [
        {
          "internalType": "address",
          "name": "newOwner",
          "type": "address"
        }
      ],
      "name": "transferOwnership",
      "outputs": [],
      "stateMutability": "nonpayable",
      "type": "function"
    },
    {
      "inputs": [
        {
          "internalType": "uint256",
          "name": "",
          "type": "uint256"
        }
      ],
      "name": "typeOf",
      "outputs": [
        {
          "internalType": "uint256",
          "name": "",
          "type": "uint256"
        }
      ],
      "stateMutability": "view",
      "type": "function"
    },
    {
      "inputs": [
        {
          "internalType": "address",
          "name": "newImplementation",
          "type": "address"
        }
      ],
      "name": "upgradeTo",
      "outputs": [],
      "stateMutability": "nonpayable",
      "type": "function"
    },
    {
      "inputs": [
        {
          "internalType": "address",
          "name": "newImplementation",
          "type": "address"
        },
        {
          "internalType": "bytes",
          "name": "data",
          "type": "bytes"
        }
      ],
      "name": "upgradeToAndCall",
      "outputs": [],
      "stateMutability": "payable",
      "type": "function"
    },
    {
      "inputs": [
        {
          "internalType": "uint256",
          "name": "",
          "type": "uint256"
        },
        {
          "internalType": "address",
          "name": "",
          "type": "address"
        }
      ],
      "name": "whitelist",
      "outputs": [
        {
          "internalType": "bool",
          "name": "",
          "type": "bool"
        }
      ],
      "stateMutability": "view",
      "type": "function"
    },
    {
      "inputs": [
        {
          "internalType": "uint256",
          "name": "",
          "type": "uint256"
        }
      ],
      "name": "whitelistEnabled",
      "outputs": [
        {
          "internalType": "bool",
          "name": "",
          "type": "bool"
        }
      ],
      "stateMutability": "view",
      "type": "function"
    }
  ],
  "bytecode": "0x60a06040523060805234801561001457600080fd5b506080516134ab61004c60003960008181610a5101528181610a9101528181610f9e01528181610fde015261106d01526134ab6000f3fe6080604052600436106102255760003560e01c80637576f79211610123578063a4c8be1e116100ab578063cac746f01161006f578063cac746f0146106e6578063e60a955d146106fd578063e985e9c51461071d578063f2295b1d1461073d578063f2fde38b1461075d57600080fd5b8063a4c8be1e14610621578063b88d4fde14610658578063c4d66de814610678578063c588ff8b14610698578063c87b56dd146106c657600080fd5b80638933b6fd116100f25780638933b6fd1461058d5780638da5cb5b146105ae57806395d89b41146105cc578063a128c6fb146105e1578063a22cb4651461060157600080fd5b80637576f792146104d357806383719ae1146105045780638462151c14610524578063873f6f9e1461055157600080fd5b806342966c68116101b1578063613a23d611610175578063613a23d61461042d5780636352211e1461044d5780636d6ae1291461046d57806370a082311461049e578063715018a6146104be57600080fd5b806342966c681461037b578063449a52f81461039b5780634b25bfce146103bb5780634f1ef286146103f757806352d1902d1461040a57600080fd5b80631aa53791116101f85780631aa53791146102db57806323b872dd146102fb5780633659cfe61461031b578063379607f51461033b57806342842e0e1461035b57600080fd5b806301ffc9a71461022a57806306fdde031461025f578063081812fc14610281578063095ea7b3146102b9575b600080fd5b34801561023657600080fd5b5061024a610245366004612b05565b61077d565b60405190151581526020015b60405180910390f35b34801561026b57600080fd5b5061027461078e565b6040516102569190612b72565b34801561028d57600080fd5b506102a161029c366004612b85565b610820565b6040516001600160a01b039091168152602001610256565b3480156102c557600080fd5b506102d96102d4366004612bba565b610847565b005b3480156102e757600080fd5b506102d96102f6366004612bba565b610961565b34801561030757600080fd5b506102d9610316366004612be4565b610a16565b34801561032757600080fd5b506102d9610336366004612c20565b610a47565b34801561034757600080fd5b506102d9610356366004612b85565b610b26565b34801561036757600080fd5b506102d9610376366004612be4565b610d86565b34801561038757600080fd5b506102d9610396366004612b85565b610da1565b3480156103a757600080fd5b506102d96103b6366004612bba565b610e5b565b3480156103c757600080fd5b5061024a6103d6366004612c3b565b61016260209081526000928352604080842090915290825290205460ff1681565b6102d9610405366004612d0a565b610f94565b34801561041657600080fd5b5061041f611060565b604051908152602001610256565b34801561043957600080fd5b506102d9610448366004612d68565b611113565b34801561045957600080fd5b506102a1610468366004612b85565b611336565b34801561047957600080fd5b5061024a610488366004612b85565b6101616020526000908152604090205460ff1681565b3480156104aa57600080fd5b5061041f6104b9366004612c20565b611396565b3480156104ca57600080fd5b506102d961141c565b3480156104df57600080fd5b506104f36104ee366004612b85565b611430565b604051610256959493929190612e0e565b34801561051057600080fd5b506102d961051f366004612c3b565b6114ee565b34801561053057600080fd5b5061054461053f366004612c20565b6115e6565b6040516102569190612e45565b34801561055d57600080fd5b5061024a61056c366004612c3b565b61016360209081526000928352604080842090915290825290205460ff1681565b34801561059957600080fd5b50610167546102a1906001600160a01b031681565b3480156105ba57600080fd5b506097546001600160a01b03166102a1565b3480156105d857600080fd5b50610274611653565b3480156105ed57600080fd5b506102d96105fc366004612e89565b611662565b34801561060d57600080fd5b506102d961061c366004612f08565b611788565b34801561062d57600080fd5b506102a161063c366004612b85565b610165602052600090815260409020546001600160a01b031681565b34801561066457600080fd5b506102d9610673366004612f32565b611793565b34801561068457600080fd5b506102d9610693366004612c20565b6117cb565b3480156106a457600080fd5b5061041f6106b3366004612b85565b6101646020526000908152604090205481565b3480156106d257600080fd5b506102746106e1366004612b85565b61193b565b3480156106f257600080fd5b5061041f6101685481565b34801561070957600080fd5b506102d9610718366004612f9a565b611a35565b34801561072957600080fd5b5061024a610738366004612fbd565b611af2565b34801561074957600080fd5b506102d9610758366004612e89565b611b20565b34801561076957600080fd5b506102d9610778366004612c20565b611bf3565b600061078882611c69565b92915050565b60606065805461079d90612fe7565b80601f01602080910402602001604051908101604052809291908181526020018280546107c990612fe7565b80156108165780601f106107eb57610100808354040283529160200191610816565b820191906000526020600020905b8154815290600101906020018083116107f957829003601f168201915b5050505050905090565b600061082b82611cb9565b506000908152606960205260409020546001600160a01b031690565b600061085282611336565b9050806001600160a01b0316836001600160a01b0316036108c45760405162461bcd60e51b815260206004820152602160248201527f4552433732313a20617070726f76616c20746f2063757272656e74206f776e656044820152603960f91b60648201526084015b60405180910390fd5b336001600160a01b03821614806108e057506108e08133611af2565b6109525760405162461bcd60e51b815260206004820152603d60248201527f4552433732313a20617070726f76652063616c6c6572206973206e6f7420746f60448201527f6b656e206f776e6572206f7220617070726f76656420666f7220616c6c00000060648201526084016108bb565b61095c8383611d18565b505050565b610969611d86565b6001600160a01b0382166109b35760405162461bcd60e51b815260206004820152601160248201527024b73b30b634b2102a22a0903a37b5b2b760791b60448201526064016108bb565b61016780546001600160a01b0319166001600160a01b03841690811790915561016882905560408051918252602082018390527f618616883da0ea847c64362b55abc6d9c420e374e400bc829b91ea29c083f74b91015b60405180910390a15050565b610a203382611de0565b610a3c5760405162461bcd60e51b81526004016108bb90613021565b61095c838383611e3f565b6001600160a01b037f0000000000000000000000000000000000000000000000000000000000000000163003610a8f5760405162461bcd60e51b81526004016108bb9061306e565b7f00000000000000000000000000000000000000000000000000000000000000006001600160a01b0316610ad860008051602061342f833981519152546001600160a01b031690565b6001600160a01b031614610afe5760405162461bcd60e51b81526004016108bb906130ba565b610b0781611fb0565b60408051600080825260208201909252610b2391839190611fb8565b50565b610b2e612123565b6000818152610160602052604090206001810154610100900460ff16610b665760405162461bcd60e51b81526004016108bb90613106565b60008281526101636020908152604080832033845290915290205460ff1615610bbb5760405162461bcd60e51b815260206004820152600760248201526610db185a5b595960ca1b60448201526064016108bb565b8060020154816003015410610bfd5760405162461bcd60e51b815260206004820152600860248201526714dbdb19081bdd5d60c21b60448201526064016108bb565b6000828152610161602052604090205460ff1615610c715760008281526101626020908152604080832033845290915290205460ff16610c715760405162461bcd60e51b815260206004820152600f60248201526e139bdd081dda1a5d195b1a5cdd1959608a1b60448201526064016108bb565b610167546001600160a01b031615610d335761016854610167546040516370a0823160e01b81523360048201526001600160a01b03909116906370a0823190602401602060405180830381865afa158015610cd0573d6000803e3d6000fd5b505050506040513d601f19601f82011682018060405250810190610cf49190613128565b1015610d335760405162461bcd60e51b815260206004820152600e60248201526d4e6f7420656e6f7567682054454160901b60448201526064016108bb565b610d3d338361217c565b81337f987d620f307ff6b94d58743cb7a7509f24071586a77759b77c2d4e29f75a2f9a610d6a61015f5490565b60405190815260200160405180910390a350610b23600160c955565b61095c83838360405180602001604052806000815250611793565b33610dab82611336565b6001600160a01b031614610ded5760405162461bcd60e51b81526020600482015260096024820152682737ba1037bbb732b960b91b60448201526064016108bb565b600081815261016460209081526040808320548084526101609092529091206001015460ff16610e4e5760405162461bcd60e51b815260206004820152600c60248201526b4e6f74206275726e61626c6560a01b60448201526064016108bb565b610e5782612228565b5050565b600081815261016560205260409020546001600160a01b03163314610eb25760405162461bcd60e51b815260206004820152600d60248201526c2737ba1037b933b0b734bd32b960991b60448201526064016108bb565b6000818152610160602052604090206001810154610100900460ff16610eea5760405162461bcd60e51b81526004016108bb90613106565b8060020154816003015410610f2c5760405162461bcd60e51b815260206004820152600860248201526714dbdb19081bdd5d60c21b60448201526064016108bb565b6000828152610163602090815260408083206001600160a01b038716845290915290205460ff1615610f8a5760405162461bcd60e51b815260206004820152600760248201526610db185a5b595960ca1b60448201526064016108bb565b61095c838361217c565b6001600160a01b037f0000000000000000000000000000000000000000000000000000000000000000163003610fdc5760405162461bcd60e51b81526004016108bb9061306e565b7f00000000000000000000000000000000000000000000000000000000000000006001600160a01b031661102560008051602061342f833981519152546001600160a01b031690565b6001600160a01b03161461104b5760405162461bcd60e51b81526004016108bb906130ba565b61105482611fb0565b610e5782826001611fb8565b6000306001600160a01b037f000000000000000000000000000000000000000000000000000000000000000016146111005760405162461bcd60e51b815260206004820152603860248201527f555550535570677261646561626c653a206d757374206e6f742062652063616c60448201527f6c6564207468726f7567682064656c656761746563616c6c000000000000000060648201526084016108bb565b5060008051602061342f83398151915290565b61111b611d86565b856000036111565760405162461bcd60e51b8152602060048201526008602482015267074797065496420360c41b60448201526064016108bb565b836111895760405162461bcd60e51b815260206004820152600360248201526255524960e81b60448201526064016108bb565b600082116111c55760405162461bcd60e51b81526020600482015260096024820152684e6f20737570706c7960b81b60448201526064016108bb565b600086815261016060205260409020600201541561120e5760405162461bcd60e51b815260206004820152600660248201526545786973747360d01b60448201526064016108bb565b6040518060a0016040528086868080601f016020809104026020016040519081016040528093929190818152602001838380828437600092018290525093855250505085151560208084019190915260408084018390526060840187905260809093018290528982526101609052208151819061128b908261318f565b506020820151600182018054604085015115156101000261ff00199315159390931661ffff19909116179190911790556060820151600282015560809091015160039091015580156112f257600086815261016160205260409020805460ff191660011790555b857f331fdfebfdf6bf38fed1b86a4acac0240843ece42a4cbfe6f311913c6c969d898686856040516113269392919061324f565b60405180910390a2505050505050565b6000818152606760205260408120546001600160a01b0316806107885760405162461bcd60e51b8152602060048201526018602482015277115490cdcc8c4e881a5b9d985b1a59081d1bdad95b88125160421b60448201526064016108bb565b60006001600160a01b0382166114005760405162461bcd60e51b815260206004820152602960248201527f4552433732313a2061646472657373207a65726f206973206e6f7420612076616044820152683634b21037bbb732b960b91b60648201526084016108bb565b506001600160a01b031660009081526068602052604090205490565b611424611d86565b61142e60006122cb565b565b6101606020526000908152604090208054819061144c90612fe7565b80601f016020809104026020016040519081016040528092919081815260200182805461147890612fe7565b80156114c55780601f1061149a576101008083540402835291602001916114c5565b820191906000526020600020905b8154815290600101906020018083116114a857829003601f168201915b50505060018401546002850154600390950154939460ff80831695610100909304169350915085565b6114f6611d86565b600082815261016060205260409020600201546115445760405162461bcd60e51b815260206004820152600c60248201526b496e76616c6964207479706560a01b60448201526064016108bb565b6001600160a01b03811661158c5760405162461bcd60e51b815260206004820152600f60248201526e496e76616c6964206164647265737360881b60448201526064016108bb565b6000828152610165602052604080822080546001600160a01b0319166001600160a01b0385169081179091559051909184917f4f28076991f661a5e89ec194cb4e8ad17ac501607aaa0a407c9d9bcd3eb1f41b9190a35050565b6001600160a01b0381166000908152610166602090815260409182902080548351818402810184019094528084526060939283018282801561164757602002820191906000526020600020905b815481526020019060010190808311611633575b50505050509050919050565b60606066805461079d90612fe7565b61166a611d86565b6000838152610160602052604090206001810154610100900460ff166116a25760405162461bcd60e51b81526004016108bb90613106565b60005b82811080156116bb575081600201548260030154105b156117815760008484838181106116d4576116d4613288565b90506020020160208101906116e99190612c20565b6000878152610163602090815260408083206001600160a01b038516845290915290205490915060ff161561171e5750611771565b611728818761217c565b85816001600160a01b03167f7a688d4878cbd39da9b81cf43a08dadd22473d543d60975431287ab6d22e220c61175e61015f5490565b60405190815260200160405180910390a3505b61177a816132b4565b90506116a5565b5050505050565b610e5733838361231d565b61179d3383611de0565b6117b95760405162461bcd60e51b81526004016108bb90613021565b6117c5848484846123eb565b50505050565b600054610100900460ff16158080156117eb5750600054600160ff909116105b806118055750303b158015611805575060005460ff166001145b6118685760405162461bcd60e51b815260206004820152602e60248201527f496e697469616c697a61626c653a20636f6e747261637420697320616c72656160448201526d191e481a5b9a5d1a585b1a5e995960921b60648201526084016108bb565b6000805460ff19166001179055801561188b576000805461ff0019166101001790555b6118d86040518060400160405280600e81526020016d15d958881058d8d95cdcc814d09560921b8152506040518060400160405280600581526020016415ccd4d09560da1b81525061241e565b6118e061244f565b6118e861247e565b6118f06124ad565b6118f982611bf3565b8015610e57576000805461ff0019169055604051600181527f7f26b83ff96e1f2b6a682f133852f6798a09c465da95921460cefb384740249890602001610a0a565b6000818152606760205260409020546060906001600160a01b03166119925760405162461bcd60e51b815260206004820152600d60248201526c26b4b9b9b4b733903a37b5b2b760991b60448201526064016108bb565b600082815261016460209081526040808320548352610160909152902080546119ba90612fe7565b80601f01602080910402602001604051908101604052809291908181526020018280546119e690612fe7565b80156116475780601f10611a0857610100808354040283529160200191611647565b820191906000526020600020905b815481529060010190602001808311611a165750939695505050505050565b611a3d611d86565b60008281526101606020526040902060020154611a8b5760405162461bcd60e51b815260206004820152600c60248201526b496e76616c6964207479706560a01b60448201526064016108bb565b600082815261016060205260409081902060010180548315156101000261ff00199091161790555182907f7d523d209be68d468b050a5f321bb1d6f8a46248910fa6e6e50a880b0e4d225690611ae690841515815260200190565b60405180910390a25050565b6001600160a01b039182166000908152606a6020908152604080832093909416825291909152205460ff1690565b611b28611d86565b6000838152610161602052604090205460ff16611b775760405162461bcd60e51b815260206004820152600d60248201526c2bb434ba32b634b9ba1037b33360991b60448201526064016108bb565b60005b818110156117c557600084815261016260205260408120600191858585818110611ba657611ba6613288565b9050602002016020810190611bbb9190612c20565b6001600160a01b031681526020810191909152604001600020805460ff1916911515919091179055611bec816132b4565b9050611b7a565b611bfb611d86565b6001600160a01b038116611c605760405162461bcd60e51b815260206004820152602660248201527f4f776e61626c653a206e6577206f776e657220697320746865207a65726f206160448201526564647265737360d01b60648201526084016108bb565b610b23816122cb565b60006001600160e01b031982166380ac58cd60e01b1480611c9a57506001600160e01b03198216635b5e139f60e01b145b8061078857506301ffc9a760e01b6001600160e01b0319831614610788565b6000818152606760205260409020546001600160a01b0316610b235760405162461bcd60e51b8152602060048201526018602482015277115490cdcc8c4e881a5b9d985b1a59081d1bdad95b88125160421b60448201526064016108bb565b600081815260696020526040902080546001600160a01b0319166001600160a01b0384169081179091558190611d4d82611336565b6001600160a01b03167f8c5be1e5ebec7d5bd14f71427d1e84f3dd0314c0f7b2291e5b200ac8c7c3b92560405160405180910390a45050565b6097546001600160a01b0316331461142e5760405162461bcd60e51b815260206004820181905260248201527f4f776e61626c653a2063616c6c6572206973206e6f7420746865206f776e657260448201526064016108bb565b600080611dec83611336565b9050806001600160a01b0316846001600160a01b03161480611e135750611e138185611af2565b80611e375750836001600160a01b0316611e2c84610820565b6001600160a01b0316145b949350505050565b826001600160a01b0316611e5282611336565b6001600160a01b031614611e785760405162461bcd60e51b81526004016108bb906132cd565b6001600160a01b038216611eda5760405162461bcd60e51b8152602060048201526024808201527f4552433732313a207472616e7366657220746f20746865207a65726f206164646044820152637265737360e01b60648201526084016108bb565b611ee783838360016124d4565b826001600160a01b0316611efa82611336565b6001600160a01b031614611f205760405162461bcd60e51b81526004016108bb906132cd565b600081815260696020908152604080832080546001600160a01b03199081169091556001600160a01b0387811680865260688552838620805460001901905590871680865283862080546001019055868652606790945282852080549092168417909155905184937fddf252ad1be2c89b69c2b068fc378daa952ba7f163c4a11628f55a4df523b3ef91a4505050565b610b23611d86565b7f4910fdfa16fed3260ed0e7147f7cc6da11a60208b5b9406d12a635614ffd91435460ff1615611feb5761095c8361252e565b826001600160a01b03166352d1902d6040518163ffffffff1660e01b8152600401602060405180830381865afa925050508015612045575060408051601f3d908101601f1916820190925261204291810190613128565b60015b6120a85760405162461bcd60e51b815260206004820152602e60248201527f45524331393637557067726164653a206e657720696d706c656d656e7461746960448201526d6f6e206973206e6f74205555505360901b60648201526084016108bb565b60008051602061342f83398151915281146121175760405162461bcd60e51b815260206004820152602960248201527f45524331393637557067726164653a20756e737570706f727465642070726f786044820152681a58589b195555525160ba1b60648201526084016108bb565b5061095c8383836125ca565b600260c954036121755760405162461bcd60e51b815260206004820152601f60248201527f5265656e7472616e637947756172643a207265656e7472616e742063616c6c0060448201526064016108bb565b600260c955565b60008181526101606020526040812060030180546001929061219f908490613312565b909155505061015f8054600101905560006121ba61015f5490565b6000838152610163602090815260408083206001600160a01b038816808552908352818420805460ff1916600190811790915585855261016484528285208890559084526101668352908320805491820181558352912001819055905061095c83826125ef565b600160c955565b600061223382611336565b90506122438160008460016124d4565b61224c82611336565b600083815260696020908152604080832080546001600160a01b03199081169091556001600160a01b0385168085526068845282852080546000190190558785526067909352818420805490911690555192935084927fddf252ad1be2c89b69c2b068fc378daa952ba7f163c4a11628f55a4df523b3ef908390a45050565b609780546001600160a01b038381166001600160a01b0319831681179093556040519116919082907f8be0079c531659141344cd1fd0a4f28419497f9722a3daafe3b4186f6b6457e090600090a35050565b816001600160a01b0316836001600160a01b03160361237e5760405162461bcd60e51b815260206004820152601960248201527f4552433732313a20617070726f766520746f2063616c6c65720000000000000060448201526064016108bb565b6001600160a01b038381166000818152606a6020908152604080832094871680845294825291829020805460ff191686151590811790915591519182527f17307eab39ab6107e8899845ad3d59bd9653f200f220920489ca2b5937696c31910160405180910390a3505050565b6123f6848484611e3f565b61240284848484612609565b6117c55760405162461bcd60e51b81526004016108bb90613325565b600054610100900460ff166124455760405162461bcd60e51b81526004016108bb90613377565b610e57828261270a565b600054610100900460ff166124765760405162461bcd60e51b81526004016108bb90613377565b61142e61274a565b600054610100900460ff166124a55760405162461bcd60e51b81526004016108bb90613377565b61142e61277a565b600054610100900460ff1661142e5760405162461bcd60e51b81526004016108bb90613377565b6001600160a01b03841615806124f157506001600160a01b038316155b6125295760405162461bcd60e51b815260206004820152600960248201526814dbdd5b189bdd5b9960ba1b60448201526064016108bb565b6117c5565b6001600160a01b0381163b61259b5760405162461bcd60e51b815260206004820152602d60248201527f455243313936373a206e657720696d706c656d656e746174696f6e206973206e60448201526c1bdd08184818dbdb9d1c9858dd609a1b60648201526084016108bb565b60008051602061342f83398151915280546001600160a01b0319166001600160a01b0392909216919091179055565b6125d3836127a1565b6000825111806125e05750805b1561095c576117c583836127e1565b610e5782826040518060200160405280600081525061280d565b60006001600160a01b0384163b156126ff57604051630a85bd0160e11b81526001600160a01b0385169063150b7a029061264d9033908990889088906004016133c2565b6020604051808303816000875af1925050508015612688575060408051601f3d908101601f19168201909252612685918101906133f5565b60015b6126e5573d8080156126b6576040519150601f19603f3d011682016040523d82523d6000602084013e6126bb565b606091505b5080516000036126dd5760405162461bcd60e51b81526004016108bb90613325565b805181602001fd5b6001600160e01b031916630a85bd0160e11b149050611e37565b506001949350505050565b600054610100900460ff166127315760405162461bcd60e51b81526004016108bb90613377565b606561273d838261318f565b50606661095c828261318f565b600054610100900460ff166127715760405162461bcd60e51b81526004016108bb90613377565b61142e336122cb565b600054610100900460ff166122215760405162461bcd60e51b81526004016108bb90613377565b6127aa8161252e565b6040516001600160a01b038216907fbc7cd75a20ee27fd9adebab32041f755214dbc6bffa90cc0225b39da2e5c2d3b90600090a250565b6060612806838360405180606001604052806027815260200161344f60279139612840565b9392505050565b61281783836128b8565b6128246000848484612609565b61095c5760405162461bcd60e51b81526004016108bb90613325565b6060600080856001600160a01b03168560405161285d9190613412565b600060405180830381855af49150503d8060008114612898576040519150601f19603f3d011682016040523d82523d6000602084013e61289d565b606091505b50915091506128ae86838387612a51565b9695505050505050565b6001600160a01b03821661290e5760405162461bcd60e51b815260206004820181905260248201527f4552433732313a206d696e7420746f20746865207a65726f206164647265737360448201526064016108bb565b6000818152606760205260409020546001600160a01b0316156129735760405162461bcd60e51b815260206004820152601c60248201527f4552433732313a20746f6b656e20616c7265616479206d696e7465640000000060448201526064016108bb565b6129816000838360016124d4565b6000818152606760205260409020546001600160a01b0316156129e65760405162461bcd60e51b815260206004820152601c60248201527f4552433732313a20746f6b656e20616c7265616479206d696e7465640000000060448201526064016108bb565b6001600160a01b038216600081815260686020908152604080832080546001019055848352606790915280822080546001600160a01b0319168417905551839291907fddf252ad1be2c89b69c2b068fc378daa952ba7f163c4a11628f55a4df523b3ef908290a45050565b60608315612ac0578251600003612ab9576001600160a01b0385163b612ab95760405162461bcd60e51b815260206004820152601d60248201527f416464726573733a2063616c6c20746f206e6f6e2d636f6e747261637400000060448201526064016108bb565b5081611e37565b611e378383815115612ad55781518083602001fd5b8060405162461bcd60e51b81526004016108bb9190612b72565b6001600160e01b031981168114610b2357600080fd5b600060208284031215612b1757600080fd5b813561280681612aef565b60005b83811015612b3d578181015183820152602001612b25565b50506000910152565b60008151808452612b5e816020860160208601612b22565b601f01601f19169290920160200192915050565b6020815260006128066020830184612b46565b600060208284031215612b9757600080fd5b5035919050565b80356001600160a01b0381168114612bb557600080fd5b919050565b60008060408385031215612bcd57600080fd5b612bd683612b9e565b946020939093013593505050565b600080600060608486031215612bf957600080fd5b612c0284612b9e565b9250612c1060208501612b9e565b9150604084013590509250925092565b600060208284031215612c3257600080fd5b61280682612b9e565b60008060408385031215612c4e57600080fd5b82359150612c5e60208401612b9e565b90509250929050565b634e487b7160e01b600052604160045260246000fd5b600082601f830112612c8e57600080fd5b813567ffffffffffffffff80821115612ca957612ca9612c67565b604051601f8301601f19908116603f01168101908282118183101715612cd157612cd1612c67565b81604052838152866020858801011115612cea57600080fd5b836020870160208301376000602085830101528094505050505092915050565b60008060408385031215612d1d57600080fd5b612d2683612b9e565b9150602083013567ffffffffffffffff811115612d4257600080fd5b612d4e85828601612c7d565b9150509250929050565b80358015158114612bb557600080fd5b60008060008060008060a08789031215612d8157600080fd5b86359550602087013567ffffffffffffffff80821115612da057600080fd5b818901915089601f830112612db457600080fd5b813581811115612dc357600080fd5b8a6020828501011115612dd557600080fd5b602083019750809650505050612ded60408801612d58565b925060608701359150612e0260808801612d58565b90509295509295509295565b60a081526000612e2160a0830188612b46565b95151560208301525092151560408401526060830191909152608090910152919050565b6020808252825182820181905260009190848201906040850190845b81811015612e7d57835183529284019291840191600101612e61565b50909695505050505050565b600080600060408486031215612e9e57600080fd5b83359250602084013567ffffffffffffffff80821115612ebd57600080fd5b818601915086601f830112612ed157600080fd5b813581811115612ee057600080fd5b8760208260051b8501011115612ef557600080fd5b6020830194508093505050509250925092565b60008060408385031215612f1b57600080fd5b612f2483612b9e565b9150612c5e60208401612d58565b60008060008060808587031215612f4857600080fd5b612f5185612b9e565b9350612f5f60208601612b9e565b925060408501359150606085013567ffffffffffffffff811115612f8257600080fd5b612f8e87828801612c7d565b91505092959194509250565b60008060408385031215612fad57600080fd5b82359150612c5e60208401612d58565b60008060408385031215612fd057600080fd5b612fd983612b9e565b9150612c5e60208401612b9e565b600181811c90821680612ffb57607f821691505b60208210810361301b57634e487b7160e01b600052602260045260246000fd5b50919050565b6020808252602d908201527f4552433732313a2063616c6c6572206973206e6f7420746f6b656e206f776e6560408201526c1c881bdc88185c1c1c9bdd9959609a1b606082015260800190565b6020808252602c908201527f46756e6374696f6e206d7573742062652063616c6c6564207468726f7567682060408201526b19195b1959d85d1958d85b1b60a21b606082015260800190565b6020808252602c908201527f46756e6374696f6e206d7573742062652063616c6c6564207468726f7567682060408201526b6163746976652070726f787960a01b606082015260800190565b602080825260089082015267496e61637469766560c01b604082015260600190565b60006020828403121561313a57600080fd5b5051919050565b601f82111561095c57600081815260208120601f850160051c810160208610156131685750805b601f850160051c820191505b8181101561318757828155600101613174565b505050505050565b815167ffffffffffffffff8111156131a9576131a9612c67565b6131bd816131b78454612fe7565b84613141565b602080601f8311600181146131f257600084156131da5750858301515b600019600386901b1c1916600185901b178555613187565b600085815260208120601f198616915b8281101561322157888601518255948401946001909101908401613202565b508582101561323f5787850151600019600388901b60f8161c191681555b5050505050600190811b01905550565b604081528260408201528284606083013760006060848301015260006060601f19601f8601168301019050826020830152949350505050565b634e487b7160e01b600052603260045260246000fd5b634e487b7160e01b600052601160045260246000fd5b6000600182016132c6576132c661329e565b5060010190565b60208082526025908201527f4552433732313a207472616e736665722066726f6d20696e636f72726563742060408201526437bbb732b960d91b606082015260800190565b808201808211156107885761078861329e565b60208082526032908201527f4552433732313a207472616e7366657220746f206e6f6e20455243373231526560408201527131b2b4bb32b91034b6b83632b6b2b73a32b960711b606082015260800190565b6020808252602b908201527f496e697469616c697a61626c653a20636f6e7472616374206973206e6f74206960408201526a6e697469616c697a696e6760a81b606082015260800190565b6001600160a01b03858116825284166020820152604081018390526080606082018190526000906128ae90830184612b46565b60006020828403121561340757600080fd5b815161280681612aef565b60008251613424818460208701612b22565b919091019291505056fe360894a13ba1a3210667c828492db98dca3e2076cc3735a920a3ca505d382bbc416464726573733a206c6f772d6c6576656c2064656c65676174652063616c6c206661696c6564a26469706673582212207a0cb9b7af4926a3af25d8ac48772ae756817e01d8fd41b7b08d741aeeb4298d64736f6c63430008140033",
  "linkReferences": {},
  "deployedLinkReferences": {}
}