{
  "_format": "hh-sol-artifact-1",
  "contractName": "WebAccessSBTV4",
  "sourceName": "contracts/WebAccessSBTV4.sol",
  "abi": [
    {
      "anonymous": false,
      "inputs": [
        {
          "indexed": false,
          "internalType": "address",
          "name": "previousAdmin",
          "type": "address"
        },
        {
          "indexed": false,
          "internalType": "address",
          "name": "newAdmin",
          "type": "address"
        }
      ],
      "name": "AdminChanged",
      "type": "event"
    },
    {
      "anonymous": false,
      "inputs": [
        {
          "indexed": true,
          "internalType": "address",
          "name": "user",
          "type": "address"
        },
        {
          "indexed": true,
          "internalType": "uint256",
          "name": "typeId",
          "type": "uint256"
        },
        {
          "indexed": false,
          "internalType": "uint256",
          "name": "tokenId",
          "type": "uint256"
        }
      ],
      "name": "Airdropped",
      "type": "event"
    },
    {
      "anonymous": false,
      "inputs": [
        {
          "indexed": true,
          "internalType": "address",
          "name": "owner",
          "type": "address"
        },
        {
          "indexed": true,
          "internalType": "address",
          "name": "approved",
          "type": "address"
        },
        {
          "indexed": true,
          "internalType": "uint256",
          "name": "tokenId",
          "type": "uint256"
        }
      ],
      "name": "Approval",
      "type": "event"
    },
    {
      "anonymous": false,
      "inputs": [
        {
          "indexed": true,
          "internalType": "address",
          "name": "owner",
          "type": "address"
        },
        {
          "indexed": true,
          "internalType": "address",
          "name": "operator",
          "type": "address"
        },
        {
          "indexed": false,
          "internalType": "bool",
          "name": "approved",
          "type": "bool"
        }
      ],
      "name": "ApprovalForAll",
      "type": "event"
    },
    {
      "anonymous": false,
      "inputs": [
        {
          "indexed": true,
          "internalType": "address",
          "name": "beacon",
          "type": "address"
        }
      ],
      "name": "BeaconUpgraded",
      "type": "event"
    },
    {
      "anonymous": false,
      "inputs": [
        {
          "indexed": true,
          "internalType": "address",
          "name": "user",
          "type": "address"
        },
        {
          "indexed": true,
          "internalType": "uint256",
          "name": "typeId",
          "type": "uint256"
        },
        {
          "indexed": false,
          "internalType": "uint256",
          "name": "tokenId",
          "type": "uint256"
        }
      ],
      "name": "Claimed",
      "type": "event"
    },
    {
      "anonymous": false,
      "inputs": [
        {
          "indexed": false,
          "internalType": "uint8",
          "name": "version",
          "type": "uint8"
        }
      ],
      "name": "Initialized",
      "type": "event"
    },
    {
      "anonymous": false,
      "inputs": [
        {
          "indexed": true,
          "internalType": "address",
          "name": "previousOwner",
          "type": "address"
        },
        {
          "indexed": true,
          "internalType": "address",
          "name": "newOwner",
          "type": "address"
        }
      ],
      "name": "OwnershipTransferred",
      "type": "event"
    },
    {
      "anonymous": false,
      "inputs": [
        {
          "indexed": true,
          "internalType": "uint256",
          "name": "typeId",
          "type": "uint256"
        },
        {
          "indexed": false,
          "internalType": "bool",
          "name": "status",
          "type": "bool"
        }
      ],
      "name": "SBTTypeActivated",
      "type": "event"
    },
    {
      "anonymous": false,
      "inputs": [
        {
          "indexed": true,
          "internalType": "uint256",
          "name": "typeId",
          "type": "uint256"
        },
        {
          "indexed": false,
          "internalType": "string",
          "name": "uri",
          "type": "string"
        },
        {
          "indexed": false,
          "internalType": "uint256",
          "name": "maxSupply",
          "type": "uint256"
        }
      ],
      "name": "SBTTypeCreated",
      "type": "event"
    },
    {
      "anonymous": false,
      "inputs": [
        {
          "indexed": true,
          "internalType": "address",
          "name": "from",
          "type": "address"
        },
        {
          "indexed": true,
          "internalType": "address",
          "name": "to",
          "type": "address"
        },
        {
          "indexed": true,
          "internalType": "uint256",
          "name": "tokenId",
          "type": "uint256"
        }
      ],
      "name": "Transfer",
      "type": "event"
    },
    {
      "anonymous": false,
      "inputs": [
        {
          "indexed": true,
          "internalType": "address",
          "name": "implementation",
          "type": "address"
        }
      ],
      "name": "Upgraded",
      "type": "event"
    },
    {
      "inputs": [
        {
          "internalType": "uint256",
          "name": "typeId",
          "type": "uint256"
        },
        {
          "internalType": "address[]",
          "name": "users",
          "type": "address[]"
        }
      ],
      "name": "addToWhitelist",
      "outputs": [],
      "stateMutability": "nonpayable",
      "type": "function"
    },
    {
      "inputs": [
        {
          "internalType": "uint256",
          "name": "typeId",
          "type": "uint256"
        },
        {
          "internalType": "address[]",
          "name": "users",
          "type": "address[]"
        }
      ],
      "name": "airdropTo",
      "outputs": [],
      "stateMutability": "nonpayable",
      "type": "function"
    },
    {
      "inputs": [
        {
          "internalType": "address",
          "name": "to",
          "type": "address"
        },
        {
          "internalType": "uint256",
          "name": "tokenId",
          "type": "uint256"
        }
      ],
      "name": "approve",
      "outputs": [],
      "stateMutability": "nonpayable",
      "type": "function"
    },
    {
      "inputs": [
        {
          "internalType": "address",
          "name": "owner",
          "type": "address"
        }
      ],
      "name": "balanceOf",
      "outputs": [
        {
          "internalType": "uint256",
          "name": "",
          "type": "uint256"
        }
      ],
      "stateMutability": "view",
      "type": "function"
    },
    {
      "inputs": [
        {
          "internalType": "uint256",
          "name": "tokenId",
          "type": "uint256"
        }
      ],
      "name": "burn",
      "outputs": [],
      "stateMutability": "nonpayable",
      "type": "function"
    },
    {
      "inputs": [
        {
          "internalType": "uint256",
          "name": "typeId",
          "type": "uint256"
        }
      ],
      "name": "claim",
      "outputs": [],
      "stateMutability": "nonpayable",
      "type": "function"
    },
    {
      "inputs": [
        {
          "internalType": "uint256",
          "name": "typeId",
          "type": "uint256"
        },
        {
          "internalType": "string",
          "name": "uri",
          "type": "string"
        },
        {
          "internalType": "bool",
          "name": "burnable_",
          "type": "bool"
        },
        {
          "internalType": "uint256",
          "name": "maxSupply_",
          "type": "uint256"
        },
        {
          "internalType": "bool",
          "name": "useWhitelist",
          "type": "bool"
        }
      ],
      "name": "createSBTType",
      "outputs": [],
      "stateMutability": "nonpayable",
      "type": "function"
    },
    {
      "inputs": [
        {
          "internalType": "uint256",
          "name": "tokenId",
          "type": "uint256"
        }
      ],
      "name": "getApproved",
      "outputs": [
        {
          "internalType": "address",
          "name": "",
          "type": "address"
        }
      ],
      "stateMutability": "view",
      "type": "function"
    },
    {
      "inputs": [
        {
          "internalType": "uint256",
          "name": "",
          "type": "uint256"
        },
        {
          "internalType": "address",
          "name": "",
          "type": "address"
        }
      ],
      "name": "hasClaimed",
      "outputs": [
        {
          "internalType": "bool",
          "name": "",
          "type": "bool"
        }
      ],
      "stateMutability": "view",
      "type": "function"
    },
    {
      "inputs": [
        {
          "internalType": "address",
          "name": "initialOwner",
          "type": "address"
        }
      ],
      "name": "initialize",
      "outputs": [],
      "stateMutability": "nonpayable",
      "type": "function"
    },
    {
      "inputs": [
        {
          "internalType": "address",
          "name": "owner",
          "type": "address"
        },
        {
          "internalType": "address",
          "name": "operator",
          "type": "address"
        }
      ],
      "name": "isApprovedForAll",
      "outputs": [
        {
          "internalType": "bool",
          "name": "",
          "type": "bool"
        }
      ],
      "stateMutability": "view",
      "type": "function"
    },
    {
      "inputs": [
        {
          "internalType": "address",
          "name": "user",
          "type": "address"
        },
        {
          "internalType": "uint256",
          "name": "typeId",
          "type": "uint256"
        }
      ],
      "name": "mintTo",
      "outputs": [],
      "stateMutability": "nonpayable",
      "type": "function"
    },
    {
      "inputs": [],
      "name": "name",
      "outputs": [
        {
          "internalType": "string",
          "name": "",
          "type": "string"
        }
      ],
      "stateMutability": "view",
      "type": "function"
    },
    {
      "inputs": [
        {
          "internalType": "uint256",
          "name": "",
          "type": "uint256"
        }
      ],
      "name": "organizers",
      "outputs": [
        {
          "internalType": "address",
          "name": "",
          "type": "address"
        }
      ],
      "stateMutability": "view",
      "type": "function"
    },
    {
      "inputs": [],
      "name": "owner",
      "outputs": [
        {
          "internalType": "address",
          "name": "",
          "type": "address"
        }
      ],
      "stateMutability": "view",
      "type": "function"
    },
    {
      "inputs": [
        {
          "internalType": "uint256",
          "name": "tokenId",
          "type": "uint256"
        }
      ],
      "name": "ownerOf",
      "outputs": [
        {
          "internalType": "address",
          "name": "",
          "type": "address"
        }
      ],
      "stateMutability": "view",
      "type": "function"
    },
    {
      "inputs": [],
      "name": "proxiableUUID",
      "outputs": [
        {
          "internalType": "bytes32",
          "name": "",
          "type": "bytes32"
        }
      ],
      "stateMutability": "view",
      "type": "function"
    },
    {
      "inputs": [],
      "name": "renounceOwnership",
      "outputs": [],
      "stateMutability": "nonpayable",
      "type": "function"
    },
    {
      "inputs": [
        {
          "internalType": "address",
          "name": "from",
          "type": "address"
        },
        {
          "internalType": "address",
          "name": "to",
          "type": "address"
        },
        {
          "internalType": "uint256",
          "name": "tokenId",
          "type": "uint256"
        }
      ],
      "name": "safeTransferFrom",
      "outputs": [],
      "stateMutability": "nonpayable",
      "type": "function"
    },
    {
      "inputs": [
        {
          "internalType": "address",
          "name": "from",
          "type": "address"
        },
        {
          "internalType": "address",
          "name": "to",
          "type": "address"
        },
        {
          "internalType": "uint256",
          "name": "tokenId",
          "type": "uint256"
        },
        {
          "internalType": "bytes",
          "name": "data",
          "type": "bytes"
        }
      ],
      "name": "safeTransferFrom",
      "outputs": [],
      "stateMutability": "nonpayable",
      "type": "function"
    },
    {
      "inputs": [
        {
          "internalType": "uint256",
          "name": "",
          "type": "uint256"
        }
      ],
      "name": "sbtTypes",
      "outputs": [
        {
          "internalType": "string",
          "name": "uri",
          "type": "string"
        },
        {
          "internalType": "bool",
          "name": "burnable",
          "type": "bool"
        },
        {
          "internalType": "bool",
          "name": "active",
          "type": "bool"
        },
        {
          "internalType": "uint256",
          "name": "maxSupply",
          "type": "uint256"
        },
        {
          "internalType": "uint256",
          "name": "minted",
          "type": "uint256"
        }
      ],
      "stateMutability": "view",
      "type": "function"
    },
    {
      "inputs": [
        {
          "internalType": "uint256",
          "name": "typeId",
          "type": "uint256"
        },
        {
          "internalType": "bool",
          "name": "status",
          "type": "bool"
        }
      ],
      "name": "setActive",
      "outputs": [],
      "stateMutability": "nonpayable",
      "type": "function"
    },
    {
      "inputs": [
        {
          "internalType": "address",
          "name": "operator",
          "type": "address"
        },
        {
          "internalType": "bool",
          "name": "approved",
          "type": "bool"
        }
      ],
      "name": "setApprovalForAll",
      "outputs": [],
      "stateMutability": "nonpayable",
      "type": "function"
    },
    {
      "inputs": [
        {
          "internalType": "uint256",
          "name": "typeId",
          "type": "uint256"
        },
        {
          "internalType": "address",
          "name": "org",
          "type": "address"
        }
      ],
      "name": "setOrganizer",
      "outputs": [],
      "stateMutability": "nonpayable",
      "type": "function"
    },
    {
      "inputs": [
        {
          "internalType": "bytes4",
          "name": "interfaceId",
          "type": "bytes4"
        }
      ],
      "name": "supportsInterface",
      "outputs": [
        {
          "internalType": "bool",
          "name": "",
          "type": "bool"
        }
      ],
      "stateMutability": "view",
      "type": "function"
    },
    {
      "inputs": [],
      "name": "symbol",
      "outputs": [
        {
          "internalType": "string",
          "name": "",
          "type": "string"
        }
      ],
      "stateMutability": "view",
      "type": "function"
    },
    {
      "inputs": [
        {
          "internalType": "uint256",
          "name": "tokenId",
          "type": "uint256"
        }
      ],
      "name": "tokenURI",
      "outputs": [
        {
          "internalType": "string",
          "name": "",
          "type": "string"
        }
      ],
      "stateMutability": "view",
      "type": "function"
    },
    {
      "inputs": [
        {
          "internalType": "address",
          "name": "user",
          "type": "address"
        }
      ],
      "name": "tokensOfOwner",
      "outputs": [
        {
          "internalType": "uint256[]",
          "name": "",
          "type": "uint256[]"
        }
      ],
      "stateMutability": "view",
      "type": "function"
    },
    {
      "inputs": [
        {
          "internalType": "address",
          "name": "from",
          "type": "address"
        },
        {
          "internalType": "address",
          "name": "to",
          "type": "address"
        },
        {
          "internalType": "uint256",
          "name": "tokenId",
          "type": "uint256"
        }
      ],
      "name": "transferFrom",
      "outputs": [],
      "stateMutability": "nonpayable",
      "type": "function"
    },
    {
      "inputs": [
        {
          "internalType": "address",
          "name": "newOwner",
          "type": "address"
        }
      ],
      "name": "transferOwnership",
      "outputs": [],
      "stateMutability": "nonpayable",
      "type": "function"
    },
    {
      "inputs": [
        {
          "internalType": "uint256",
          "name": "",
          "type": "uint256"
        }
      ],
      "name": "typeOf",
      "outputs": [
        {
          "internalType": "uint256",
          "name": "",
          "type": "uint256"
        }
      ],
      "stateMutability": "view",
      "type": "function"
    },
    {
      "inputs": [
        {
          "internalType": "address",
          "name": "newImplementation",
          "type": "address"
        }
      ],
      "name": "upgradeTo",
      "outputs": [],
      "stateMutability": "nonpayable",
      "type": "function"
    },
    {
      "inputs": [
        {
          "internalType": "address",
          "name": "newImplementation",
          "type": "address"
        },
        {
          "internalType": "bytes",
          "name": "data",
          "type": "bytes"
        }
      ],
      "name": "upgradeToAndCall",
      "outputs": [],
      "stateMutability": "payable",
      "type": "function"
    },
    {
      "inputs": [
        {
          "internalType": "uint256",
          "name": "",
          "type": "uint256"
        },
        {
          "internalType": "address",
          "name": "",
          "type": "address"
        }
      ],
      "name": "whitelist",
      "outputs": [
        {
          "internalType": "bool",
          "name": "",
          "type": "bool"
        }
      ],
      "stateMutability": "view",
      "type": "function"
    },
    {
      "inputs": [
        {
          "internalType": "uint256",
          "name": "",
          "type": "uint256"
        }
      ],
      "name": "whitelistEnabled",
      "outputs": [
        {
          "internalType": "bool",
          "name": "",
          "type": "bool"
        }
      ],
      "stateMutability": "view",
      "type": "function"
    }
  ],
  "bytecode": "0x60a06040523073ffffffffffffffffffffffffffffffffffffffff1660809073ffffffffffffffffffffffffffffffffffffffff1681525034801561004357600080fd5b50608051615ed46200007c60003960008181610af801528181610b8601528181611262015281816112f001526113a00152615ed46000f3fe6080604052600436106102045760003560e01c8063715018a611610118578063a4c8be1e116100a0578063c87b56dd1161006f578063c87b56dd146107a0578063e60a955d146107dd578063e985e9c514610806578063f2295b1d14610843578063f2fde38b1461086c57610204565b8063a4c8be1e146106d4578063b88d4fde14610711578063c4d66de81461073a578063c588ff8b1461076357610204565b8063873f6f9e116100e7578063873f6f9e146105ef5780638da5cb5b1461062c57806395d89b4114610657578063a128c6fb14610682578063a22cb465146106ab57610204565b8063715018a6146105315780637576f7921461054857806383719ae1146105895780638462151c146105b257610204565b806342966c681161019b57806352d1902d1161016a57806352d1902d14610426578063613a23d6146104515780636352211e1461047a5780636d6ae129146104b757806370a08231146104f457610204565b806342966c681461037b578063449a52f8146103a45780634b25bfce146103cd5780634f1ef2861461040a57610204565b806323b872dd116101d757806323b872dd146102d75780633659cfe614610300578063379607f51461032957806342842e0e1461035257610204565b806301ffc9a71461020957806306fdde0314610246578063081812fc14610271578063095ea7b3146102ae575b600080fd5b34801561021557600080fd5b50610230600480360381019061022b9190613cbe565b610895565b60405161023d9190613d06565b60405180910390f35b34801561025257600080fd5b5061025b6108a7565b6040516102689190613db1565b60405180910390f35b34801561027d57600080fd5b5061029860048036038101906102939190613e09565b610939565b6040516102a59190613e77565b60405180910390f35b3480156102ba57600080fd5b506102d560048036038101906102d09190613ebe565b61097f565b005b3480156102e357600080fd5b506102fe60048036038101906102f99190613efe565b610a96565b005b34801561030c57600080fd5b5061032760048036038101906103229190613f51565b610af6565b005b34801561033557600080fd5b50610350600480360381019061034b9190613e09565b610c7e565b005b34801561035e57600080fd5b5061037960048036038101906103749190613efe565b610f0d565b005b34801561038757600080fd5b506103a2600480360381019061039d9190613e09565b610f2d565b005b3480156103b057600080fd5b506103cb60048036038101906103c69190613ebe565b61102d565b005b3480156103d957600080fd5b506103f460048036038101906103ef9190613f7e565b611230565b6040516104019190613d06565b60405180910390f35b610424600480360381019061041f91906140f3565b611260565b005b34801561043257600080fd5b5061043b61139c565b6040516104489190614168565b60405180910390f35b34801561045d57600080fd5b506104786004803603810190610473919061420f565b611455565b005b34801561048657600080fd5b506104a1600480360381019061049c9190613e09565b6116ed565b6040516104ae9190613e77565b60405180910390f35b3480156104c357600080fd5b506104de60048036038101906104d99190613e09565b611773565b6040516104eb9190613d06565b60405180910390f35b34801561050057600080fd5b5061051b60048036038101906105169190613f51565b611794565b60405161052891906142b8565b60405180910390f35b34801561053d57600080fd5b5061054661184b565b005b34801561055457600080fd5b5061056f600480360381019061056a9190613e09565b61185f565b6040516105809594939291906142d3565b60405180910390f35b34801561059557600080fd5b506105b060048036038101906105ab9190613f7e565b611938565b005b3480156105be57600080fd5b506105d960048036038101906105d49190613f51565b6119f1565b6040516105e691906143eb565b60405180910390f35b3480156105fb57600080fd5b5061061660048036038101906106119190613f7e565b611a89565b6040516106239190613d06565b60405180910390f35b34801561063857600080fd5b50610641611ab9565b60405161064e9190613e77565b60405180910390f35b34801561066357600080fd5b5061066c611ae3565b6040516106799190613db1565b60405180910390f35b34801561068e57600080fd5b506106a960048036038101906106a49190614463565b611b75565b005b3480156106b757600080fd5b506106d260048036038101906106cd91906144c3565b611d1a565b005b3480156106e057600080fd5b506106fb60048036038101906106f69190613e09565b611d30565b6040516107089190613e77565b60405180910390f35b34801561071d57600080fd5b5061073860048036038101906107339190614503565b611d64565b005b34801561074657600080fd5b50610761600480360381019061075c9190613f51565b611dc6565b005b34801561076f57600080fd5b5061078a60048036038101906107859190613e09565b611f92565b60405161079791906142b8565b60405180910390f35b3480156107ac57600080fd5b506107c760048036038101906107c29190613e09565b611fab565b6040516107d49190613db1565b60405180910390f35b3480156107e957600080fd5b5061080460048036038101906107ff9190614586565b6120b0565b005b34801561081257600080fd5b5061082d600480360381019061082891906145c6565b61217d565b60405161083a9190613d06565b60405180910390f35b34801561084f57600080fd5b5061086a60048036038101906108659190614463565b612211565b005b34801561087857600080fd5b50610893600480360381019061088e9190613f51565b612330565b005b60006108a0826123b3565b9050919050565b6060606580546108b690614635565b80601f01602080910402602001604051908101604052809291908181526020018280546108e290614635565b801561092f5780601f106109045761010080835404028352916020019161092f565b820191906000526020600020905b81548152906001019060200180831161091257829003601f168201915b5050505050905090565b600061094482612495565b6069600083815260200190815260200160002060009054906101000a900473ffffffffffffffffffffffffffffffffffffffff169050919050565b600061098a826116ed565b90508073ffffffffffffffffffffffffffffffffffffffff168373ffffffffffffffffffffffffffffffffffffffff16036109fa576040517f08c379a00000000000000000000000000000000000000000000000000000000081526004016109f1906146d8565b60405180910390fd5b8073ffffffffffffffffffffffffffffffffffffffff16610a196124e0565b73ffffffffffffffffffffffffffffffffffffffff161480610a485750610a4781610a426124e0565b61217d565b5b610a87576040517f08c379a0000000000000000000000000000000000000000000000000000000008152600401610a7e9061476a565b60405180910390fd5b610a9183836124e8565b505050565b610aa7610aa16124e0565b826125a1565b610ae6576040517f08c379a0000000000000000000000000000000000000000000000000000000008152600401610add906147fc565b60405180910390fd5b610af1838383612636565b505050565b7f000000000000000000000000000000000000000000000000000000000000000073ffffffffffffffffffffffffffffffffffffffff163073ffffffffffffffffffffffffffffffffffffffff1603610b84576040517f08c379a0000000000000000000000000000000000000000000000000000000008152600401610b7b9061488e565b60405180910390fd5b7f000000000000000000000000000000000000000000000000000000000000000073ffffffffffffffffffffffffffffffffffffffff16610bc361292f565b73ffffffffffffffffffffffffffffffffffffffff1614610c19576040517f08c379a0000000000000000000000000000000000000000000000000000000008152600401610c1090614920565b60405180910390fd5b610c2281612986565b610c7b81600067ffffffffffffffff811115610c4157610c40613fc8565b5b6040519080825280601f01601f191660200182016040528015610c735781602001600182028036833780820191505090505b506000612991565b50565b610c86612aff565b6000610160600083815260200190815260200160002090508060010160019054906101000a900460ff16610cef576040517f08c379a0000000000000000000000000000000000000000000000000000000008152600401610ce69061498c565b60405180910390fd5b610163600083815260200190815260200160002060003373ffffffffffffffffffffffffffffffffffffffff1673ffffffffffffffffffffffffffffffffffffffff16815260200190815260200160002060009054906101000a900460ff1615610d8e576040517f08c379a0000000000000000000000000000000000000000000000000000000008152600401610d85906149f8565b60405180910390fd5b8060020154816003015410610dd8576040517f08c379a0000000000000000000000000000000000000000000000000000000008152600401610dcf90614a64565b60405180910390fd5b610161600083815260200190815260200160002060009054906101000a900460ff1615610e9e57610162600083815260200190815260200160002060003373ffffffffffffffffffffffffffffffffffffffff1673ffffffffffffffffffffffffffffffffffffffff16815260200190815260200160002060009054906101000a900460ff16610e9d576040517f08c379a0000000000000000000000000000000000000000000000000000000008152600401610e9490614ad0565b60405180910390fd5b5b610ea83383612b4e565b813373ffffffffffffffffffffffffffffffffffffffff167f987d620f307ff6b94d58743cb7a7509f24071586a77759b77c2d4e29f75a2f9a610eec61015f612c90565b604051610ef991906142b8565b60405180910390a350610f0a612c9e565b50565b610f2883838360405180602001604052806000815250611d64565b505050565b3373ffffffffffffffffffffffffffffffffffffffff16610f4d826116ed565b73ffffffffffffffffffffffffffffffffffffffff1614610fa3576040517f08c379a0000000000000000000000000000000000000000000000000000000008152600401610f9a90614b3c565b60405180910390fd5b60006101646000838152602001908152602001600020549050610160600082815260200190815260200160002060010160009054906101000a900460ff16611020576040517f08c379a000000000000000000000000000000000000000000000000000000000815260040161101790614ba8565b60405180910390fd5b61102982612ca8565b5050565b3373ffffffffffffffffffffffffffffffffffffffff16610165600083815260200190815260200160002060009054906101000a900473ffffffffffffffffffffffffffffffffffffffff1673ffffffffffffffffffffffffffffffffffffffff16146110cf576040517f08c379a00000000000000000000000000000000000000000000000000000000081526004016110c690614c14565b60405180910390fd5b6000610160600083815260200190815260200160002090508060010160019054906101000a900460ff16611138576040517f08c379a000000000000000000000000000000000000000000000000000000000815260040161112f9061498c565b60405180910390fd5b8060020154816003015410611182576040517f08c379a000000000000000000000000000000000000000000000000000000000815260040161117990614a64565b60405180910390fd5b610163600083815260200190815260200160002060008473ffffffffffffffffffffffffffffffffffffffff1673ffffffffffffffffffffffffffffffffffffffff16815260200190815260200160002060009054906101000a900460ff1615611221576040517f08c379a0000000000000000000000000000000000000000000000000000000008152600401611218906149f8565b60405180910390fd5b61122b8383612b4e565b505050565b6101626020528160005260406000206020528060005260406000206000915091509054906101000a900460ff1681565b7f000000000000000000000000000000000000000000000000000000000000000073ffffffffffffffffffffffffffffffffffffffff163073ffffffffffffffffffffffffffffffffffffffff16036112ee576040517f08c379a00000000000000000000000000000000000000000000000000000000081526004016112e59061488e565b60405180910390fd5b7f000000000000000000000000000000000000000000000000000000000000000073ffffffffffffffffffffffffffffffffffffffff1661132d61292f565b73ffffffffffffffffffffffffffffffffffffffff1614611383576040517f08c379a000000000000000000000000000000000000000000000000000000000815260040161137a90614920565b60405180910390fd5b61138c82612986565b61139882826001612991565b5050565b60007f000000000000000000000000000000000000000000000000000000000000000073ffffffffffffffffffffffffffffffffffffffff163073ffffffffffffffffffffffffffffffffffffffff161461142c576040517f08c379a000000000000000000000000000000000000000000000000000000000815260040161142390614ca6565b60405180910390fd5b7f360894a13ba1a3210667c828492db98dca3e2076cc3735a920a3ca505d382bbc60001b905090565b61145d612df6565b600086036114a0576040517f08c379a000000000000000000000000000000000000000000000000000000000815260040161149790614d12565b60405180910390fd5b600085859050116114e6576040517f08c379a00000000000000000000000000000000000000000000000000000000081526004016114dd90614d7e565b60405180910390fd5b60008211611529576040517f08c379a000000000000000000000000000000000000000000000000000000000815260040161152090614dea565b60405180910390fd5b600061016060008881526020019081526020016000206002015414611583576040517f08c379a000000000000000000000000000000000000000000000000000000000815260040161157a90614e56565b60405180910390fd5b6040518060a0016040528086868080601f016020809104026020016040519081016040528093929190818152602001838380828437600081840152601f19601f820116905080830192505050505050508152602001841515815260200160001515815260200183815260200160008152506101606000888152602001908152602001600020600082015181600001908161161d9190615022565b5060208201518160010160006101000a81548160ff02191690831515021790555060408201518160010160016101000a81548160ff021916908315150217905550606082015181600201556080820151816003015590505080156116a9576001610161600088815260200190815260200160002060006101000a81548160ff0219169083151502179055505b857f331fdfebfdf6bf38fed1b86a4acac0240843ece42a4cbfe6f311913c6c969d898686856040516116dd93929190615121565b60405180910390a2505050505050565b6000806116f983612e74565b9050600073ffffffffffffffffffffffffffffffffffffffff168173ffffffffffffffffffffffffffffffffffffffff160361176a576040517f08c379a00000000000000000000000000000000000000000000000000000000081526004016117619061519f565b60405180910390fd5b80915050919050565b6101616020528060005260406000206000915054906101000a900460ff1681565b60008073ffffffffffffffffffffffffffffffffffffffff168273ffffffffffffffffffffffffffffffffffffffff1603611804576040517f08c379a00000000000000000000000000000000000000000000000000000000081526004016117fb90615231565b60405180910390fd5b606860008373ffffffffffffffffffffffffffffffffffffffff1673ffffffffffffffffffffffffffffffffffffffff168152602001908152602001600020549050919050565b611853612df6565b61185d6000612eb1565b565b61016060205280600052604060002060009150905080600001805461188390614635565b80601f01602080910402602001604051908101604052809291908181526020018280546118af90614635565b80156118fc5780601f106118d1576101008083540402835291602001916118fc565b820191906000526020600020905b8154815290600101906020018083116118df57829003601f168201915b5050505050908060010160009054906101000a900460ff16908060010160019054906101000a900460ff16908060020154908060030154905085565b611940612df6565b60006101606000848152602001908152602001600020600201541161199a576040517f08c379a00000000000000000000000000000000000000000000000000000000081526004016119919061529d565b60405180910390fd5b80610165600084815260200190815260200160002060006101000a81548173ffffffffffffffffffffffffffffffffffffffff021916908373ffffffffffffffffffffffffffffffffffffffff1602179055505050565b606061016660008373ffffffffffffffffffffffffffffffffffffffff1673ffffffffffffffffffffffffffffffffffffffff168152602001908152602001600020805480602002602001604051908101604052809291908181526020018280548015611a7d57602002820191906000526020600020905b815481526020019060010190808311611a69575b50505050509050919050565b6101636020528160005260406000206020528060005260406000206000915091509054906101000a900460ff1681565b6000609760009054906101000a900473ffffffffffffffffffffffffffffffffffffffff16905090565b606060668054611af290614635565b80601f0160208091040260200160405190810160405280929190818152602001828054611b1e90614635565b8015611b6b5780601f10611b4057610100808354040283529160200191611b6b565b820191906000526020600020905b815481529060010190602001808311611b4e57829003601f168201915b5050505050905090565b611b7d612df6565b6000610160600085815260200190815260200160002090508060010160019054906101000a900460ff16611be6576040517f08c379a0000000000000000000000000000000000000000000000000000000008152600401611bdd9061498c565b60405180910390fd5b60005b8383905081108015611c02575081600201548260030154105b15611d13576000848483818110611c1c57611c1b6152bd565b5b9050602002016020810190611c319190613f51565b9050610163600087815260200190815260200160002060008273ffffffffffffffffffffffffffffffffffffffff1673ffffffffffffffffffffffffffffffffffffffff16815260200190815260200160002060009054906101000a900460ff1615611c9d5750611d02565b611ca78187612b4e565b858173ffffffffffffffffffffffffffffffffffffffff167f7a688d4878cbd39da9b81cf43a08dadd22473d543d60975431287ab6d22e220c611ceb61015f612c90565b604051611cf891906142b8565b60405180910390a3505b80611d0c9061531b565b9050611be9565b5050505050565b611d2c611d256124e0565b8383612f77565b5050565b6101656020528060005260406000206000915054906101000a900473ffffffffffffffffffffffffffffffffffffffff1681565b611d75611d6f6124e0565b836125a1565b611db4576040517f08c379a0000000000000000000000000000000000000000000000000000000008152600401611dab906147fc565b60405180910390fd5b611dc0848484846130e3565b50505050565b60008060019054906101000a900460ff16159050808015611df75750600160008054906101000a900460ff1660ff16105b80611e245750611e063061313f565b158015611e235750600160008054906101000a900460ff1660ff16145b5b611e63576040517f08c379a0000000000000000000000000000000000000000000000000000000008152600401611e5a906153d5565b60405180910390fd5b60016000806101000a81548160ff021916908360ff1602179055508015611ea0576001600060016101000a81548160ff0219169083151502179055505b611f146040518060400160405280600e81526020017f57656220416363657373205342540000000000000000000000000000000000008152506040518060400160405280600581526020017f5733534254000000000000000000000000000000000000000000000000000000815250613162565b611f1c6131bf565b611f24613218565b611f2c613271565b611f3582612330565b8015611f8e5760008060016101000a81548160ff0219169083151502179055507f7f26b83ff96e1f2b6a682f133852f6798a09c465da95921460cefb38474024986001604051611f85919061543d565b60405180910390a15b5050565b6101646020528060005260406000206000915090505481565b6060611fb6826132c2565b611ff5576040517f08c379a0000000000000000000000000000000000000000000000000000000008152600401611fec906154a4565b60405180910390fd5b61016060006101646000858152602001908152602001600020548152602001908152602001600020600001805461202b90614635565b80601f016020809104026020016040519081016040528092919081815260200182805461205790614635565b80156120a45780601f10612079576101008083540402835291602001916120a4565b820191906000526020600020905b81548152906001019060200180831161208757829003601f168201915b50505050509050919050565b6120b8612df6565b600061016060008481526020019081526020016000206002015411612112576040517f08c379a00000000000000000000000000000000000000000000000000000000081526004016121099061529d565b60405180910390fd5b80610160600084815260200190815260200160002060010160016101000a81548160ff021916908315150217905550817f7d523d209be68d468b050a5f321bb1d6f8a46248910fa6e6e50a880b0e4d2256826040516121719190613d06565b60405180910390a25050565b6000606a60008473ffffffffffffffffffffffffffffffffffffffff1673ffffffffffffffffffffffffffffffffffffffff16815260200190815260200160002060008373ffffffffffffffffffffffffffffffffffffffff1673ffffffffffffffffffffffffffffffffffffffff16815260200190815260200160002060009054906101000a900460ff16905092915050565b612219612df6565b610161600084815260200190815260200160002060009054906101000a900460ff1661227a576040517f08c379a000000000000000000000000000000000000000000000000000000000815260040161227190615510565b60405180910390fd5b60005b8282905081101561232a576001610162600086815260200190815260200160002060008585858181106122b3576122b26152bd565b5b90506020020160208101906122c89190613f51565b73ffffffffffffffffffffffffffffffffffffffff1673ffffffffffffffffffffffffffffffffffffffff16815260200190815260200160002060006101000a81548160ff021916908315150217905550806123239061531b565b905061227d565b50505050565b612338612df6565b600073ffffffffffffffffffffffffffffffffffffffff168173ffffffffffffffffffffffffffffffffffffffff16036123a7576040517f08c379a000000000000000000000000000000000000000000000000000000000815260040161239e906155a2565b60405180910390fd5b6123b081612eb1565b50565b60007f80ac58cd000000000000000000000000000000000000000000000000000000007bffffffffffffffffffffffffffffffffffffffffffffffffffffffff1916827bffffffffffffffffffffffffffffffffffffffffffffffffffffffff1916148061247e57507f5b5e139f000000000000000000000000000000000000000000000000000000007bffffffffffffffffffffffffffffffffffffffffffffffffffffffff1916827bffffffffffffffffffffffffffffffffffffffffffffffffffffffff1916145b8061248e575061248d82613303565b5b9050919050565b61249e816132c2565b6124dd576040517f08c379a00000000000000000000000000000000000000000000000000000000081526004016124d49061519f565b60405180910390fd5b50565b600033905090565b816069600083815260200190815260200160002060006101000a81548173ffffffffffffffffffffffffffffffffffffffff021916908373ffffffffffffffffffffffffffffffffffffffff160217905550808273ffffffffffffffffffffffffffffffffffffffff1661255b836116ed565b73ffffffffffffffffffffffffffffffffffffffff167f8c5be1e5ebec7d5bd14f71427d1e84f3dd0314c0f7b2291e5b200ac8c7c3b92560405160405180910390a45050565b6000806125ad836116ed565b90508073ffffffffffffffffffffffffffffffffffffffff168473ffffffffffffffffffffffffffffffffffffffff1614806125ef57506125ee818561217d565b5b8061262d57508373ffffffffffffffffffffffffffffffffffffffff1661261584610939565b73ffffffffffffffffffffffffffffffffffffffff16145b91505092915050565b8273ffffffffffffffffffffffffffffffffffffffff16612656826116ed565b73ffffffffffffffffffffffffffffffffffffffff16146126ac576040517f08c379a00000000000000000000000000000000000000000000000000000000081526004016126a390615634565b60405180910390fd5b600073ffffffffffffffffffffffffffffffffffffffff168273ffffffffffffffffffffffffffffffffffffffff160361271b576040517f08c379a0000000000000000000000000000000000000000000000000000000008152600401612712906156c6565b60405180910390fd5b612728838383600161336d565b8273ffffffffffffffffffffffffffffffffffffffff16612748826116ed565b73ffffffffffffffffffffffffffffffffffffffff161461279e576040517f08c379a000000000000000000000000000000000000000000000000000000000815260040161279590615634565b60405180910390fd5b6069600082815260200190815260200160002060006101000a81549073ffffffffffffffffffffffffffffffffffffffff02191690556001606860008573ffffffffffffffffffffffffffffffffffffffff1673ffffffffffffffffffffffffffffffffffffffff168152602001908152602001600020600082825403925050819055506001606860008473ffffffffffffffffffffffffffffffffffffffff1673ffffffffffffffffffffffffffffffffffffffff16815260200190815260200160002060008282540192505081905550816067600083815260200190815260200160002060006101000a81548173ffffffffffffffffffffffffffffffffffffffff021916908373ffffffffffffffffffffffffffffffffffffffff160217905550808273ffffffffffffffffffffffffffffffffffffffff168473ffffffffffffffffffffffffffffffffffffffff167fddf252ad1be2c89b69c2b068fc378daa952ba7f163c4a11628f55a4df523b3ef60405160405180910390a461292a8383836001613426565b505050565b600061295d7f360894a13ba1a3210667c828492db98dca3e2076cc3735a920a3ca505d382bbc60001b61342c565b60000160009054906101000a900473ffffffffffffffffffffffffffffffffffffffff16905090565b61298e612df6565b50565b6129bd7f4910fdfa16fed3260ed0e7147f7cc6da11a60208b5b9406d12a635614ffd914360001b613436565b60000160009054906101000a900460ff16156129e1576129dc83613440565b612afa565b8273ffffffffffffffffffffffffffffffffffffffff166352d1902d6040518163ffffffff1660e01b8152600401602060405180830381865afa925050508015612a4957506040513d601f19601f82011682018060405250810190612a469190615712565b60015b612a88576040517f08c379a0000000000000000000000000000000000000000000000000000000008152600401612a7f906157b1565b60405180910390fd5b7f360894a13ba1a3210667c828492db98dca3e2076cc3735a920a3ca505d382bbc60001b8114612aed576040517f08c379a0000000000000000000000000000000000000000000000000000000008152600401612ae490615843565b60405180910390fd5b50612af98383836134f9565b5b505050565b600260c95403612b44576040517f08c379a0000000000000000000000000000000000000000000000000000000008152600401612b3b906158af565b60405180910390fd5b600260c981905550565b600161016060008381526020019081526020016000206003016000828254612b7691906158cf565b92505081905550612b8861015f613525565b6000612b9561015f612c90565b90506001610163600084815260200190815260200160002060008573ffffffffffffffffffffffffffffffffffffffff1673ffffffffffffffffffffffffffffffffffffffff16815260200190815260200160002060006101000a81548160ff0219169083151502179055508161016460008381526020019081526020016000208190555061016660008473ffffffffffffffffffffffffffffffffffffffff1673ffffffffffffffffffffffffffffffffffffffff168152602001908152602001600020819080600181540180825580915050600190039060005260206000200160009091909190915055612c8b838261353b565b505050565b600081600001549050919050565b600160c981905550565b6000612cb3826116ed565b9050612cc381600084600161336d565b612ccc826116ed565b90506069600083815260200190815260200160002060006101000a81549073ffffffffffffffffffffffffffffffffffffffff02191690556001606860008373ffffffffffffffffffffffffffffffffffffffff1673ffffffffffffffffffffffffffffffffffffffff168152602001908152602001600020600082825403925050819055506067600083815260200190815260200160002060006101000a81549073ffffffffffffffffffffffffffffffffffffffff021916905581600073ffffffffffffffffffffffffffffffffffffffff168273ffffffffffffffffffffffffffffffffffffffff167fddf252ad1be2c89b69c2b068fc378daa952ba7f163c4a11628f55a4df523b3ef60405160405180910390a4612df2816000846001613426565b5050565b612dfe6124e0565b73ffffffffffffffffffffffffffffffffffffffff16612e1c611ab9565b73ffffffffffffffffffffffffffffffffffffffff1614612e72576040517f08c379a0000000000000000000000000000000000000000000000000000000008152600401612e699061594f565b60405180910390fd5b565b60006067600083815260200190815260200160002060009054906101000a900473ffffffffffffffffffffffffffffffffffffffff169050919050565b6000609760009054906101000a900473ffffffffffffffffffffffffffffffffffffffff16905081609760006101000a81548173ffffffffffffffffffffffffffffffffffffffff021916908373ffffffffffffffffffffffffffffffffffffffff1602179055508173ffffffffffffffffffffffffffffffffffffffff168173ffffffffffffffffffffffffffffffffffffffff167f8be0079c531659141344cd1fd0a4f28419497f9722a3daafe3b4186f6b6457e060405160405180910390a35050565b8173ffffffffffffffffffffffffffffffffffffffff168373ffffffffffffffffffffffffffffffffffffffff1603612fe5576040517f08c379a0000000000000000000000000000000000000000000000000000000008152600401612fdc906159bb565b60405180910390fd5b80606a60008573ffffffffffffffffffffffffffffffffffffffff1673ffffffffffffffffffffffffffffffffffffffff16815260200190815260200160002060008473ffffffffffffffffffffffffffffffffffffffff1673ffffffffffffffffffffffffffffffffffffffff16815260200190815260200160002060006101000a81548160ff0219169083151502179055508173ffffffffffffffffffffffffffffffffffffffff168373ffffffffffffffffffffffffffffffffffffffff167f17307eab39ab6107e8899845ad3d59bd9653f200f220920489ca2b5937696c31836040516130d69190613d06565b60405180910390a3505050565b6130ee848484612636565b6130fa84848484613559565b613139576040517f08c379a000000000000000000000000000000000000000000000000000000000815260040161313090615a4d565b60405180910390fd5b50505050565b6000808273ffffffffffffffffffffffffffffffffffffffff163b119050919050565b600060019054906101000a900460ff166131b1576040517f08c379a00000000000000000000000000000000000000000000000000000000081526004016131a890615adf565b60405180910390fd5b6131bb82826136e0565b5050565b600060019054906101000a900460ff1661320e576040517f08c379a000000000000000000000000000000000000000000000000000000000815260040161320590615adf565b60405180910390fd5b613216613753565b565b600060019054906101000a900460ff16613267576040517f08c379a000000000000000000000000000000000000000000000000000000000815260040161325e90615adf565b60405180910390fd5b61326f6137b4565b565b600060019054906101000a900460ff166132c0576040517f08c379a00000000000000000000000000000000000000000000000000000000081526004016132b790615adf565b60405180910390fd5b565b60008073ffffffffffffffffffffffffffffffffffffffff166132e483612e74565b73ffffffffffffffffffffffffffffffffffffffff1614159050919050565b60007f01ffc9a7000000000000000000000000000000000000000000000000000000007bffffffffffffffffffffffffffffffffffffffffffffffffffffffff1916827bffffffffffffffffffffffffffffffffffffffffffffffffffffffff1916149050919050565b600073ffffffffffffffffffffffffffffffffffffffff168473ffffffffffffffffffffffffffffffffffffffff1614806133d45750600073ffffffffffffffffffffffffffffffffffffffff168373ffffffffffffffffffffffffffffffffffffffff16145b613413576040517f08c379a000000000000000000000000000000000000000000000000000000000815260040161340a90615b4b565b60405180910390fd5b613420848484600161380d565b50505050565b50505050565b6000819050919050565b6000819050919050565b6134498161313f565b613488576040517f08c379a000000000000000000000000000000000000000000000000000000000815260040161347f90615bdd565b60405180910390fd5b806134b57f360894a13ba1a3210667c828492db98dca3e2076cc3735a920a3ca505d382bbc60001b61342c565b60000160006101000a81548173ffffffffffffffffffffffffffffffffffffffff021916908373ffffffffffffffffffffffffffffffffffffffff16021790555050565b61350283613813565b60008251118061350f5750805b156135205761351e8383613862565b505b505050565b6001816000016000828254019250508190555050565b61355582826040518060200160405280600081525061388f565b5050565b600061357a8473ffffffffffffffffffffffffffffffffffffffff1661313f565b156136d3578373ffffffffffffffffffffffffffffffffffffffff1663150b7a026135a36124e0565b8786866040518563ffffffff1660e01b81526004016135c59493929190615c52565b6020604051808303816000875af192505050801561360157506040513d601f19601f820116820180604052508101906135fe9190615cb3565b60015b613683573d8060008114613631576040519150601f19603f3d011682016040523d82523d6000602084013e613636565b606091505b50600081510361367b576040517f08c379a000000000000000000000000000000000000000000000000000000000815260040161367290615a4d565b60405180910390fd5b805181602001fd5b63150b7a0260e01b7bffffffffffffffffffffffffffffffffffffffffffffffffffffffff1916817bffffffffffffffffffffffffffffffffffffffffffffffffffffffff1916149150506136d8565b600190505b949350505050565b600060019054906101000a900460ff1661372f576040517f08c379a000000000000000000000000000000000000000000000000000000000815260040161372690615adf565b60405180910390fd5b816065908161373e9190615022565b50806066908161374e9190615022565b505050565b600060019054906101000a900460ff166137a2576040517f08c379a000000000000000000000000000000000000000000000000000000000815260040161379990615adf565b60405180910390fd5b6137b26137ad6124e0565b612eb1565b565b600060019054906101000a900460ff16613803576040517f08c379a00000000000000000000000000000000000000000000000000000000081526004016137fa90615adf565b60405180910390fd5b600160c981905550565b50505050565b61381c81613440565b8073ffffffffffffffffffffffffffffffffffffffff167fbc7cd75a20ee27fd9adebab32041f755214dbc6bffa90cc0225b39da2e5c2d3b60405160405180910390a250565b60606138878383604051806060016040528060278152602001615e78602791396138ea565b905092915050565b6138998383613970565b6138a66000848484613559565b6138e5576040517f08c379a00000000000000000000000000000000000000000000000000000000081526004016138dc90615a4d565b60405180910390fd5b505050565b60606000808573ffffffffffffffffffffffffffffffffffffffff16856040516139149190615d1c565b600060405180830381855af49150503d806000811461394f576040519150601f19603f3d011682016040523d82523d6000602084013e613954565b606091505b509150915061396586838387613b8d565b925050509392505050565b600073ffffffffffffffffffffffffffffffffffffffff168273ffffffffffffffffffffffffffffffffffffffff16036139df576040517f08c379a00000000000000000000000000000000000000000000000000000000081526004016139d690615d7f565b60405180910390fd5b6139e8816132c2565b15613a28576040517f08c379a0000000000000000000000000000000000000000000000000000000008152600401613a1f90615deb565b60405180910390fd5b613a3660008383600161336d565b613a3f816132c2565b15613a7f576040517f08c379a0000000000000000000000000000000000000000000000000000000008152600401613a7690615deb565b60405180910390fd5b6001606860008473ffffffffffffffffffffffffffffffffffffffff1673ffffffffffffffffffffffffffffffffffffffff16815260200190815260200160002060008282540192505081905550816067600083815260200190815260200160002060006101000a81548173ffffffffffffffffffffffffffffffffffffffff021916908373ffffffffffffffffffffffffffffffffffffffff160217905550808273ffffffffffffffffffffffffffffffffffffffff16600073ffffffffffffffffffffffffffffffffffffffff167fddf252ad1be2c89b69c2b068fc378daa952ba7f163c4a11628f55a4df523b3ef60405160405180910390a4613b89600083836001613426565b5050565b60608315613bef576000835103613be757613ba78561313f565b613be6576040517f08c379a0000000000000000000000000000000000000000000000000000000008152600401613bdd90615e57565b60405180910390fd5b5b829050613bfa565b613bf98383613c02565b5b949350505050565b600082511115613c155781518083602001fd5b806040517f08c379a0000000000000000000000000000000000000000000000000000000008152600401613c499190613db1565b60405180910390fd5b6000604051905090565b600080fd5b600080fd5b60007fffffffff0000000000000000000000000000000000000000000000000000000082169050919050565b613c9b81613c66565b8114613ca657600080fd5b50565b600081359050613cb881613c92565b92915050565b600060208284031215613cd457613cd3613c5c565b5b6000613ce284828501613ca9565b91505092915050565b60008115159050919050565b613d0081613ceb565b82525050565b6000602082019050613d1b6000830184613cf7565b92915050565b600081519050919050565b600082825260208201905092915050565b60005b83811015613d5b578082015181840152602081019050613d40565b60008484015250505050565b6000601f19601f8301169050919050565b6000613d8382613d21565b613d8d8185613d2c565b9350613d9d818560208601613d3d565b613da681613d67565b840191505092915050565b60006020820190508181036000830152613dcb8184613d78565b905092915050565b6000819050919050565b613de681613dd3565b8114613df157600080fd5b50565b600081359050613e0381613ddd565b92915050565b600060208284031215613e1f57613e1e613c5c565b5b6000613e2d84828501613df4565b91505092915050565b600073ffffffffffffffffffffffffffffffffffffffff82169050919050565b6000613e6182613e36565b9050919050565b613e7181613e56565b82525050565b6000602082019050613e8c6000830184613e68565b92915050565b613e9b81613e56565b8114613ea657600080fd5b50565b600081359050613eb881613e92565b92915050565b60008060408385031215613ed557613ed4613c5c565b5b6000613ee385828601613ea9565b9250506020613ef485828601613df4565b9150509250929050565b600080600060608486031215613f1757613f16613c5c565b5b6000613f2586828701613ea9565b9350506020613f3686828701613ea9565b9250506040613f4786828701613df4565b9150509250925092565b600060208284031215613f6757613f66613c5c565b5b6000613f7584828501613ea9565b91505092915050565b60008060408385031215613f9557613f94613c5c565b5b6000613fa385828601613df4565b9250506020613fb485828601613ea9565b9150509250929050565b600080fd5b600080fd5b7f4e487b7100000000000000000000000000000000000000000000000000000000600052604160045260246000fd5b61400082613d67565b810181811067ffffffffffffffff8211171561401f5761401e613fc8565b5b80604052505050565b6000614032613c52565b905061403e8282613ff7565b919050565b600067ffffffffffffffff82111561405e5761405d613fc8565b5b61406782613d67565b9050602081019050919050565b82818337600083830152505050565b600061409661409184614043565b614028565b9050828152602081018484840111156140b2576140b1613fc3565b5b6140bd848285614074565b509392505050565b600082601f8301126140da576140d9613fbe565b5b81356140ea848260208601614083565b91505092915050565b6000806040838503121561410a57614109613c5c565b5b600061411885828601613ea9565b925050602083013567ffffffffffffffff81111561413957614138613c61565b5b614145858286016140c5565b9150509250929050565b6000819050919050565b6141628161414f565b82525050565b600060208201905061417d6000830184614159565b92915050565b600080fd5b600080fd5b60008083601f8401126141a3576141a2613fbe565b5b8235905067ffffffffffffffff8111156141c0576141bf614183565b5b6020830191508360018202830111156141dc576141db614188565b5b9250929050565b6141ec81613ceb565b81146141f757600080fd5b50565b600081359050614209816141e3565b92915050565b60008060008060008060a0878903121561422c5761422b613c5c565b5b600061423a89828a01613df4565b965050602087013567ffffffffffffffff81111561425b5761425a613c61565b5b61426789828a0161418d565b9550955050604061427a89828a016141fa565b935050606061428b89828a01613df4565b925050608061429c89828a016141fa565b9150509295509295509295565b6142b281613dd3565b82525050565b60006020820190506142cd60008301846142a9565b92915050565b600060a08201905081810360008301526142ed8188613d78565b90506142fc6020830187613cf7565b6143096040830186613cf7565b61431660608301856142a9565b61432360808301846142a9565b9695505050505050565b600081519050919050565b600082825260208201905092915050565b6000819050602082019050919050565b61436281613dd3565b82525050565b60006143748383614359565b60208301905092915050565b6000602082019050919050565b60006143988261432d565b6143a28185614338565b93506143ad83614349565b8060005b838110156143de5781516143c58882614368565b97506143d083614380565b9250506001810190506143b1565b5085935050505092915050565b60006020820190508181036000830152614405818461438d565b905092915050565b60008083601f84011261442357614422613fbe565b5b8235905067ffffffffffffffff8111156144405761443f614183565b5b60208301915083602082028301111561445c5761445b614188565b5b9250929050565b60008060006040848603121561447c5761447b613c5c565b5b600061448a86828701613df4565b935050602084013567ffffffffffffffff8111156144ab576144aa613c61565b5b6144b78682870161440d565b92509250509250925092565b600080604083850312156144da576144d9613c5c565b5b60006144e885828601613ea9565b92505060206144f9858286016141fa565b9150509250929050565b6000806000806080858703121561451d5761451c613c5c565b5b600061452b87828801613ea9565b945050602061453c87828801613ea9565b935050604061454d87828801613df4565b925050606085013567ffffffffffffffff81111561456e5761456d613c61565b5b61457a878288016140c5565b91505092959194509250565b6000806040838503121561459d5761459c613c5c565b5b60006145ab85828601613df4565b92505060206145bc858286016141fa565b9150509250929050565b600080604083850312156145dd576145dc613c5c565b5b60006145eb85828601613ea9565b92505060206145fc85828601613ea9565b9150509250929050565b7f4e487b7100000000000000000000000000000000000000000000000000000000600052602260045260246000fd5b6000600282049050600182168061464d57607f821691505b6020821081036146605761465f614606565b5b50919050565b7f4552433732313a20617070726f76616c20746f2063757272656e74206f776e6560008201527f7200000000000000000000000000000000000000000000000000000000000000602082015250565b60006146c2602183613d2c565b91506146cd82614666565b604082019050919050565b600060208201905081810360008301526146f1816146b5565b9050919050565b7f4552433732313a20617070726f76652063616c6c6572206973206e6f7420746f60008201527f6b656e206f776e6572206f7220617070726f76656420666f7220616c6c000000602082015250565b6000614754603d83613d2c565b915061475f826146f8565b604082019050919050565b6000602082019050818103600083015261478381614747565b9050919050565b7f4552433732313a2063616c6c6572206973206e6f7420746f6b656e206f776e6560008201527f72206f7220617070726f76656400000000000000000000000000000000000000602082015250565b60006147e6602d83613d2c565b91506147f18261478a565b604082019050919050565b60006020820190508181036000830152614815816147d9565b9050919050565b7f46756e6374696f6e206d7573742062652063616c6c6564207468726f7567682060008201527f64656c656761746563616c6c0000000000000000000000000000000000000000602082015250565b6000614878602c83613d2c565b91506148838261481c565b604082019050919050565b600060208201905081810360008301526148a78161486b565b9050919050565b7f46756e6374696f6e206d7573742062652063616c6c6564207468726f7567682060008201527f6163746976652070726f78790000000000000000000000000000000000000000602082015250565b600061490a602c83613d2c565b9150614915826148ae565b604082019050919050565b60006020820190508181036000830152614939816148fd565b9050919050565b7f496e616374697665000000000000000000000000000000000000000000000000600082015250565b6000614976600883613d2c565b915061498182614940565b602082019050919050565b600060208201905081810360008301526149a581614969565b9050919050565b7f436c61696d656400000000000000000000000000000000000000000000000000600082015250565b60006149e2600783613d2c565b91506149ed826149ac565b602082019050919050565b60006020820190508181036000830152614a11816149d5565b9050919050565b7f536f6c64206f7574000000000000000000000000000000000000000000000000600082015250565b6000614a4e600883613d2c565b9150614a5982614a18565b602082019050919050565b60006020820190508181036000830152614a7d81614a41565b9050919050565b7f4e6f742077686974656c69737465640000000000000000000000000000000000600082015250565b6000614aba600f83613d2c565b9150614ac582614a84565b602082019050919050565b60006020820190508181036000830152614ae981614aad565b9050919050565b7f4e6f74206f776e65720000000000000000000000000000000000000000000000600082015250565b6000614b26600983613d2c565b9150614b3182614af0565b602082019050919050565b60006020820190508181036000830152614b5581614b19565b9050919050565b7f4e6f74206275726e61626c650000000000000000000000000000000000000000600082015250565b6000614b92600c83613d2c565b9150614b9d82614b5c565b602082019050919050565b60006020820190508181036000830152614bc181614b85565b9050919050565b7f4e6f74206f7267616e697a657200000000000000000000000000000000000000600082015250565b6000614bfe600d83613d2c565b9150614c0982614bc8565b602082019050919050565b60006020820190508181036000830152614c2d81614bf1565b9050919050565b7f555550535570677261646561626c653a206d757374206e6f742062652063616c60008201527f6c6564207468726f7567682064656c656761746563616c6c0000000000000000602082015250565b6000614c90603883613d2c565b9150614c9b82614c34565b604082019050919050565b60006020820190508181036000830152614cbf81614c83565b9050919050565b7f7479706549642030000000000000000000000000000000000000000000000000600082015250565b6000614cfc600883613d2c565b9150614d0782614cc6565b602082019050919050565b60006020820190508181036000830152614d2b81614cef565b9050919050565b7f5552490000000000000000000000000000000000000000000000000000000000600082015250565b6000614d68600383613d2c565b9150614d7382614d32565b602082019050919050565b60006020820190508181036000830152614d9781614d5b565b9050919050565b7f4e6f20737570706c790000000000000000000000000000000000000000000000600082015250565b6000614dd4600983613d2c565b9150614ddf82614d9e565b602082019050919050565b60006020820190508181036000830152614e0381614dc7565b9050919050565b7f4578697374730000000000000000000000000000000000000000000000000000600082015250565b6000614e40600683613d2c565b9150614e4b82614e0a565b602082019050919050565b60006020820190508181036000830152614e6f81614e33565b9050919050565b60008190508160005260206000209050919050565b60006020601f8301049050919050565b600082821b905092915050565b600060088302614ed87fffffffffffffffffffffffffffffffffffffffffffffffffffffffffffffffff82614e9b565b614ee28683614e9b565b95508019841693508086168417925050509392505050565b6000819050919050565b6000614f1f614f1a614f1584613dd3565b614efa565b613dd3565b9050919050565b6000819050919050565b614f3983614f04565b614f4d614f4582614f26565b848454614ea8565b825550505050565b600090565b614f62614f55565b614f6d818484614f30565b505050565b5b81811015614f9157614f86600082614f5a565b600181019050614f73565b5050565b601f821115614fd657614fa781614e76565b614fb084614e8b565b81016020851015614fbf578190505b614fd3614fcb85614e8b565b830182614f72565b50505b505050565b600082821c905092915050565b6000614ff960001984600802614fdb565b1980831691505092915050565b60006150128383614fe8565b9150826002028217905092915050565b61502b82613d21565b67ffffffffffffffff81111561504457615043613fc8565b5b61504e8254614635565b615059828285614f95565b600060209050601f83116001811461508c576000841561507a578287015190505b6150848582615006565b8655506150ec565b601f19841661509a86614e76565b60005b828110156150c25784890151825560018201915060208501945060208101905061509d565b868310156150df57848901516150db601f891682614fe8565b8355505b6001600288020188555050505b505050505050565b60006151008385613d2c565b935061510d838584614074565b61511683613d67565b840190509392505050565b6000604082019050818103600083015261513c8185876150f4565b905061514b60208301846142a9565b949350505050565b7f4552433732313a20696e76616c696420746f6b656e2049440000000000000000600082015250565b6000615189601883613d2c565b915061519482615153565b602082019050919050565b600060208201905081810360008301526151b88161517c565b9050919050565b7f4552433732313a2061646472657373207a65726f206973206e6f74206120766160008201527f6c6964206f776e65720000000000000000000000000000000000000000000000602082015250565b600061521b602983613d2c565b9150615226826151bf565b604082019050919050565b6000602082019050818103600083015261524a8161520e565b9050919050565b7f496e76616c696420747970650000000000000000000000000000000000000000600082015250565b6000615287600c83613d2c565b915061529282615251565b602082019050919050565b600060208201905081810360008301526152b68161527a565b9050919050565b7f4e487b7100000000000000000000000000000000000000000000000000000000600052603260045260246000fd5b7f4e487b7100000000000000000000000000000000000000000000000000000000600052601160045260246000fd5b600061532682613dd3565b91507fffffffffffffffffffffffffffffffffffffffffffffffffffffffffffffffff8203615358576153576152ec565b5b600182019050919050565b7f496e697469616c697a61626c653a20636f6e747261637420697320616c72656160008201527f647920696e697469616c697a6564000000000000000000000000000000000000602082015250565b60006153bf602e83613d2c565b91506153ca82615363565b604082019050919050565b600060208201905081810360008301526153ee816153b2565b9050919050565b6000819050919050565b600060ff82169050919050565b600061542761542261541d846153f5565b614efa565b6153ff565b9050919050565b6154378161540c565b82525050565b6000602082019050615452600083018461542e565b92915050565b7f4d697373696e6720746f6b656e00000000000000000000000000000000000000600082015250565b600061548e600d83613d2c565b915061549982615458565b602082019050919050565b600060208201905081810360008301526154bd81615481565b9050919050565b7f57686974656c697374206f666600000000000000000000000000000000000000600082015250565b60006154fa600d83613d2c565b9150615505826154c4565b602082019050919050565b60006020820190508181036000830152615529816154ed565b9050919050565b7f4f776e61626c653a206e6577206f776e657220697320746865207a65726f206160008201527f6464726573730000000000000000000000000000000000000000000000000000602082015250565b600061558c602683613d2c565b915061559782615530565b604082019050919050565b600060208201905081810360008301526155bb8161557f565b9050919050565b7f4552433732313a207472616e736665722066726f6d20696e636f72726563742060008201527f6f776e6572000000000000000000000000000000000000000000000000000000602082015250565b600061561e602583613d2c565b9150615629826155c2565b604082019050919050565b6000602082019050818103600083015261564d81615611565b9050919050565b7f4552433732313a207472616e7366657220746f20746865207a65726f2061646460008201527f7265737300000000000000000000000000000000000000000000000000000000602082015250565b60006156b0602483613d2c565b91506156bb82615654565b604082019050919050565b600060208201905081810360008301526156df816156a3565b9050919050565b6156ef8161414f565b81146156fa57600080fd5b50565b60008151905061570c816156e6565b92915050565b60006020828403121561572857615727613c5c565b5b6000615736848285016156fd565b91505092915050565b7f45524331393637557067726164653a206e657720696d706c656d656e7461746960008201527f6f6e206973206e6f742055555053000000000000000000000000000000000000602082015250565b600061579b602e83613d2c565b91506157a68261573f565b604082019050919050565b600060208201905081810360008301526157ca8161578e565b9050919050565b7f45524331393637557067726164653a20756e737570706f727465642070726f7860008201527f6961626c65555549440000000000000000000000000000000000000000000000602082015250565b600061582d602983613d2c565b9150615838826157d1565b604082019050919050565b6000602082019050818103600083015261585c81615820565b9050919050565b7f5265656e7472616e637947756172643a207265656e7472616e742063616c6c00600082015250565b6000615899601f83613d2c565b91506158a482615863565b602082019050919050565b600060208201905081810360008301526158c88161588c565b9050919050565b60006158da82613dd3565b91506158e583613dd3565b92508282019050808211156158fd576158fc6152ec565b5b92915050565b7f4f776e61626c653a2063616c6c6572206973206e6f7420746865206f776e6572600082015250565b6000615939602083613d2c565b915061594482615903565b602082019050919050565b600060208201905081810360008301526159688161592c565b9050919050565b7f4552433732313a20617070726f766520746f2063616c6c657200000000000000600082015250565b60006159a5601983613d2c565b91506159b08261596f565b602082019050919050565b600060208201905081810360008301526159d481615998565b9050919050565b7f4552433732313a207472616e7366657220746f206e6f6e20455243373231526560008201527f63656976657220696d706c656d656e7465720000000000000000000000000000602082015250565b6000615a37603283613d2c565b9150615a42826159db565b604082019050919050565b60006020820190508181036000830152615a6681615a2a565b9050919050565b7f496e697469616c697a61626c653a20636f6e7472616374206973206e6f74206960008201527f6e697469616c697a696e67000000000000000000000000000000000000000000602082015250565b6000615ac9602b83613d2c565b9150615ad482615a6d565b604082019050919050565b60006020820190508181036000830152615af881615abc565b9050919050565b7f536f756c626f756e640000000000000000000000000000000000000000000000600082015250565b6000615b35600983613d2c565b9150615b4082615aff565b602082019050919050565b60006020820190508181036000830152615b6481615b28565b9050919050565b7f455243313936373a206e657720696d706c656d656e746174696f6e206973206e60008201527f6f74206120636f6e747261637400000000000000000000000000000000000000602082015250565b6000615bc7602d83613d2c565b9150615bd282615b6b565b604082019050919050565b60006020820190508181036000830152615bf681615bba565b9050919050565b600081519050919050565b600082825260208201905092915050565b6000615c2482615bfd565b615c2e8185615c08565b9350615c3e818560208601613d3d565b615c4781613d67565b840191505092915050565b6000608082019050615c676000830187613e68565b615c746020830186613e68565b615c8160408301856142a9565b8181036060830152615c938184615c19565b905095945050505050565b600081519050615cad81613c92565b92915050565b600060208284031215615cc957615cc8613c5c565b5b6000615cd784828501615c9e565b91505092915050565b600081905092915050565b6000615cf682615bfd565b615d008185615ce0565b9350615d10818560208601613d3d565b80840191505092915050565b6000615d288284615ceb565b915081905092915050565b7f4552433732313a206d696e7420746f20746865207a65726f2061646472657373600082015250565b6000615d69602083613d2c565b9150615d7482615d33565b602082019050919050565b60006020820190508181036000830152615d9881615d5c565b9050919050565b7f4552433732313a20746f6b656e20616c7265616479206d696e74656400000000600082015250565b6000615dd5601c83613d2c565b9150615de082615d9f565b602082019050919050565b60006020820190508181036000830152615e0481615dc8565b9050919050565b7f416464726573733a2063616c6c20746f206e6f6e2d636f6e7472616374000000600082015250565b6000615e41601d83613d2c565b9150615e4c82615e0b565b602082019050919050565b60006020820190508181036000830152615e7081615e34565b905091905056fe416464726573733a206c6f772d6c6576656c2064656c65676174652063616c6c206661696c6564a2646970667358221220f9fa29ef95022b78d8a60d0fb6f17e26174d478d6e8cd12b9f59cec5ea97942964736f6c63430008140033",
  "linkReferences": {},
  "deployedLinkReferences": {}
}