{
  "_format": "hh-sol-artifact-1",
  "contractName": "TEAFundraising",
  "sourceName": "contracts/TEAFundraising.sol",
  "abi": [
    {
      "inputs": [
        {
          "internalType": "address",
          "name": "initialOwner",
          "type": "address"
        },
        {
          "internalType": "address",
          "name": "tokenAddress",
          "type": "address"
        },
        {
          "internalType": "address",
          "name": "paymentTokenAddress",
          "type": "address"
        }
      ],
      "stateMutability": "nonpayable",
      "type": "constructor"
    },
    {
      "anonymous": false,
      "inputs": [
        {
          "indexed": true,
          "internalType": "address",
          "name": "previousOwner",
          "type": "address"
        },
        {
          "indexed": true,
          "internalType": "address",
          "name": "newOwner",
          "type": "address"
        }
      ],
      "name": "OwnershipTransferred",
      "type": "event"
    },
    {
      "anonymous": false,
      "inputs": [
        {
          "indexed": false,
          "internalType": "uint256",
          "name": "roundId",
          "type": "uint256"
        }
      ],
      "name": "RoundClosed",
      "type": "event"
    },
    {
      "anonymous": false,
      "inputs": [
        {
          "indexed": false,
          "internalType": "uint256",
          "name": "roundId",
          "type": "uint256"
        },
        {
          "indexed": false,
          "internalType": "uint256",
          "name": "pricePerToken",
          "type": "uint256"
        },
        {
          "indexed": false,
          "internalType": "uint256",
          "name": "hardCap",
          "type": "uint256"
        }
      ],
      "name": "RoundStarted",
      "type": "event"
    },
    {
      "anonymous": false,
      "inputs": [
        {
          "indexed": true,
          "internalType": "address",
          "name": "buyer",
          "type": "address"
        },
        {
          "indexed": false,
          "internalType": "uint256",
          "name": "amount",
          "type": "uint256"
        },
        {
          "indexed": false,
          "internalType": "uint256",
          "name": "cost",
          "type": "uint256"
        },
        {
          "indexed": false,
          "internalType": "uint256",
          "name": "round",
          "type": "uint256"
        }
      ],
      "name": "TokensPurchased",
      "type": "event"
    },
    {
      "anonymous": false,
      "inputs": [
        {
          "indexed": true,
          "internalType": "address",
          "name": "account",
          "type": "address"
        },
        {
          "indexed": false,
          "internalType": "bool",
          "name": "status",
          "type": "bool"
        }
      ],
      "name": "Whitelisted",
      "type": "event"
    },
    {
      "inputs": [
        {
          "internalType": "uint256",
          "name": "tokenAmount",
          "type": "uint256"
        }
      ],
      "name": "buyTokens",
      "outputs": [],
      "stateMutability": "nonpayable",
      "type": "function"
    },
    {
      "inputs": [
        {
          "internalType": "uint256",
          "name": "roundId",
          "type": "uint256"
        }
      ],
      "name": "closeRound",
      "outputs": [],
      "stateMutability": "nonpayable",
      "type": "function"
    },
    {
      "inputs": [],
      "name": "currentRound",
      "outputs": [
        {
          "internalType": "uint256",
          "name": "",
          "type": "uint256"
        }
      ],
      "stateMutability": "view",
      "type": "function"
    },
    {
      "inputs": [],
      "name": "owner",
      "outputs": [
        {
          "internalType": "address",
          "name": "",
          "type": "address"
        }
      ],
      "stateMutability": "view",
      "type": "function"
    },
    {
      "inputs": [],
      "name": "paymentToken",
      "outputs": [
        {
          "internalType": "contract IERC20",
          "name": "",
          "type": "address"
        }
      ],
      "stateMutability": "view",
      "type": "function"
    },
    {
      "inputs": [],
      "name": "renounceOwnership",
      "outputs": [],
      "stateMutability": "nonpayable",
      "type": "function"
    },
    {
      "inputs": [
        {
          "internalType": "uint256",
          "name": "",
          "type": "uint256"
        }
      ],
      "name": "rounds",
      "outputs": [
        {
          "internalType": "uint256",
          "name": "pricePerToken",
          "type": "uint256"
        },
        {
          "internalType": "uint256",
          "name": "hardCap",
          "type": "uint256"
        },
        {
          "internalType": "uint256",
          "name": "tokensSold",
          "type": "uint256"
        },
        {
          "internalType": "bool",
          "name": "isActive",
          "type": "bool"
        }
      ],
      "stateMutability": "view",
      "type": "function"
    },
    {
      "inputs": [
        {
          "internalType": "address[]",
          "name": "accounts",
          "type": "address[]"
        },
        {
          "internalType": "bool",
          "name": "status",
          "type": "bool"
        }
      ],
      "name": "setWhitelist",
      "outputs": [],
      "stateMutability": "nonpayable",
      "type": "function"
    },
    {
      "inputs": [
        {
          "internalType": "uint256",
          "name": "pricePerToken",
          "type": "uint256"
        },
        {
          "internalType": "uint256",
          "name": "hardCap",
          "type": "uint256"
        }
      ],
      "name": "startRound",
      "outputs": [],
      "stateMutability": "nonpayable",
      "type": "function"
    },
    {
      "inputs": [],
      "name": "token",
      "outputs": [
        {
          "internalType": "contract IERC20",
          "name": "",
          "type": "address"
        }
      ],
      "stateMutability": "view",
      "type": "function"
    },
    {
      "inputs": [
        {
          "internalType": "address",
          "name": "newOwner",
          "type": "address"
        }
      ],
      "name": "transferOwnership",
      "outputs": [],
      "stateMutability": "nonpayable",
      "type": "function"
    },
    {
      "inputs": [
        {
          "internalType": "address",
          "name": "",
          "type": "address"
        }
      ],
      "name": "whitelist",
      "outputs": [
        {
          "internalType": "bool",
          "name": "",
          "type": "bool"
        }
      ],
      "stateMutability": "view",
      "type": "function"
    }
  ],
  "bytecode": "0x60c060405234801561001057600080fd5b50604051610cbf380380610cbf83398101604081905261002f916100cc565b61003833610060565b600180556001600160a01b03808316608052811660a05261005883610060565b50505061010f565b600080546001600160a01b038381166001600160a01b0319831681178455604051919092169283917f8be0079c531659141344cd1fd0a4f28419497f9722a3daafe3b4186f6b6457e09190a35050565b80516001600160a01b03811681146100c757600080fd5b919050565b6000806000606084860312156100e157600080fd5b6100ea846100b0565b92506100f8602085016100b0565b9150610106604085016100b0565b90509250925092565b60805160a051610b7e6101416000396000818160be015261039801526000818161022201526104a10152610b7e6000f3fe608060405234801561001057600080fd5b50600436106100b45760003560e01c80638c65c81f116100715780638c65c81f146101575780638da5cb5b146101b35780639b19251a146101c4578063c3964372146101f7578063f2fde38b1461020a578063fc0c546a1461021d57600080fd5b80633013ce29146100b95780633610724e146100fd5780633c271a0514610112578063715018a61461012557806388e01a981461012d5780638a19c8bc14610140575b600080fd5b6100e07f000000000000000000000000000000000000000000000000000000000000000081565b6040516001600160a01b0390911681526020015b60405180910390f35b61011061010b366004610995565b610244565b005b6101106101203660046109bc565b6105af565b610110610697565b61011061013b366004610995565b6106ab565b61014960035481565b6040519081526020016100f4565b610191610165366004610995565b600260208190526000918252604090912080546001820154928201546003909201549092919060ff1684565b60408051948552602085019390935291830152151560608201526080016100f4565b6000546001600160a01b03166100e0565b6101e76101d2366004610a42565b60046020526000908152604090205460ff1681565b60405190151581526020016100f4565b610110610205366004610a72565b61075d565b610110610218366004610a42565b61081c565b6100e07f000000000000000000000000000000000000000000000000000000000000000081565b61024c610892565b6003805460009081526002602052604090209081015460ff166102a95760405162461bcd60e51b815260206004820152601060248201526f524f554e445f4e4f545f41435449564560801b60448201526064015b60405180910390fd5b3360009081526004602052604090205460ff166102fa5760405162461bcd60e51b815260206004820152600f60248201526e1393d517d5d2125511531254d51151608a1b60448201526064016102a0565b806001015482826002015461030f9190610aaa565b11156103505760405162461bcd60e51b815260206004820152601060248201526f1210549117d0d05417d4915050d2115160821b60448201526064016102a0565b8054600090670de0b6b3a7640000906103699085610ac3565b6103739190610ada565b9050828260020160008282546103899190610aaa565b90915550506001600160a01b037f0000000000000000000000000000000000000000000000000000000000000000166323b872dd336103d06000546001600160a01b031690565b6040516001600160e01b031960e085901b1681526001600160a01b03928316600482015291166024820152604481018490526064016020604051808303816000875af1158015610424573d6000803e3d6000fd5b505050506040513d601f19601f820116820180604052508101906104489190610afc565b6104855760405162461bcd60e51b815260206004820152600e60248201526d1410565351539517d1905253115160921b60448201526064016102a0565b60405163a9059cbb60e01b8152336004820152602481018490527f00000000000000000000000000000000000000000000000000000000000000006001600160a01b03169063a9059cbb906044016020604051808303816000875af11580156104f2573d6000803e3d6000fd5b505050506040513d601f19601f820116820180604052508101906105169190610afc565b61055a5760405162461bcd60e51b81526020600482015260156024820152741513d2d15397d514905394d1915497d19052531151605a1b60448201526064016102a0565b60035460408051858152602081018490529081019190915233907f0d1a0d5e3d583a0e92588799dd06e50fd78c07daf05f0cc06d7b848b1ca445f19060600160405180910390a250506105ac60018055565b50565b6105b76108eb565b60005b828110156106915781600460008686858181106105d9576105d9610b19565b90506020020160208101906105ee9190610a42565b6001600160a01b031681526020810191909152604001600020805460ff191691151591909117905583838281811061062857610628610b19565b905060200201602081019061063d9190610a42565b6001600160a01b03167fa54714518c5d275fdcd3d2a461e4858e4e8cb04fb93cd0bca9d6d34115f2644083604051610679911515815260200190565b60405180910390a261068a81610b2f565b90506105ba565b50505050565b61069f6108eb565b6106a96000610945565b565b6106b36108eb565b60008181526002602052604090206003015460ff166107075760405162461bcd60e51b815260206004820152601060248201526f524f554e445f4e4f545f41435449564560801b60448201526064016102a0565b60008181526002602052604090819020600301805460ff19169055517fe9f7d7fd0b133404f0ccff737d6f3594748e04bc5507adfaed35835ef9893711906107529083815260200190565b60405180910390a150565b6107656108eb565b6003805490600061077583610b2f565b90915550506040805160808101825283815260208082018481526000838501818152600160608087018281526003805486526002808952958a9020985189559551928801929092559151928601929092559051938201805460ff1916941515949094179093555483519081529081018590529182018390527fa359b664a68acd8839e42112eb50eff3408165e15074fde89ddb58a0db2e691d910160405180910390a15050565b6108246108eb565b6001600160a01b0381166108895760405162461bcd60e51b815260206004820152602660248201527f4f776e61626c653a206e6577206f776e657220697320746865207a65726f206160448201526564647265737360d01b60648201526084016102a0565b6105ac81610945565b6002600154036108e45760405162461bcd60e51b815260206004820152601f60248201527f5265656e7472616e637947756172643a207265656e7472616e742063616c6c0060448201526064016102a0565b6002600155565b6000546001600160a01b031633146106a95760405162461bcd60e51b815260206004820181905260248201527f4f776e61626c653a2063616c6c6572206973206e6f7420746865206f776e657260448201526064016102a0565b600080546001600160a01b038381166001600160a01b0319831681178455604051919092169283917f8be0079c531659141344cd1fd0a4f28419497f9722a3daafe3b4186f6b6457e09190a35050565b6000602082840312156109a757600080fd5b5035919050565b80151581146105ac57600080fd5b6000806000604084860312156109d157600080fd5b833567ffffffffffffffff808211156109e957600080fd5b818601915086601f8301126109fd57600080fd5b813581811115610a0c57600080fd5b8760208260051b8501011115610a2157600080fd5b60209283019550935050840135610a37816109ae565b809150509250925092565b600060208284031215610a5457600080fd5b81356001600160a01b0381168114610a6b57600080fd5b9392505050565b60008060408385031215610a8557600080fd5b50508035926020909101359150565b634e487b7160e01b600052601160045260246000fd5b80820180821115610abd57610abd610a94565b92915050565b8082028115828204841417610abd57610abd610a94565b600082610af757634e487b7160e01b600052601260045260246000fd5b500490565b600060208284031215610b0e57600080fd5b8151610a6b816109ae565b634e487b7160e01b600052603260045260246000fd5b600060018201610b4157610b41610a94565b506001019056fea26469706673582212209503a608abfee9d6dc4f66bd3d15bd366947f8f01c277c94a05ce0acde0dc53a64736f6c63430008140033",
  "linkReferences": {},
  "deployedLinkReferences": {}
}