{
  "_format": "hh-sol-artifact-1",
  "contractName": "TEAToken",
  "sourceName": "contracts/TEAToken.sol",
  "abi": [
    {
      "inputs": [
        {
          "internalType": "uint256",
          "name": "cap",
          "type": "uint256"
        }
      ],
      "stateMutability": "nonpayable",
      "type": "constructor"
    },
    {
      "inputs": [],
      "name": "InvalidShortString",
      "type": "error"
    },
    {
      "inputs": [
        {
          "internalType": "string",
          "name": "str",
          "type": "string"
        }
      ],
      "name": "StringTooLong",
      "type": "error"
    },
    {
      "anonymous": false,
      "inputs": [
        {
          "indexed": true,
          "internalType": "address",
          "name": "owner",
          "type": "address"
        },
        {
          "indexed": true,
          "internalType": "address",
          "name": "spender",
          "type": "address"
        },
        {
          "indexed": false,
          "internalType": "uint256",
          "name": "value",
          "type": "uint256"
        }
      ],
      "name": "Approval",
      "type": "event"
    },
    {
      "anonymous": false,
      "inputs": [
        {
          "indexed": true,
          "internalType": "address",
          "name": "delegator",
          "type": "address"
        },
        {
          "indexed": true,
          "internalType": "address",
          "name": "fromDelegate",
          "type": "address"
        },
        {
          "indexed": true,
          "internalType": "address",
          "name": "toDelegate",
          "type": "address"
        }
      ],
      "name": "DelegateChanged",
      "type": "event"
    },
    {
      "anonymous": false,
      "inputs": [
        {
          "indexed": true,
          "internalType": "address",
          "name": "delegate",
          "type": "address"
        },
        {
          "indexed": false,
          "internalType": "uint256",
          "name": "previousBalance",
          "type": "uint256"
        },
        {
          "indexed": false,
          "internalType": "uint256",
          "name": "newBalance",
          "type": "uint256"
        }
      ],
      "name": "DelegateVotesChanged",
      "type": "event"
    },
    {
      "anonymous": false,
      "inputs": [],
      "name": "EIP712DomainChanged",
      "type": "event"
    },
    {
      "anonymous": false,
      "inputs": [
        {
          "indexed": true,
          "internalType": "address",
          "name": "previousOwner",
          "type": "address"
        },
        {
          "indexed": true,
          "internalType": "address",
          "name": "newOwner",
          "type": "address"
        }
      ],
      "name": "OwnershipTransferred",
      "type": "event"
    },
    {
      "anonymous": false,
      "inputs": [
        {
          "indexed": false,
          "internalType": "address",
          "name": "account",
          "type": "address"
        }
      ],
      "name": "Paused",
      "type": "event"
    },
    {
      "anonymous": false,
      "inputs": [
        {
          "indexed": true,
          "internalType": "address",
          "name": "from",
          "type": "address"
        },
        {
          "indexed": true,
          "internalType": "address",
          "name": "to",
          "type": "address"
        },
        {
          "indexed": false,
          "internalType": "uint256",
          "name": "value",
          "type": "uint256"
        }
      ],
      "name": "Transfer",
      "type": "event"
    },
    {
      "anonymous": false,
      "inputs": [
        {
          "indexed": false,
          "internalType": "address",
          "name": "account",
          "type": "address"
        }
      ],
      "name": "Unpaused",
      "type": "event"
    },
    {
      "inputs": [],
      "name": "CLOCK_MODE",
      "outputs": [
        {
          "internalType": "string",
          "name": "",
          "type": "string"
        }
      ],
      "stateMutability": "view",
      "type": "function"
    },
    {
      "inputs": [],
      "name": "DOMAIN_SEPARATOR",
      "outputs": [
        {
          "internalType": "bytes32",
          "name": "",
          "type": "bytes32"
        }
      ],
      "stateMutability": "view",
      "type": "function"
    },
    {
      "inputs": [
        {
          "internalType": "address",
          "name": "owner",
          "type": "address"
        },
        {
          "internalType": "address",
          "name": "spender",
          "type": "address"
        }
      ],
      "name": "allowance",
      "outputs": [
        {
          "internalType": "uint256",
          "name": "",
          "type": "uint256"
        }
      ],
      "stateMutability": "view",
      "type": "function"
    },
    {
      "inputs": [
        {
          "internalType": "address",
          "name": "spender",
          "type": "address"
        },
        {
          "internalType": "uint256",
          "name": "amount",
          "type": "uint256"
        }
      ],
      "name": "approve",
      "outputs": [
        {
          "internalType": "bool",
          "name": "",
          "type": "bool"
        }
      ],
      "stateMutability": "nonpayable",
      "type": "function"
    },
    {
      "inputs": [
        {
          "internalType": "address",
          "name": "account",
          "type": "address"
        }
      ],
      "name": "balanceOf",
      "outputs": [
        {
          "internalType": "uint256",
          "name": "",
          "type": "uint256"
        }
      ],
      "stateMutability": "view",
      "type": "function"
    },
    {
      "inputs": [
        {
          "internalType": "uint256",
          "name": "amount",
          "type": "uint256"
        }
      ],
      "name": "burn",
      "outputs": [],
      "stateMutability": "nonpayable",
      "type": "function"
    },
    {
      "inputs": [],
      "name": "cap",
      "outputs": [
        {
          "internalType": "uint256",
          "name": "",
          "type": "uint256"
        }
      ],
      "stateMutability": "view",
      "type": "function"
    },
    {
      "inputs": [
        {
          "internalType": "address",
          "name": "account",
          "type": "address"
        },
        {
          "internalType": "uint32",
          "name": "pos",
          "type": "uint32"
        }
      ],
      "name": "checkpoints",
      "outputs": [
        {
          "components": [
            {
              "internalType": "uint32",
              "name": "fromBlock",
              "type": "uint32"
            },
            {
              "internalType": "uint224",
              "name": "votes",
              "type": "uint224"
            }
          ],
          "internalType": "struct ERC20Votes.Checkpoint",
          "name": "",
          "type": "tuple"
        }
      ],
      "stateMutability": "view",
      "type": "function"
    },
    {
      "inputs": [],
      "name": "clock",
      "outputs": [
        {
          "internalType": "uint48",
          "name": "",
          "type": "uint48"
        }
      ],
      "stateMutability": "view",
      "type": "function"
    },
    {
      "inputs": [],
      "name": "decimals",
      "outputs": [
        {
          "internalType": "uint8",
          "name": "",
          "type": "uint8"
        }
      ],
      "stateMutability": "view",
      "type": "function"
    },
    {
      "inputs": [
        {
          "internalType": "address",
          "name": "spender",
          "type": "address"
        },
        {
          "internalType": "uint256",
          "name": "subtractedValue",
          "type": "uint256"
        }
      ],
      "name": "decreaseAllowance",
      "outputs": [
        {
          "internalType": "bool",
          "name": "",
          "type": "bool"
        }
      ],
      "stateMutability": "nonpayable",
      "type": "function"
    },
    {
      "inputs": [
        {
          "internalType": "address",
          "name": "delegatee",
          "type": "address"
        }
      ],
      "name": "delegate",
      "outputs": [],
      "stateMutability": "nonpayable",
      "type": "function"
    },
    {
      "inputs": [
        {
          "internalType": "address",
          "name": "delegatee",
          "type": "address"
        },
        {
          "internalType": "uint256",
          "name": "nonce",
          "type": "uint256"
        },
        {
          "internalType": "uint256",
          "name": "expiry",
          "type": "uint256"
        },
        {
          "internalType": "uint8",
          "name": "v",
          "type": "uint8"
        },
        {
          "internalType": "bytes32",
          "name": "r",
          "type": "bytes32"
        },
        {
          "internalType": "bytes32",
          "name": "s",
          "type": "bytes32"
        }
      ],
      "name": "delegateBySig",
      "outputs": [],
      "stateMutability": "nonpayable",
      "type": "function"
    },
    {
      "inputs": [
        {
          "internalType": "address",
          "name": "account",
          "type": "address"
        }
      ],
      "name": "delegates",
      "outputs": [
        {
          "internalType": "address",
          "name": "",
          "type": "address"
        }
      ],
      "stateMutability": "view",
      "type": "function"
    },
    {
      "inputs": [],
      "name": "eip712Domain",
      "outputs": [
        {
          "internalType": "bytes1",
          "name": "fields",
          "type": "bytes1"
        },
        {
          "internalType": "string",
          "name": "name",
          "type": "string"
        },
        {
          "internalType": "string",
          "name": "version",
          "type": "string"
        },
        {
          "internalType": "uint256",
          "name": "chainId",
          "type": "uint256"
        },
        {
          "internalType": "address",
          "name": "verifyingContract",
          "type": "address"
        },
        {
          "internalType": "bytes32",
          "name": "salt",
          "type": "bytes32"
        },
        {
          "internalType": "uint256[]",
          "name": "extensions",
          "type": "uint256[]"
        }
      ],
      "stateMutability": "view",
      "type": "function"
    },
    {
      "inputs": [
        {
          "internalType": "uint256",
          "name": "timepoint",
          "type": "uint256"
        }
      ],
      "name": "getPastTotalSupply",
      "outputs": [
        {
          "internalType": "uint256",
          "name": "",
          "type": "uint256"
        }
      ],
      "stateMutability": "view",
      "type": "function"
    },
    {
      "inputs": [
        {
          "internalType": "address",
          "name": "account",
          "type": "address"
        },
        {
          "internalType": "uint256",
          "name": "timepoint",
          "type": "uint256"
        }
      ],
      "name": "getPastVotes",
      "outputs": [
        {
          "internalType": "uint256",
          "name": "",
          "type": "uint256"
        }
      ],
      "stateMutability": "view",
      "type": "function"
    },
    {
      "inputs": [
        {
          "internalType": "address",
          "name": "account",
          "type": "address"
        }
      ],
      "name": "getVotes",
      "outputs": [
        {
          "internalType": "uint256",
          "name": "",
          "type": "uint256"
        }
      ],
      "stateMutability": "view",
      "type": "function"
    },
    {
      "inputs": [
        {
          "internalType": "address",
          "name": "spender",
          "type": "address"
        },
        {
          "internalType": "uint256",
          "name": "addedValue",
          "type": "uint256"
        }
      ],
      "name": "increaseAllowance",
      "outputs": [
        {
          "internalType": "bool",
          "name": "",
          "type": "bool"
        }
      ],
      "stateMutability": "nonpayable",
      "type": "function"
    },
    {
      "inputs": [
        {
          "internalType": "address",
          "name": "to",
          "type": "address"
        },
        {
          "internalType": "uint256",
          "name": "amount",
          "type": "uint256"
        }
      ],
      "name": "mint",
      "outputs": [],
      "stateMutability": "nonpayable",
      "type": "function"
    },
    {
      "inputs": [],
      "name": "name",
      "outputs": [
        {
          "internalType": "string",
          "name": "",
          "type": "string"
        }
      ],
      "stateMutability": "view",
      "type": "function"
    },
    {
      "inputs": [
        {
          "internalType": "address",
          "name": "owner",
          "type": "address"
        }
      ],
      "name": "nonces",
      "outputs": [
        {
          "internalType": "uint256",
          "name": "",
          "type": "uint256"
        }
      ],
      "stateMutability": "view",
      "type": "function"
    },
    {
      "inputs": [
        {
          "internalType": "address",
          "name": "account",
          "type": "address"
        }
      ],
      "name": "numCheckpoints",
      "outputs": [
        {
          "internalType": "uint32",
          "name": "",
          "type": "uint32"
        }
      ],
      "stateMutability": "view",
      "type": "function"
    },
    {
      "inputs": [],
      "name": "owner",
      "outputs": [
        {
          "internalType": "address",
          "name": "",
          "type": "address"
        }
      ],
      "stateMutability": "view",
      "type": "function"
    },
    {
      "inputs": [],
      "name": "pause",
      "outputs": [],
      "stateMutability": "nonpayable",
      "type": "function"
    },
    {
      "inputs": [],
      "name": "paused",
      "outputs": [
        {
          "internalType": "bool",
          "name": "",
          "type": "bool"
        }
      ],
      "stateMutability": "view",
      "type": "function"
    },
    {
      "inputs": [
        {
          "internalType": "address",
          "name": "owner",
          "type": "address"
        },
        {
          "internalType": "address",
          "name": "spender",
          "type": "address"
        },
        {
          "internalType": "uint256",
          "name": "value",
          "type": "uint256"
        },
        {
          "internalType": "uint256",
          "name": "deadline",
          "type": "uint256"
        },
        {
          "internalType": "uint8",
          "name": "v",
          "type": "uint8"
        },
        {
          "internalType": "bytes32",
          "name": "r",
          "type": "bytes32"
        },
        {
          "internalType": "bytes32",
          "name": "s",
          "type": "bytes32"
        }
      ],
      "name": "permit",
      "outputs": [],
      "stateMutability": "nonpayable",
      "type": "function"
    },
    {
      "inputs": [],
      "name": "renounceOwnership",
      "outputs": [],
      "stateMutability": "nonpayable",
      "type": "function"
    },
    {
      "inputs": [],
      "name": "symbol",
      "outputs": [
        {
          "internalType": "string",
          "name": "",
          "type": "string"
        }
      ],
      "stateMutability": "view",
      "type": "function"
    },
    {
      "inputs": [],
      "name": "totalSupply",
      "outputs": [
        {
          "internalType": "uint256",
          "name": "",
          "type": "uint256"
        }
      ],
      "stateMutability": "view",
      "type": "function"
    },
    {
      "inputs": [
        {
          "internalType": "address",
          "name": "to",
          "type": "address"
        },
        {
          "internalType": "uint256",
          "name": "amount",
          "type": "uint256"
        }
      ],
      "name": "transfer",
      "outputs": [
        {
          "internalType": "bool",
          "name": "",
          "type": "bool"
        }
      ],
      "stateMutability": "nonpayable",
      "type": "function"
    },
    {
      "inputs": [
        {
          "internalType": "address",
          "name": "from",
          "type": "address"
        },
        {
          "internalType": "address",
          "name": "to",
          "type": "address"
        },
        {
          "internalType": "uint256",
          "name": "amount",
          "type": "uint256"
        }
      ],
      "name": "transferFrom",
      "outputs": [
        {
          "internalType": "bool",
          "name": "",
          "type": "bool"
        }
      ],
      "stateMutability": "nonpayable",
      "type": "function"
    },
    {
      "inputs": [
        {
          "internalType": "address",
          "name": "newOwner",
          "type": "address"
        }
      ],
      "name": "transferOwnership",
      "outputs": [],
      "stateMutability": "nonpayable",
      "type": "function"
    },
    {
      "inputs": [],
      "name": "unpause",
      "outputs": [],
      "stateMutability": "nonpayable",
      "type": "function"
    }
  ],
  "bytecode": "0x6101806040523480156200001257600080fd5b5060405162002c6238038062002c628339810160408190526200003591620002d3565b80604051806040016040528060088152602001672a22a0aa37b5b2b760c11b81525080604051806040016040528060018152602001603160f81b815250604051806040016040528060088152602001672a22a0aa37b5b2b760c11b8152506040518060400160405280600381526020016254454160e81b8152508160039081620000c0919062000392565b506004620000cf828262000392565b50620000e191508390506005620001fd565b61012052620000f2816006620001fd565b61014052815160208084019190912060e052815190820120610100524660a0526200018060e05161010051604080517f8b73c3c69bb8fe3d512ecc4cf759cc79239f7b179b0ffacaa9a75d522b39400f60208201529081019290925260608201524660808201523060a082015260009060c00160405160208183030381529060405280519060200120905090565b60805250503060c05250600c805460ff1916905580620001e75760405162461bcd60e51b815260206004820152601560248201527f45524332304361707065643a206361702069732030000000000000000000000060448201526064015b60405180910390fd5b61016052620001f63362000236565b50620004d3565b60006020835110156200021d57620002158362000290565b905062000230565b816200022a848262000392565b5060ff90505b92915050565b600c80546001600160a01b03838116610100818102610100600160a81b031985161790945560405193909204169182907f8be0079c531659141344cd1fd0a4f28419497f9722a3daafe3b4186f6b6457e090600090a35050565b600080829050601f81511115620002be578260405163305a27a960e01b8152600401620001de91906200045e565b8051620002cb82620004ae565b179392505050565b600060208284031215620002e657600080fd5b5051919050565b634e487b7160e01b600052604160045260246000fd5b600181811c908216806200031857607f821691505b6020821081036200033957634e487b7160e01b600052602260045260246000fd5b50919050565b601f8211156200038d57600081815260208120601f850160051c81016020861015620003685750805b601f850160051c820191505b81811015620003895782815560010162000374565b5050505b505050565b81516001600160401b03811115620003ae57620003ae620002ed565b620003c681620003bf845462000303565b846200033f565b602080601f831160018114620003fe5760008415620003e55750858301515b600019600386901b1c1916600185901b17855562000389565b600085815260208120601f198616915b828110156200042f578886015182559484019460019091019084016200040e565b50858210156200044e5787850151600019600388901b60f8161c191681555b5050505050600190811b01905550565b600060208083528351808285015260005b818110156200048d578581018301518582016040015282016200046f565b506000604082860101526040601f19601f8301168501019250505092915050565b80516020808301519190811015620003395760001960209190910360031b1b16919050565b60805160a05160c05160e05161010051610120516101405161016051612722620005406000396000818161028201526118b8015260006108750152600061084a0152600061123d01526000611215015260006111700152600061119a015260006111c401526127226000f3fe608060405234801561001057600080fd5b50600436106102065760003560e01c806370a082311161011a57806395d89b41116100ad578063c3cda5201161007c578063c3cda52014610486578063d505accf14610499578063dd62ed3e146104ac578063f1127ed8146104bf578063f2fde38b146104fc57600080fd5b806395d89b41146104455780639ab24eb01461044d578063a457c2d714610460578063a9059cbb1461047357600080fd5b806384b0196e116100e957806384b0196e146103e25780638da5cb5b146103fd5780638e539e8c1461041357806391ddadf41461042657600080fd5b806370a0823114610396578063715018a6146103bf5780637ecebe00146103c75780638456cb59146103da57600080fd5b80633a46b1a81161019d5780634bf5d7e91161016c5780634bf5d7e914610304578063587cde1e1461030c5780635c19a95c146103505780635c975abb146103635780636fcfff451461036e57600080fd5b80633a46b1a8146102c15780633f4ba83a146102d457806340c10f19146102de57806342966c68146102f157600080fd5b8063313ce567116101d9578063313ce56714610271578063355274ea146102805780633644e515146102a657806339509351146102ae57600080fd5b806306fdde031461020b578063095ea7b31461022957806318160ddd1461024c57806323b872dd1461025e575b600080fd5b61021361050f565b6040516102209190612373565b60405180910390f35b61023c6102373660046123a2565b6105a1565b6040519015158152602001610220565b6002545b604051908152602001610220565b61023c61026c3660046123cc565b6105bb565b60405160128152602001610220565b7f0000000000000000000000000000000000000000000000000000000000000000610250565b6102506105df565b61023c6102bc3660046123a2565b6105ee565b6102506102cf3660046123a2565b610610565b6102dc61069a565b005b6102dc6102ec3660046123a2565b6106ac565b6102dc6102ff366004612408565b6106c2565b6102136106cf565b61033861031a366004612421565b6001600160a01b039081166000908152600960205260409020541690565b6040516001600160a01b039091168152602001610220565b6102dc61035e366004612421565b610767565b600c5460ff1661023c565b61038161037c366004612421565b6107da565b60405163ffffffff9091168152602001610220565b6102506103a4366004612421565b6001600160a01b031660009081526020819052604090205490565b6102dc6107fc565b6102506103d5366004612421565b61080e565b6102dc61082c565b6103ea61083c565b604051610220979695949392919061243c565b600c5461010090046001600160a01b0316610338565b610250610421366004612408565b6108c5565b61042e61092c565b60405165ffffffffffff9091168152602001610220565b610213610937565b61025061045b366004612421565b610946565b61023c61046e3660046123a2565b6109c8565b61023c6104813660046123a2565b610a43565b6102dc6104943660046124e3565b610a51565b6102dc6104a736600461253b565b610b87565b6102506104ba3660046125a5565b610ceb565b6104d26104cd3660046125d8565b610d16565b60408051825163ffffffff1681526020928301516001600160e01b03169281019290925201610220565b6102dc61050a366004612421565b610d9a565b60606003805461051e90612618565b80601f016020809104026020016040519081016040528092919081815260200182805461054a90612618565b80156105975780601f1061056c57610100808354040283529160200191610597565b820191906000526020600020905b81548152906001019060200180831161057a57829003601f168201915b5050505050905090565b6000336105af818585610e10565b60019150505b92915050565b6000336105c9858285610f34565b6105d4858585610fae565b506001949350505050565b60006105e9611163565b905090565b6000336105af8185856106018383610ceb565b61060b9190612662565b610e10565b600061061a61092c565b65ffffffffffff1682106106715760405162461bcd60e51b815260206004820152601960248201527804552433230566f7465733a20667574757265206c6f6f6b757603c1b60448201526064015b60405180910390fd5b6001600160a01b0383166000908152600a60205260409020610693908361128e565b9392505050565b6106a2611377565b6106aa6113d7565b565b6106b4611377565b6106be8282611429565b5050565b6106cc3382611433565b50565b6060436106da61092c565b65ffffffffffff161461072f5760405162461bcd60e51b815260206004820152601d60248201527f4552433230566f7465733a2062726f6b656e20636c6f636b206d6f64650000006044820152606401610668565b5060408051808201909152601d81527f6d6f64653d626c6f636b6e756d6265722666726f6d3d64656661756c74000000602082015290565b6001600160a01b0381166107d15760405162461bcd60e51b815260206004820152602b60248201527f4552433230566f7465733a2063616e6e6f742064656c656761746520746f207a60448201526a65726f206164647265737360a81b6064820152608401610668565b6106cc8161143d565b6001600160a01b0381166000908152600a60205260408120546105b590611447565b610804611377565b6106aa60006114b0565b6001600160a01b0381166000908152600760205260408120546105b5565b610834611377565b6106aa61150a565b6000606080828080836108707f00000000000000000000000000000000000000000000000000000000000000006005611547565b61089b7f00000000000000000000000000000000000000000000000000000000000000006006611547565b60408051600080825260208201909252600f60f81b9b939a50919850469750309650945092509050565b60006108cf61092c565b65ffffffffffff1682106109215760405162461bcd60e51b815260206004820152601960248201527804552433230566f7465733a20667574757265206c6f6f6b757603c1b6044820152606401610668565b6105b5600b8361128e565b60006105e9436115f2565b60606004805461051e90612618565b6001600160a01b0381166000908152600a602052604081205480156109b5576001600160a01b0383166000908152600a602052604090208054600019830190811061099357610993612675565b60009182526020909120015464010000000090046001600160e01b03166109b8565b60005b6001600160e01b03169392505050565b600033816109d68286610ceb565b905083811015610a365760405162461bcd60e51b815260206004820152602560248201527f45524332303a2064656372656173656420616c6c6f77616e63652062656c6f77604482015264207a65726f60d81b6064820152608401610668565b6105d48286868403610e10565b6000336105af818585610fae565b83421115610aa15760405162461bcd60e51b815260206004820152601d60248201527f4552433230566f7465733a207369676e617475726520657870697265640000006044820152606401610668565b604080517fe48329057bfd03d55e49b547132e39cffd9c1820ad7b9d4c5307691425d15adf60208201526001600160a01b038816918101919091526060810186905260808101859052600090610b1b90610b139060a00160405160208183030381529060405280519060200120611659565b858585611686565b9050610b26816116ae565b8614610b745760405162461bcd60e51b815260206004820152601960248201527f4552433230566f7465733a20696e76616c6964206e6f6e6365000000000000006044820152606401610668565b610b7e81886116d6565b50505050505050565b83421115610bd75760405162461bcd60e51b815260206004820152601d60248201527f45524332305065726d69743a206578706972656420646561646c696e650000006044820152606401610668565b60007f6e71edae12b1b97f4d1f60370fef10105fa2faae0126114a169c64845d6126c9888888610c068c6116ae565b6040805160208101969096526001600160a01b0394851690860152929091166060840152608083015260a082015260c0810186905260e0016040516020818303038152906040528051906020012090506000610c6182611659565b90506000610c7182878787611686565b9050896001600160a01b0316816001600160a01b031614610cd45760405162461bcd60e51b815260206004820152601e60248201527f45524332305065726d69743a20696e76616c6964207369676e617475726500006044820152606401610668565b610cdf8a8a8a610e10565b50505050505050505050565b6001600160a01b03918216600090815260016020908152604080832093909416825291909152205490565b60408051808201909152600080825260208201526001600160a01b0383166000908152600a60205260409020805463ffffffff8416908110610d5a57610d5a612675565b60009182526020918290206040805180820190915291015463ffffffff8116825264010000000090046001600160e01b0316918101919091529392505050565b610da2611377565b6001600160a01b038116610e075760405162461bcd60e51b815260206004820152602660248201527f4f776e61626c653a206e6577206f776e657220697320746865207a65726f206160448201526564647265737360d01b6064820152608401610668565b6106cc816114b0565b6001600160a01b038316610e725760405162461bcd60e51b8152602060048201526024808201527f45524332303a20617070726f76652066726f6d20746865207a65726f206164646044820152637265737360e01b6064820152608401610668565b6001600160a01b038216610ed35760405162461bcd60e51b815260206004820152602260248201527f45524332303a20617070726f766520746f20746865207a65726f206164647265604482015261737360f01b6064820152608401610668565b6001600160a01b0383811660008181526001602090815260408083209487168084529482529182902085905590518481527f8c5be1e5ebec7d5bd14f71427d1e84f3dd0314c0f7b2291e5b200ac8c7c3b925910160405180910390a3505050565b6000610f408484610ceb565b90506000198114610fa85781811015610f9b5760405162461bcd60e51b815260206004820152601d60248201527f45524332303a20696e73756666696369656e7420616c6c6f77616e63650000006044820152606401610668565b610fa88484848403610e10565b50505050565b6001600160a01b0383166110125760405162461bcd60e51b815260206004820152602560248201527f45524332303a207472616e736665722066726f6d20746865207a65726f206164604482015264647265737360d81b6064820152608401610668565b6001600160a01b0382166110745760405162461bcd60e51b815260206004820152602360248201527f45524332303a207472616e7366657220746f20746865207a65726f206164647260448201526265737360e81b6064820152608401610668565b61107f83838361174f565b6001600160a01b038316600090815260208190526040902054818110156110f75760405162461bcd60e51b815260206004820152602660248201527f45524332303a207472616e7366657220616d6f756e7420657863656564732062604482015265616c616e636560d01b6064820152608401610668565b6001600160a01b03848116600081815260208181526040808320878703905593871680835291849020805487019055925185815290927fddf252ad1be2c89b69c2b068fc378daa952ba7f163c4a11628f55a4df523b3ef910160405180910390a3610fa884848461175f565b6000306001600160a01b037f0000000000000000000000000000000000000000000000000000000000000000161480156111bc57507f000000000000000000000000000000000000000000000000000000000000000046145b156111e657507f000000000000000000000000000000000000000000000000000000000000000090565b6105e9604080517f8b73c3c69bb8fe3d512ecc4cf759cc79239f7b179b0ffacaa9a75d522b39400f60208201527f0000000000000000000000000000000000000000000000000000000000000000918101919091527f000000000000000000000000000000000000000000000000000000000000000060608201524660808201523060a082015260009060c00160405160208183030381529060405280519060200120905090565b8154600090818160058111156112e85760006112a98461176a565b6112b3908561268b565b600088815260209020909150869082015463ffffffff1611156112d8578091506112e6565b6112e3816001612662565b92505b505b808210156113355760006112fc8383611852565b600088815260209020909150869082015463ffffffff1611156113215780915061132f565b61132c816001612662565b92505b506112e8565b8015611361576000868152602090208101600019015464010000000090046001600160e01b0316611364565b60005b6001600160e01b03169695505050505050565b600c546001600160a01b036101009091041633146106aa5760405162461bcd60e51b815260206004820181905260248201527f4f776e61626c653a2063616c6c6572206973206e6f7420746865206f776e65726044820152606401610668565b6113df61186d565b600c805460ff191690557f5db9ee0a495bf2e6ff9c91a7834c1ba4fdd244a5e8aa4e537bd38aeae4b073aa335b6040516001600160a01b03909116815260200160405180910390a1565b6106be82826118b6565b6106be8282611943565b6106cc33826116d6565b600063ffffffff8211156114ac5760405162461bcd60e51b815260206004820152602660248201527f53616665436173743a2076616c756520646f65736e27742066697420696e203360448201526532206269747360d01b6064820152608401610668565b5090565b600c80546001600160a01b03838116610100818102610100600160a81b031985161790945560405193909204169182907f8be0079c531659141344cd1fd0a4f28419497f9722a3daafe3b4186f6b6457e090600090a35050565b61151261195b565b600c805460ff191660011790557f62e78cea01bee320cd4e420270b5ea74000d11b0c9f74754ebdbfc544b05a25861140c3390565b606060ff83146115615761155a836119a1565b90506105b5565b81805461156d90612618565b80601f016020809104026020016040519081016040528092919081815260200182805461159990612618565b80156115e65780601f106115bb576101008083540402835291602001916115e6565b820191906000526020600020905b8154815290600101906020018083116115c957829003601f168201915b505050505090506105b5565b600065ffffffffffff8211156114ac5760405162461bcd60e51b815260206004820152602660248201527f53616665436173743a2076616c756520646f65736e27742066697420696e203460448201526538206269747360d01b6064820152608401610668565b60006105b5611666611163565b8360405161190160f01b8152600281019290925260228201526042902090565b6000806000611697878787876119e0565b915091506116a481611aa4565b5095945050505050565b6001600160a01b03811660009081526007602052604090208054600181018255905b50919050565b6001600160a01b038281166000818152600960208181526040808420805485845282862054949093528787166001600160a01b03198416811790915590519190951694919391928592917f3134e8a2e6d97e929a7e54011ea5485d7d196dd5f0ba4d4ef95803e8e3fc257f9190a4610fa8828483611bee565b61175a838383611d2b565b505050565b61175a838383611d91565b60008160000361177c57506000919050565b6000600161178984611dc3565b901c6001901b905060018184816117a2576117a261269e565b048201901c905060018184816117ba576117ba61269e565b048201901c905060018184816117d2576117d261269e565b048201901c905060018184816117ea576117ea61269e565b048201901c905060018184816118025761180261269e565b048201901c9050600181848161181a5761181a61269e565b048201901c905060018184816118325761183261269e565b048201901c90506106938182858161184c5761184c61269e565b04611e57565b600061186160028484186126b4565b61069390848416612662565b600c5460ff166106aa5760405162461bcd60e51b815260206004820152601460248201527314185d5cd8589b194e881b9bdd081c185d5cd95960621b6044820152606401610668565b7f0000000000000000000000000000000000000000000000000000000000000000816118e160025490565b6118eb9190612662565b11156119395760405162461bcd60e51b815260206004820152601960248201527f45524332304361707065643a20636170206578636565646564000000000000006044820152606401610668565b6106be8282611e6d565b61194d8282611ef7565b610fa8600b61203c83612048565b600c5460ff16156106aa5760405162461bcd60e51b815260206004820152601060248201526f14185d5cd8589b194e881c185d5cd95960821b6044820152606401610668565b606060006119ae836121bd565b604080516020808252818301909252919250600091906020820181803683375050509182525060208101929092525090565b6000807f7fffffffffffffffffffffffffffffff5d576e7357a4501ddfe92f46681b20a0831115611a175750600090506003611a9b565b6040805160008082526020820180845289905260ff881692820192909252606081018690526080810185905260019060a0016020604051602081039080840390855afa158015611a6b573d6000803e3d6000fd5b5050604051601f1901519150506001600160a01b038116611a9457600060019250925050611a9b565b9150600090505b94509492505050565b6000816004811115611ab857611ab86126d6565b03611ac05750565b6001816004811115611ad457611ad46126d6565b03611b215760405162461bcd60e51b815260206004820152601860248201527f45434453413a20696e76616c6964207369676e617475726500000000000000006044820152606401610668565b6002816004811115611b3557611b356126d6565b03611b825760405162461bcd60e51b815260206004820152601f60248201527f45434453413a20696e76616c6964207369676e6174757265206c656e677468006044820152606401610668565b6003816004811115611b9657611b966126d6565b036106cc5760405162461bcd60e51b815260206004820152602260248201527f45434453413a20696e76616c6964207369676e6174757265202773272076616c604482015261756560f01b6064820152608401610668565b816001600160a01b0316836001600160a01b031614158015611c105750600081115b1561175a576001600160a01b03831615611c9e576001600160a01b0383166000908152600a602052604081208190611c4b9061203c85612048565b91509150846001600160a01b03167fdec2bacdd2f05b59de34da9b523dff8be42e5e38e818c82fdb0bae774387a7248383604051611c93929190918252602082015260400190565b60405180910390a250505b6001600160a01b0382161561175a576001600160a01b0382166000908152600a602052604081208190611cd4906121e585612048565b91509150836001600160a01b03167fdec2bacdd2f05b59de34da9b523dff8be42e5e38e818c82fdb0bae774387a7248383604051611d1c929190918252602082015260400190565b60405180910390a25050505050565b600c5460ff161561175a5760405162461bcd60e51b815260206004820152602a60248201527f45524332305061757361626c653a20746f6b656e207472616e736665722077686044820152691a5b19481c185d5cd95960b21b6064820152608401610668565b6001600160a01b0383811660009081526009602052604080822054858416835291205461175a92918216911683611bee565b600080608083901c15611dd857608092831c92015b604083901c15611dea57604092831c92015b602083901c15611dfc57602092831c92015b601083901c15611e0e57601092831c92015b600883901c15611e2057600892831c92015b600483901c15611e3257600492831c92015b600283901c15611e4457600292831c92015b600183901c156105b55760010192915050565b6000818310611e665781610693565b5090919050565b611e7782826121f1565b6002546001600160e01b031015611ee95760405162461bcd60e51b815260206004820152603060248201527f4552433230566f7465733a20746f74616c20737570706c79207269736b73206f60448201526f766572666c6f77696e6720766f74657360801b6064820152608401610668565b610fa8600b6121e583612048565b6001600160a01b038216611f575760405162461bcd60e51b815260206004820152602160248201527f45524332303a206275726e2066726f6d20746865207a65726f206164647265736044820152607360f81b6064820152608401610668565b611f638260008361174f565b6001600160a01b03821660009081526020819052604090205481811015611fd75760405162461bcd60e51b815260206004820152602260248201527f45524332303a206275726e20616d6f756e7420657863656564732062616c616e604482015261636560f01b6064820152608401610668565b6001600160a01b0383166000818152602081815260408083208686039055600280548790039055518581529192917fddf252ad1be2c89b69c2b068fc378daa952ba7f163c4a11628f55a4df523b3ef910160405180910390a361175a8360008461175f565b6000610693828461268b565b825460009081908181156120955760008781526020902082016000190160408051808201909152905463ffffffff8116825264010000000090046001600160e01b031660208201526120aa565b60408051808201909152600080825260208201525b905080602001516001600160e01b031693506120ca84868863ffffffff16565b92506000821180156120f457506120df61092c565b65ffffffffffff16816000015163ffffffff16145b1561213957612102836122c4565b60008881526020902083016000190180546001600160e01b03929092166401000000000263ffffffff9092169190911790556121b3565b86604051806040016040528061215d61215061092c565b65ffffffffffff16611447565b63ffffffff168152602001612171866122c4565b6001600160e01b0390811690915282546001810184556000938452602093849020835194909301519091166401000000000263ffffffff909316929092179101555b5050935093915050565b600060ff8216601f8111156105b557604051632cd44ac360e21b815260040160405180910390fd5b60006106938284612662565b6001600160a01b0382166122475760405162461bcd60e51b815260206004820152601f60248201527f45524332303a206d696e7420746f20746865207a65726f2061646472657373006044820152606401610668565b6122536000838361174f565b80600260008282546122659190612662565b90915550506001600160a01b038216600081815260208181526040808320805486019055518481527fddf252ad1be2c89b69c2b068fc378daa952ba7f163c4a11628f55a4df523b3ef910160405180910390a36106be6000838361175f565b60006001600160e01b038211156114ac5760405162461bcd60e51b815260206004820152602760248201527f53616665436173743a2076616c756520646f65736e27742066697420696e20326044820152663234206269747360c81b6064820152608401610668565b6000815180845260005b8181101561235357602081850181015186830182015201612337565b506000602082860101526020601f19601f83011685010191505092915050565b602081526000610693602083018461232d565b80356001600160a01b038116811461239d57600080fd5b919050565b600080604083850312156123b557600080fd5b6123be83612386565b946020939093013593505050565b6000806000606084860312156123e157600080fd5b6123ea84612386565b92506123f860208501612386565b9150604084013590509250925092565b60006020828403121561241a57600080fd5b5035919050565b60006020828403121561243357600080fd5b61069382612386565b60ff60f81b881681526000602060e08184015261245c60e084018a61232d565b838103604085015261246e818a61232d565b606085018990526001600160a01b038816608086015260a0850187905284810360c0860152855180825283870192509083019060005b818110156124c0578351835292840192918401916001016124a4565b50909c9b505050505050505050505050565b803560ff8116811461239d57600080fd5b60008060008060008060c087890312156124fc57600080fd5b61250587612386565b95506020870135945060408701359350612521606088016124d2565b92506080870135915060a087013590509295509295509295565b600080600080600080600060e0888a03121561255657600080fd5b61255f88612386565b965061256d60208901612386565b95506040880135945060608801359350612589608089016124d2565b925060a0880135915060c0880135905092959891949750929550565b600080604083850312156125b857600080fd5b6125c183612386565b91506125cf60208401612386565b90509250929050565b600080604083850312156125eb57600080fd5b6125f483612386565b9150602083013563ffffffff8116811461260d57600080fd5b809150509250929050565b600181811c9082168061262c57607f821691505b6020821081036116d057634e487b7160e01b600052602260045260246000fd5b634e487b7160e01b600052601160045260246000fd5b808201808211156105b5576105b561264c565b634e487b7160e01b600052603260045260246000fd5b818103818111156105b5576105b561264c565b634e487b7160e01b600052601260045260246000fd5b6000826126d157634e487b7160e01b600052601260045260246000fd5b500490565b634e487b7160e01b600052602160045260246000fdfea2646970667358221220942b1071b4cbc624b1dce884a9f1d57c02d35a4ff1ec31b98a4313fc92a9a15e64736f6c63430008140033",
  "linkReferences": {},
  "deployedLinkReferences": {}
}