{
  "_format": "hh-sol-artifact-1",
  "contractName": "TokenAllocation",
  "sourceName": "contracts/TokenAllocationnew.sol",
  "abi": [
    {
      "inputs": [
        {
          "internalType": "address",
          "name": "initialOwner",
          "type": "address"
        },
        {
          "internalType": "address",
          "name": "vestingContract",
          "type": "address"
        }
      ],
      "stateMutability": "nonpayable",
      "type": "constructor"
    },
    {
      "anonymous": false,
      "inputs": [
        {
          "indexed": true,
          "internalType": "address",
          "name": "previousOwner",
          "type": "address"
        },
        {
          "indexed": true,
          "internalType": "address",
          "name": "newOwner",
          "type": "address"
        }
      ],
      "name": "OwnershipTransferred",
      "type": "event"
    },
    {
      "inputs": [],
      "name": "TOTAL_SUPPLY",
      "outputs": [
        {
          "internalType": "uint256",
          "name": "",
          "type": "uint256"
        }
      ],
      "stateMutability": "view",
      "type": "function"
    },
    {
      "inputs": [],
      "name": "advisors",
      "outputs": [
        {
          "internalType": "address",
          "name": "",
          "type": "address"
        }
      ],
      "stateMutability": "view",
      "type": "function"
    },
    {
      "inputs": [],
      "name": "allocationsSet",
      "outputs": [
        {
          "internalType": "bool",
          "name": "",
          "type": "bool"
        }
      ],
      "stateMutability": "view",
      "type": "function"
    },
    {
      "inputs": [],
      "name": "communityDAO",
      "outputs": [
        {
          "internalType": "address",
          "name": "",
          "type": "address"
        }
      ],
      "stateMutability": "view",
      "type": "function"
    },
    {
      "inputs": [],
      "name": "founder",
      "outputs": [
        {
          "internalType": "address",
          "name": "",
          "type": "address"
        }
      ],
      "stateMutability": "view",
      "type": "function"
    },
    {
      "inputs": [],
      "name": "grantsAndCommunity",
      "outputs": [
        {
          "internalType": "address",
          "name": "",
          "type": "address"
        }
      ],
      "stateMutability": "view",
      "type": "function"
    },
    {
      "inputs": [],
      "name": "investors",
      "outputs": [
        {
          "internalType": "address",
          "name": "",
          "type": "address"
        }
      ],
      "stateMutability": "view",
      "type": "function"
    },
    {
      "inputs": [],
      "name": "owner",
      "outputs": [
        {
          "internalType": "address",
          "name": "",
          "type": "address"
        }
      ],
      "stateMutability": "view",
      "type": "function"
    },
    {
      "inputs": [],
      "name": "renounceOwnership",
      "outputs": [],
      "stateMutability": "nonpayable",
      "type": "function"
    },
    {
      "inputs": [
        {
          "internalType": "address",
          "name": "_founder",
          "type": "address"
        },
        {
          "internalType": "address",
          "name": "_treasury",
          "type": "address"
        },
        {
          "internalType": "address",
          "name": "_grantsAndCommunity",
          "type": "address"
        },
        {
          "internalType": "address",
          "name": "_strategicPartners",
          "type": "address"
        },
        {
          "internalType": "address",
          "name": "_investors",
          "type": "address"
        },
        {
          "internalType": "address",
          "name": "_advisors",
          "type": "address"
        },
        {
          "internalType": "address",
          "name": "_team",
          "type": "address"
        },
        {
          "internalType": "address",
          "name": "_communityDAO",
          "type": "address"
        }
      ],
      "name": "setAllocations",
      "outputs": [],
      "stateMutability": "nonpayable",
      "type": "function"
    },
    {
      "inputs": [],
      "name": "strategicPartners",
      "outputs": [
        {
          "internalType": "address",
          "name": "",
          "type": "address"
        }
      ],
      "stateMutability": "view",
      "type": "function"
    },
    {
      "inputs": [],
      "name": "team",
      "outputs": [
        {
          "internalType": "address",
          "name": "",
          "type": "address"
        }
      ],
      "stateMutability": "view",
      "type": "function"
    },
    {
      "inputs": [],
      "name": "token",
      "outputs": [
        {
          "internalType": "contract IERC20",
          "name": "",
          "type": "address"
        }
      ],
      "stateMutability": "view",
      "type": "function"
    },
    {
      "inputs": [
        {
          "internalType": "address",
          "name": "newOwner",
          "type": "address"
        }
      ],
      "name": "transferOwnership",
      "outputs": [],
      "stateMutability": "nonpayable",
      "type": "function"
    },
    {
      "inputs": [],
      "name": "treasury",
      "outputs": [
        {
          "internalType": "address",
          "name": "",
          "type": "address"
        }
      ],
      "stateMutability": "view",
      "type": "function"
    },
    {
      "inputs": [],
      "name": "vesting",
      "outputs": [
        {
          "internalType": "contract TokenVesting",
          "name": "",
          "type": "address"
        }
      ],
      "stateMutability": "view",
      "type": "function"
    }
  ],
  "bytecode": "0x60a06040523480156200001157600080fd5b5060405162001027380380620010278339810160408190526200003491620001ec565b6200003f3362000183565b6001600160a01b0382166200008b5760405162461bcd60e51b815260206004820152600d60248201526c24b73b30b634b21037bbb732b960991b60448201526064015b60405180910390fd5b6001600160a01b038116620000e35760405162461bcd60e51b815260206004820152601860248201527f496e76616c69642076657374696e6720636f6e74726163740000000000000000604482015260640162000082565b620000ee8262000183565b600180546001600160a01b0319166001600160a01b03831690811790915560408051637e062a3560e11b8152905163fc0c546a916004808201926020929091908290030181865afa15801562000148573d6000803e3d6000fd5b505050506040513d601f19601f820116820180604052508101906200016e91906200022b565b6001600160a01b031660805250620002529050565b600080546001600160a01b038381166001600160a01b0319831681178455604051919092169283917f8be0079c531659141344cd1fd0a4f28419497f9722a3daafe3b4186f6b6457e09190a35050565b6001600160a01b0381168114620001e957600080fd5b50565b600080604083850312156200020057600080fd5b82516200020d81620001d3565b60208401519092506200022081620001d3565b809150509250929050565b6000602082840312156200023e57600080fd5b81516200024b81620001d3565b9392505050565b608051610da462000283600039600081816102580152818161084a015281816109350152610a170152610da46000f3fe608060405234801561001057600080fd5b50600436106101005760003560e01c806385f2aef211610097578063cb78d48b11610066578063cb78d48b1461021a578063edcfd0501461022d578063f2fde38b14610240578063fc0c546a1461025357600080fd5b806385f2aef2146101c25780638ac27f5f146101d55780638da5cb5b146101e8578063902d55a5146101f957600080fd5b806361d027b3116100d357806361d027b3146101705780636c20a1fd14610183578063715018a6146101a75780638207546e146101af57600080fd5b806344c63eec14610105578063475eeb64146101355780634d853ee51461014a5780635693257d1461015d575b600080fd5b600154610118906001600160a01b031681565b6040516001600160a01b0390911681526020015b60405180910390f35b610148610143366004610c27565b61027a565b005b600254610118906001600160a01b031681565b600554610118906001600160a01b031681565b600454610118906001600160a01b031681565b60095461019790600160a01b900460ff1681565b604051901515815260200161012c565b610148610ad4565b600954610118906001600160a01b031681565b600354610118906001600160a01b031681565b600754610118906001600160a01b031681565b6000546001600160a01b0316610118565b61020c6b033b2e3c9fd0803ce800000081565b60405190815260200161012c565b600654610118906001600160a01b031681565b600854610118906001600160a01b031681565b61014861024e366004610cbe565b610ae8565b6101187f000000000000000000000000000000000000000000000000000000000000000081565b610282610b61565b600954600160a01b900460ff16156102e15760405162461bcd60e51b815260206004820152601760248201527f416c6c6f636174696f6e7320616c72656164792073657400000000000000000060448201526064015b60405180910390fd5b6001600160a01b0388166103295760405162461bcd60e51b815260206004820152600f60248201526e24b73b30b634b2103337bab73232b960891b60448201526064016102d8565b6001600160a01b0387166103725760405162461bcd60e51b815260206004820152601060248201526f496e76616c696420747265617375727960801b60448201526064016102d8565b6001600160a01b0386166103b95760405162461bcd60e51b815260206004820152600e60248201526d496e76616c6964206772616e747360901b60448201526064016102d8565b6001600160a01b0385166104025760405162461bcd60e51b815260206004820152601060248201526f496e76616c696420706172746e65727360801b60448201526064016102d8565b6001600160a01b03841661044c5760405162461bcd60e51b8152602060048201526011602482015270496e76616c696420696e766573746f727360781b60448201526064016102d8565b6001600160a01b0383166104955760405162461bcd60e51b815260206004820152601060248201526f496e76616c69642061647669736f727360801b60448201526064016102d8565b6001600160a01b0382166104da5760405162461bcd60e51b815260206004820152600c60248201526b496e76616c6964207465616d60a01b60448201526064016102d8565b6001600160a01b03811661051e5760405162461bcd60e51b815260206004820152600b60248201526a496e76616c69642044414f60a81b60448201526064016102d8565b600280546001600160a01b03199081166001600160a01b038b81169190911783556004805483168b83161790556005805483168a8316179055600680548316898316179055600780548316888316179055600880548316878316179055600380549092168582161790915560098054600160a01b9285166001600160a81b0319909116179190911790556301e13380906000906105bc908390610cf6565b905060006105cb836004610cf6565b905060006105dc4262015180610d13565b60015460405163a031cfcb60e01b81529192506001600160a01b03169063a031cfcb9061061e908f906a7c13bc4b2c133c560000009087908790600401610d26565b600060405180830381600087803b15801561063857600080fd5b505af115801561064c573d6000803e3d6000fd5b505060015460405163a031cfcb60e01b81526001600160a01b03909116925063a031cfcb91506106919089906a52b7d2dcc80cd2e40000009087908790600401610d26565b600060405180830381600087803b1580156106ab57600080fd5b505af11580156106bf573d6000803e3d6000fd5b505060015460405163a031cfcb60e01b81526001600160a01b03909116925063a031cfcb9150610704908a906a295be96e640669720000009089908790600401610d26565b600060405180830381600087803b15801561071e57600080fd5b505af1158015610732573d6000803e3d6000fd5b505060015460405163a031cfcb60e01b81526001600160a01b03909116925063a031cfcb9150610777908b906a7c13bc4b2c133c560000009089908790600401610d26565b600060405180830381600087803b15801561079157600080fd5b505af11580156107a5573d6000803e3d6000fd5b505060015460405163a031cfcb60e01b81526001600160a01b03909116925063a031cfcb91506107ea908c906a52b7d2dcc80cd2e40000009088908790600401610d26565b600060405180830381600087803b15801561080457600080fd5b505af1158015610818573d6000803e3d6000fd5b505060405163a9059cbb60e01b81526001600160a01b038e811660048301526acecb8f27f4200f3a00000060248301527f000000000000000000000000000000000000000000000000000000000000000016925063a9059cbb91506044016020604051808303816000875af1158015610895573d6000803e3d6000fd5b505050506040513d601f19601f820116820180604052508101906108b99190610d4c565b6109055760405162461bcd60e51b815260206004820152601860248201527f5472656173757279207472616e73666572206661696c6564000000000000000060448201526064016102d8565b60405163a9059cbb60e01b81526001600160a01b038b811660048301526a52b7d2dcc80cd2e400000060248301527f0000000000000000000000000000000000000000000000000000000000000000169063a9059cbb906044016020604051808303816000875af115801561097e573d6000803e3d6000fd5b505050506040513d601f19601f820116820180604052508101906109a29190610d4c565b6109e75760405162461bcd60e51b815260206004820152601660248201527511dc985b9d1cc81d1c985b9cd9995c8819985a5b195960521b60448201526064016102d8565b60405163a9059cbb60e01b81526001600160a01b0386811660048301526a52b7d2dcc80cd2e400000060248301527f0000000000000000000000000000000000000000000000000000000000000000169063a9059cbb906044016020604051808303816000875af1158015610a60573d6000803e3d6000fd5b505050506040513d601f19601f82011682018060405250810190610a849190610d4c565b610ac65760405162461bcd60e51b8152602060048201526013602482015272111053c81d1c985b9cd9995c8819985a5b1959606a1b60448201526064016102d8565b505050505050505050505050565b610adc610b61565b610ae66000610bbb565b565b610af0610b61565b6001600160a01b038116610b555760405162461bcd60e51b815260206004820152602660248201527f4f776e61626c653a206e6577206f776e657220697320746865207a65726f206160448201526564647265737360d01b60648201526084016102d8565b610b5e81610bbb565b50565b6000546001600160a01b03163314610ae65760405162461bcd60e51b815260206004820181905260248201527f4f776e61626c653a2063616c6c6572206973206e6f7420746865206f776e657260448201526064016102d8565b600080546001600160a01b038381166001600160a01b0319831681178455604051919092169283917f8be0079c531659141344cd1fd0a4f28419497f9722a3daafe3b4186f6b6457e09190a35050565b80356001600160a01b0381168114610c2257600080fd5b919050565b600080600080600080600080610100898b031215610c4457600080fd5b610c4d89610c0b565b9750610c5b60208a01610c0b565b9650610c6960408a01610c0b565b9550610c7760608a01610c0b565b9450610c8560808a01610c0b565b9350610c9360a08a01610c0b565b9250610ca160c08a01610c0b565b9150610caf60e08a01610c0b565b90509295985092959890939650565b600060208284031215610cd057600080fd5b610cd982610c0b565b9392505050565b634e487b7160e01b600052601160045260246000fd5b8082028115828204841417610d0d57610d0d610ce0565b92915050565b80820180821115610d0d57610d0d610ce0565b6001600160a01b0394909416845260208401929092526040830152606082015260800190565b600060208284031215610d5e57600080fd5b81518015158114610cd957600080fdfea2646970667358221220bcf89e9777ed8d48a10d66e8e50f9b7cb9b8954655cd1a31e9c97e8e2e54e2e764736f6c63430008140033",
  "linkReferences": {},
  "deployedLinkReferences": {}
}