{
  "_format": "hh-sol-artifact-1",
  "contractName": "TokenVesting",
  "sourceName": "contracts/TokenVesting.sol",
  "abi": [
    {
      "inputs": [
        {
          "internalType": "address",
          "name": "_token",
          "type": "address"
        },
        {
          "internalType": "address",
          "name": "_initialOwner",
          "type": "address"
        }
      ],
      "stateMutability": "nonpayable",
      "type": "constructor"
    },
    {
      "anonymous": false,
      "inputs": [
        {
          "indexed": true,
          "internalType": "address",
          "name": "beneficiary",
          "type": "address"
        },
        {
          "indexed": true,
          "internalType": "address",
          "name": "newRecipient",
          "type": "address"
        }
      ],
      "name": "ClaimRedirected",
      "type": "event"
    },
    {
      "anonymous": false,
      "inputs": [
        {
          "indexed": true,
          "internalType": "address",
          "name": "previousOwner",
          "type": "address"
        },
        {
          "indexed": true,
          "internalType": "address",
          "name": "newOwner",
          "type": "address"
        }
      ],
      "name": "OwnershipChanged",
      "type": "event"
    },
    {
      "anonymous": false,
      "inputs": [
        {
          "indexed": true,
          "internalType": "address",
          "name": "previousOwner",
          "type": "address"
        },
        {
          "indexed": true,
          "internalType": "address",
          "name": "newOwner",
          "type": "address"
        }
      ],
      "name": "OwnershipTransferred",
      "type": "event"
    },
    {
      "anonymous": false,
      "inputs": [
        {
          "indexed": false,
          "internalType": "address",
          "name": "account",
          "type": "address"
        }
      ],
      "name": "Paused",
      "type": "event"
    },
    {
      "anonymous": false,
      "inputs": [
        {
          "indexed": true,
          "internalType": "address",
          "name": "beneficiary",
          "type": "address"
        },
        {
          "indexed": true,
          "internalType": "address",
          "name": "recipient",
          "type": "address"
        },
        {
          "indexed": false,
          "internalType": "uint256",
          "name": "amount",
          "type": "uint256"
        }
      ],
      "name": "TokensClaimed",
      "type": "event"
    },
    {
      "anonymous": false,
      "inputs": [
        {
          "indexed": false,
          "internalType": "address",
          "name": "account",
          "type": "address"
        }
      ],
      "name": "Unpaused",
      "type": "event"
    },
    {
      "anonymous": false,
      "inputs": [
        {
          "indexed": true,
          "internalType": "address",
          "name": "beneficiary",
          "type": "address"
        },
        {
          "indexed": false,
          "internalType": "uint256",
          "name": "totalAmount",
          "type": "uint256"
        },
        {
          "indexed": false,
          "internalType": "uint256",
          "name": "vestingDuration",
          "type": "uint256"
        },
        {
          "indexed": false,
          "internalType": "uint256",
          "name": "startTime",
          "type": "uint256"
        }
      ],
      "name": "VestingSet",
      "type": "event"
    },
    {
      "inputs": [
        {
          "internalType": "uint256",
          "name": "",
          "type": "uint256"
        }
      ],
      "name": "beneficiaries",
      "outputs": [
        {
          "internalType": "address",
          "name": "",
          "type": "address"
        }
      ],
      "stateMutability": "view",
      "type": "function"
    },
    {
      "inputs": [
        {
          "internalType": "address",
          "name": "newOwner",
          "type": "address"
        }
      ],
      "name": "changeOwner",
      "outputs": [],
      "stateMutability": "nonpayable",
      "type": "function"
    },
    {
      "inputs": [],
      "name": "claim",
      "outputs": [],
      "stateMutability": "nonpayable",
      "type": "function"
    },
    {
      "inputs": [],
      "name": "getBeneficiaries",
      "outputs": [
        {
          "internalType": "address[]",
          "name": "",
          "type": "address[]"
        }
      ],
      "stateMutability": "view",
      "type": "function"
    },
    {
      "inputs": [
        {
          "internalType": "address",
          "name": "beneficiary",
          "type": "address"
        }
      ],
      "name": "getClaimRecipient",
      "outputs": [
        {
          "internalType": "address",
          "name": "",
          "type": "address"
        }
      ],
      "stateMutability": "view",
      "type": "function"
    },
    {
      "inputs": [],
      "name": "owner",
      "outputs": [
        {
          "internalType": "address",
          "name": "",
          "type": "address"
        }
      ],
      "stateMutability": "view",
      "type": "function"
    },
    {
      "inputs": [],
      "name": "pause",
      "outputs": [],
      "stateMutability": "nonpayable",
      "type": "function"
    },
    {
      "inputs": [],
      "name": "paused",
      "outputs": [
        {
          "internalType": "bool",
          "name": "",
          "type": "bool"
        }
      ],
      "stateMutability": "view",
      "type": "function"
    },
    {
      "inputs": [
        {
          "internalType": "address",
          "name": "newRecipient",
          "type": "address"
        }
      ],
      "name": "redirectClaims",
      "outputs": [],
      "stateMutability": "nonpayable",
      "type": "function"
    },
    {
      "inputs": [],
      "name": "renounceOwnership",
      "outputs": [],
      "stateMutability": "nonpayable",
      "type": "function"
    },
    {
      "inputs": [
        {
          "internalType": "address",
          "name": "beneficiary",
          "type": "address"
        },
        {
          "internalType": "uint256",
          "name": "totalAmount",
          "type": "uint256"
        },
        {
          "internalType": "uint256",
          "name": "vestingDuration",
          "type": "uint256"
        }
      ],
      "name": "setVesting",
      "outputs": [],
      "stateMutability": "nonpayable",
      "type": "function"
    },
    {
      "inputs": [
        {
          "internalType": "address",
          "name": "beneficiary",
          "type": "address"
        },
        {
          "internalType": "uint256",
          "name": "totalAmount",
          "type": "uint256"
        },
        {
          "internalType": "uint256",
          "name": "vestingDuration",
          "type": "uint256"
        },
        {
          "internalType": "uint256",
          "name": "startTime",
          "type": "uint256"
        }
      ],
      "name": "setVestingWithCustomStart",
      "outputs": [],
      "stateMutability": "nonpayable",
      "type": "function"
    },
    {
      "inputs": [],
      "name": "token",
      "outputs": [
        {
          "internalType": "contract IERC20",
          "name": "",
          "type": "address"
        }
      ],
      "stateMutability": "view",
      "type": "function"
    },
    {
      "inputs": [],
      "name": "totalTokensRequired",
      "outputs": [
        {
          "internalType": "uint256",
          "name": "totalRequired",
          "type": "uint256"
        }
      ],
      "stateMutability": "view",
      "type": "function"
    },
    {
      "inputs": [
        {
          "internalType": "address",
          "name": "newOwner",
          "type": "address"
        }
      ],
      "name": "transferOwnership",
      "outputs": [],
      "stateMutability": "nonpayable",
      "type": "function"
    },
    {
      "inputs": [],
      "name": "unpause",
      "outputs": [],
      "stateMutability": "nonpayable",
      "type": "function"
    },
    {
      "inputs": [
        {
          "internalType": "address",
          "name": "beneficiary",
          "type": "address"
        }
      ],
      "name": "vestedAmount",
      "outputs": [
        {
          "internalType": "uint256",
          "name": "",
          "type": "uint256"
        }
      ],
      "stateMutability": "view",
      "type": "function"
    },
    {
      "inputs": [
        {
          "internalType": "address",
          "name": "",
          "type": "address"
        }
      ],
      "name": "vestings",
      "outputs": [
        {
          "internalType": "uint256",
          "name": "totalAmount",
          "type": "uint256"
        },
        {
          "internalType": "uint256",
          "name": "vestingDuration",
          "type": "uint256"
        },
        {
          "internalType": "uint256",
          "name": "startTime",
          "type": "uint256"
        },
        {
          "internalType": "uint256",
          "name": "amountClaimed",
          "type": "uint256"
        },
        {
          "internalType": "address",
          "name": "claimRecipient",
          "type": "address"
        }
      ],
      "stateMutability": "view",
      "type": "function"
    }
  ],
  "bytecode": "0x60a06040523480156200001157600080fd5b50604051620013b6380380620013b6833981016040819052620000349162000191565b6200003f3362000124565b6000805460ff60a01b19169055600180556001600160a01b038216620000ac5760405162461bcd60e51b815260206004820152601560248201527f496e76616c696420746f6b656e2061646472657373000000000000000000000060448201526064015b60405180910390fd5b6001600160a01b038116620001045760405162461bcd60e51b815260206004820152601560248201527f496e76616c6964206f776e6572206164647265737300000000000000000000006044820152606401620000a3565b6001600160a01b0382166080526200011c8162000124565b5050620001c9565b600080546001600160a01b038381166001600160a01b0319831681178455604051919092169283917f8be0079c531659141344cd1fd0a4f28419497f9722a3daafe3b4186f6b6457e09190a35050565b80516001600160a01b03811681146200018c57600080fd5b919050565b60008060408385031215620001a557600080fd5b620001b08362000174565b9150620001c06020840162000174565b90509250929050565b6080516111ca620001ec600039600081816102e301526104f901526111ca6000f3fe608060405234801561001057600080fd5b50600436106101165760003560e01c8063913b722c116100a2578063daf4986311610071578063daf498631461022e578063e0a668b4146102a5578063efeb5e58146102b8578063f2fde38b146102cb578063fc0c546a146102de57600080fd5b8063913b722c146101e0578063a031cfcb146101f5578063a6f9dae114610208578063cdc018481461021b57600080fd5b80634e71d92d116100e95780634e71d92d1461019a5780635c975abb146101a2578063715018a6146101bf5780638456cb59146101c75780638da5cb5b146101cf57600080fd5b8063050186561461011b578063384711cc146101675780633b26792b146101885780633f4ba83a14610190575b600080fd5b61014a610129366004610f61565b6001600160a01b039081166000908152600260205260409020600401541690565b6040516001600160a01b0390911681526020015b60405180910390f35b61017a610175366004610f61565b610305565b60405190815260200161015e565b61017a61037e565b6101986103ea565b005b6101986103fc565b600054600160a01b900460ff16604051901515815260200161015e565b61019861056d565b61019861057f565b6000546001600160a01b031661014a565b6101e861058f565b60405161015e9190610f83565b610198610203366004610fd0565b6105f1565b610198610216366004610f61565b61065b565b610198610229366004610f61565b610716565b61027461023c366004610f61565b60026020819052600091825260409091208054600182015492820154600383015460049093015491939290916001600160a01b031685565b6040805195865260208601949094529284019190915260608301526001600160a01b0316608082015260a00161015e565b6101986102b3366004611009565b61080c565b61014a6102c636600461103c565b610825565b6101986102d9366004610f61565b61084f565b61014a7f000000000000000000000000000000000000000000000000000000000000000081565b6001600160a01b03811660009081526002602081905260408220908101544210156103335750600092915050565b6000816002015442610345919061106b565b90508160010154811061035a57505492915050565b6001820154825461036c908390611084565b610376919061109b565b949350505050565b6000805b6003548110156103e65760026000600383815481106103a3576103a36110bd565b60009182526020808320909101546001600160a01b031683528201929092526040019020546103d290836110d3565b9150806103de816110e6565b915050610382565b5090565b6103f26108c5565b6103fa61091f565b565b336000908152600260205260409020546104535760405162461bcd60e51b81526020600482015260136024820152724e6f2076657374696e67207363686564756c6560681b60448201526064015b60405180910390fd5b61045b610974565b3360008181526002602052604081209161047490610305565b90506000826003015482610488919061106b565b9050600081116104cd5760405162461bcd60e51b815260206004820152601060248201526f4e6f7468696e6720746f20636c61696d60801b604482015260640161044a565b808360030160008282546104e191906110d3565b90915550506004830154610522906001600160a01b037f000000000000000000000000000000000000000000000000000000000000000081169116836109c1565b60048301546040518281526001600160a01b039091169033907fa86305abc2db271df4609aa86a8d044bc11fb36939841bfdad6c1ab2b26e94719060200160405180910390a3505050565b6105756108c5565b6103fa6000610a13565b6105876108c5565b6103fa610a63565b606060038054806020026020016040519081016040528092919081815260200182805480156105e757602002820191906000526020600020905b81546001600160a01b031681526001909101906020018083116105c9575b5050505050905090565b6105f96108c5565b428110156106495760405162461bcd60e51b815260206004820152601960248201527f53746172742074696d65206d757374206265203e3d206e6f7700000000000000604482015260640161044a565b61065584848484610aa6565b50505050565b6106636108c5565b6001600160a01b0381166106b95760405162461bcd60e51b815260206004820152601860248201527f5a65726f2061646472657373206e6f7420616c6c6f7765640000000000000000604482015260640161044a565b806001600160a01b03166106d56000546001600160a01b031690565b6001600160a01b03167f0384899bd253d83b23daa4d29aaa2efe0563d1132b43101e9ad667235aeb951b60405160405180910390a36107138161084f565b50565b336000908152600260205260409020546107685760405162461bcd60e51b81526020600482015260136024820152724e6f2076657374696e67207363686564756c6560681b604482015260640161044a565b6001600160a01b0381166107b25760405162461bcd60e51b8152602060048201526011602482015270125b9d985b1a59081c9958da5c1a595b9d607a1b604482015260640161044a565b3360008181526002602052604080822060040180546001600160a01b0319166001600160a01b03861690811790915590519092917f0cb3ac7bd75e4e07f5fd957a7e676db41b0ded5698c09596f93c28e13d36c83691a350565b6108146108c5565b61082083838342610aa6565b505050565b6003818154811061083557600080fd5b6000918252602090912001546001600160a01b0316905081565b6108576108c5565b6001600160a01b0381166108bc5760405162461bcd60e51b815260206004820152602660248201527f4f776e61626c653a206e6577206f776e657220697320746865207a65726f206160448201526564647265737360d01b606482015260840161044a565b61071381610a13565b6000546001600160a01b031633146103fa5760405162461bcd60e51b815260206004820181905260248201527f4f776e61626c653a2063616c6c6572206973206e6f7420746865206f776e6572604482015260640161044a565b610927610cfd565b6000805460ff60a01b191690557f5db9ee0a495bf2e6ff9c91a7834c1ba4fdd244a5e8aa4e537bd38aeae4b073aa335b6040516001600160a01b03909116815260200160405180910390a1565b600054600160a01b900460ff16156103fa5760405162461bcd60e51b815260206004820152601060248201526f14185d5cd8589b194e881c185d5cd95960821b604482015260640161044a565b604080516001600160a01b038416602482015260448082018490528251808303909101815260649091019091526020810180516001600160e01b031663a9059cbb60e01b179052610820908490610d4d565b600080546001600160a01b038381166001600160a01b0319831681178455604051919092169283917f8be0079c531659141344cd1fd0a4f28419497f9722a3daafe3b4186f6b6457e09190a35050565b610a6b610974565b6000805460ff60a01b1916600160a01b1790557f62e78cea01bee320cd4e420270b5ea74000d11b0c9f74754ebdbfc544b05a2586109573390565b6001600160a01b038416610aeb5760405162461bcd60e51b815260206004820152600c60248201526b5a65726f206164647265737360a01b604482015260640161044a565b60008311610b295760405162461bcd60e51b815260206004820152600b60248201526a416d6f756e74207a65726f60a81b604482015260640161044a565b60008211610b695760405162461bcd60e51b815260206004820152600d60248201526c4475726174696f6e207a65726f60981b604482015260640161044a565b6001600160a01b03841660009081526002602052604090205415610bc55760405162461bcd60e51b815260206004820152601360248201527215995cdd1a5b99c8185b1c9958591e481cd95d606a1b604482015260640161044a565b6040805160a08101825284815260208082018581528284018581526000606085018181526001600160a01b038b811660808801818152908452600280885289852098518955955160018901559351948701949094555160038601559051600494850180546001600160a01b0319169190931617909155919052205460ff16610cab576003805460018082019092557fc2575a0e9e593c00f959f8c92f12db2869c3395a3b0502d05e2516446f71f85b0180546001600160a01b0319166001600160a01b0387169081179091556000908152600460205260409020805460ff191690911790555b60408051848152602081018490529081018290526001600160a01b038516907fbd8626012dcefbb75b88e23986047f53ffeeacd591c59401c4b8978455b308f09060600160405180910390a250505050565b600054600160a01b900460ff166103fa5760405162461bcd60e51b815260206004820152601460248201527314185d5cd8589b194e881b9bdd081c185d5cd95960621b604482015260640161044a565b6000610da2826040518060400160405280602081526020017f5361666545524332303a206c6f772d6c6576656c2063616c6c206661696c6564815250856001600160a01b0316610e229092919063ffffffff16565b9050805160001480610dc3575080806020019051810190610dc391906110ff565b6108205760405162461bcd60e51b815260206004820152602a60248201527f5361666545524332303a204552433230206f7065726174696f6e20646964206e6044820152691bdd081cdd58d8d9595960b21b606482015260840161044a565b6060610376848460008585600080866001600160a01b03168587604051610e499190611145565b60006040518083038185875af1925050503d8060008114610e86576040519150601f19603f3d011682016040523d82523d6000602084013e610e8b565b606091505b5091509150610e9c87838387610ea7565b979650505050505050565b60608315610f16578251600003610f0f576001600160a01b0385163b610f0f5760405162461bcd60e51b815260206004820152601d60248201527f416464726573733a2063616c6c20746f206e6f6e2d636f6e7472616374000000604482015260640161044a565b5081610376565b6103768383815115610f2b5781518083602001fd5b8060405162461bcd60e51b815260040161044a9190611161565b80356001600160a01b0381168114610f5c57600080fd5b919050565b600060208284031215610f7357600080fd5b610f7c82610f45565b9392505050565b6020808252825182820181905260009190848201906040850190845b81811015610fc45783516001600160a01b031683529284019291840191600101610f9f565b50909695505050505050565b60008060008060808587031215610fe657600080fd5b610fef85610f45565b966020860135965060408601359560600135945092505050565b60008060006060848603121561101e57600080fd5b61102784610f45565b95602085013595506040909401359392505050565b60006020828403121561104e57600080fd5b5035919050565b634e487b7160e01b600052601160045260246000fd5b8181038181111561107e5761107e611055565b92915050565b808202811582820484141761107e5761107e611055565b6000826110b857634e487b7160e01b600052601260045260246000fd5b500490565b634e487b7160e01b600052603260045260246000fd5b8082018082111561107e5761107e611055565b6000600182016110f8576110f8611055565b5060010190565b60006020828403121561111157600080fd5b81518015158114610f7c57600080fd5b60005b8381101561113c578181015183820152602001611124565b50506000910152565b60008251611157818460208701611121565b9190910192915050565b6020815260008251806020840152611180816040850160208701611121565b601f01601f1916919091016040019291505056fea2646970667358221220203c6b5494f8f6fb257d629961051133a79f887c1b25e79f23096af53ef3f06c64736f6c63430008140033",
  "linkReferences": {},
  "deployedLinkReferences": {}
}